{
  "_format": "hh-sol-artifact-1",
  "contractName": "QuizTriviaEntry",
  "sourceName": "contracts/QuizTriviaEntry.sol",
  "abi": [
    {
      "inputs": [],
      "stateMutability": "nonpayable",
      "type": "constructor"
    },
    {
      "anonymous": false,
      "inputs": [
        {
          "indexed": true,
          "internalType": "address",
          "name": "user",
          "type": "address"
        },
        {
          "indexed": true,
          "internalType": "uint256",
          "name": "mode",
          "type": "uint256"
        },
        {
          "indexed": false,
          "internalType": "uint256",
          "name": "score",
          "type": "uint256"
        },
        {
          "indexed": false,
          "internalType": "uint256",
          "name": "timestamp",
          "type": "uint256"
        }
      ],
      "name": "QuizCompleted",
      "type": "event"
    },
    {
      "anonymous": false,
      "inputs": [
        {
          "indexed": true,
          "internalType": "address",
          "name": "user",
          "type": "address"
        },
        {
          "indexed": true,
          "internalType": "uint256",
          "name": "mode",
          "type": "uint256"
        },
        {
          "indexed": false,
          "internalType": "uint256",
          "name": "timestamp",
          "type": "uint256"
        },
        {
          "indexed": false,
          "internalType": "uint256",
          "name": "feePaid",
          "type": "uint256"
        }
      ],
      "name": "QuizStarted",
      "type": "event"
    },
    {
      "inputs": [],
      "name": "CHALLENGE_FEE",
      "outputs": [
        {
          "internalType": "uint256",
          "name": "",
          "type": "uint256"
        }
      ],
      "stateMutability": "view",
      "type": "function"
    },
    {
      "inputs": [],
      "name": "CLASSIC_FEE",
      "outputs": [
        {
          "internalType": "uint256",
          "name": "",
          "type": "uint256"
        }
      ],
      "stateMutability": "view",
      "type": "function"
    },
    {
      "inputs": [],
      "name": "TIME_MODE_FEE",
      "outputs": [
        {
          "internalType": "uint256",
          "name": "",
          "type": "uint256"
        }
      ],
      "stateMutability": "view",
      "type": "function"
    },
    {
      "inputs": [],
      "name": "getBalance",
      "outputs": [
        {
          "internalType": "uint256",
          "name": "",
          "type": "uint256"
        }
      ],
      "stateMutability": "view",
      "type": "function"
    },
    {
      "inputs": [
        {
          "internalType": "enum QuizTriviaEntry.QuizMode",
          "name": "mode",
          "type": "uint8"
        }
      ],
      "name": "getRequiredFee",
      "outputs": [
        {
          "internalType": "uint256",
          "name": "",
          "type": "uint256"
        }
      ],
      "stateMutability": "pure",
      "type": "function"
    },
    {
      "inputs": [],
      "name": "getStats",
      "outputs": [
        {
          "internalType": "uint256",
          "name": "total",
          "type": "uint256"
        },
        {
          "internalType": "uint256",
          "name": "classic",
          "type": "uint256"
        },
        {
          "internalType": "uint256",
          "name": "time",
          "type": "uint256"
        },
        {
          "internalType": "uint256",
          "name": "challenge",
          "type": "uint256"
        },
        {
          "internalType": "uint256",
          "name": "fees",
          "type": "uint256"
        }
      ],
      "stateMutability": "view",
      "type": "function"
    },
    {
      "inputs": [
        {
          "internalType": "address",
          "name": "user",
          "type": "address"
        }
      ],
      "name": "getUserQuizCount",
      "outputs": [
        {
          "internalType": "uint256",
          "name": "",
          "type": "uint256"
        }
      ],
      "stateMutability": "view",
      "type": "function"
    },
    {
      "inputs": [
        {
          "internalType": "enum QuizTriviaEntry.QuizMode",
          "name": "",
          "type": "uint8"
        }
      ],
      "name": "modeCount",
      "outputs": [
        {
          "internalType": "uint256",
          "name": "",
          "type": "uint256"
        }
      ],
      "stateMutability": "view",
      "type": "function"
    },
    {
      "inputs": [],
      "name": "owner",
      "outputs": [
        {
          "internalType": "address",
          "name": "",
          "type": "address"
        }
      ],
      "stateMutability": "view",
      "type": "function"
    },
    {
      "inputs": [
        {
          "internalType": "address",
          "name": "user",
          "type": "address"
        },
        {
          "internalType": "enum QuizTriviaEntry.QuizMode",
          "name": "mode",
          "type": "uint8"
        },
        {
          "internalType": "uint256",
          "name": "score",
          "type": "uint256"
        }
      ],
      "name": "recordQuizCompletion",
      "outputs": [],
      "stateMutability": "nonpayable",
      "type": "function"
    },
    {
      "inputs": [
        {
          "internalType": "enum QuizTriviaEntry.QuizMode",
          "name": "mode",
          "type": "uint8"
        }
      ],
      "name": "startQuiz",
      "outputs": [],
      "stateMutability": "payable",
      "type": "function"
    },
    {
      "inputs": [],
      "name": "totalFeesCollected",
      "outputs": [
        {
          "internalType": "uint256",
          "name": "",
          "type": "uint256"
        }
      ],
      "stateMutability": "view",
      "type": "function"
    },
    {
      "inputs": [],
      "name": "totalQuizzes",
      "outputs": [
        {
          "internalType": "uint256",
          "name": "",
          "type": "uint256"
        }
      ],
      "stateMutability": "view",
      "type": "function"
    },
    {
      "inputs": [
        {
          "internalType": "address",
          "name": "",
          "type": "address"
        }
      ],
      "name": "userQuizCount",
      "outputs": [
        {
          "internalType": "uint256",
          "name": "",
          "type": "uint256"
        }
      ],
      "stateMutability": "view",
      "type": "function"
    },
    {
      "inputs": [],
      "name": "withdraw",
      "outputs": [],
      "stateMutability": "nonpayable",
      "type": "function"
    }
  ],
  "bytecode": "0x608060405234801561001057600080fd5b50600080546001600160a01b03191633179055610879806100326000396000f3fe6080604052600436106100e85760003560e01c80638da5cb5b1161008a578063bff53bd811610059578063bff53bd814610224578063c59d484714610239578063ce832a7b14610276578063db9eb6111461029657600080fd5b80638da5cb5b146101d957806391ad66cc14610211578063b4476a2d14610224578063be85b7731461022457600080fd5b8063316701c2116100c6578063316701c2146101765780633ccfd60b1461018c57806360c6d8ae146101a35780636bc39c94146101b957600080fd5b80630db2e7d0146100ed57806312065fe01461012d5780632cc71fc114610140575b600080fd5b3480156100f957600080fd5b5061011a610108366004610724565b60016020526000908152604090205481565b6040519081526020015b60405180910390f35b34801561013957600080fd5b504761011a565b34801561014c57600080fd5b5061011a61015b366004610724565b6001600160a01b031660009081526001602052604090205490565b34801561018257600080fd5b5061011a60035481565b34801561019857600080fd5b506101a16102c3565b005b3480156101af57600080fd5b5061011a60045481565b3480156101c557600080fd5b5061011a6101d4366004610755565b610390565b3480156101e557600080fd5b506000546101f9906001600160a01b031681565b6040516001600160a01b039091168152602001610124565b6101a161021f366004610755565b61040c565b34801561023057600080fd5b5061011a600081565b34801561024557600080fd5b5061024e6105ba565b604080519586526020860194909452928401919091526060830152608082015260a001610124565b34801561028257600080fd5b506101a1610291366004610770565b61067c565b3480156102a257600080fd5b5061011a6102b1366004610755565b60026020526000908152604090205481565b6000546001600160a01b0316331461030e5760405162461bcd60e51b81526020600482015260096024820152682737ba1037bbb732b960b91b60448201526064015b60405180910390fd5b47806103535760405162461bcd60e51b81526020600482015260146024820152734e6f2066756e647320746f20776974686472617760601b6044820152606401610305565b600080546040516001600160a01b039091169183156108fc02918491818181858888f1935050505015801561038c573d6000803e3d6000fd5b5050565b6000808260028111156103a5576103a56107ac565b036103b257506000919050565b60018260028111156103c6576103c66107ac565b036103d357506000919050565b60028260028111156103e7576103e76107ac565b036103f457506000919050565b60405162461bcd60e51b8152600401610305906107c2565b6002816002811115610420576104206107ac565b111561043e5760405162461bcd60e51b8152600401610305906107c2565b600061044982610390565b9050803410156104925760405162461bcd60e51b8152602060048201526014602482015273125b9cdd59999a58da595b9d081c185e5b595b9d60621b6044820152606401610305565b3360009081526001602052604081208054916104ad836107fe565b9190505550600260008360028111156104c8576104c86107ac565b60028111156104d9576104d96107ac565b815260200190815260200160002060008154809291906104f8906107fe565b90915550506003805490600061050d836107fe565b919050555080600460008282546105249190610817565b90915550829050600281111561053c5761053c6107ac565b604080514281526020810184905233917f5aa65e0a1aad4bb70a2d7eae8b37448e338d5ccd9ae76a790e0bda14630fc1a4910160405180910390a38034111561038c57336108fc61058d8334610830565b6040518115909202916000818181858888f193505050501580156105b5573d6000803e3d6000fd5b505050565b6000806000806000600354600260008060028111156105db576105db6107ac565b60028111156105ec576105ec6107ac565b8152602001908152602001600020546002600060016002811115610612576106126107ac565b6002811115610623576106236107ac565b81526020019081526020016000205460026000600280811115610648576106486107ac565b6002811115610659576106596107ac565b815260200190815260200160002054600454945094509450945094509091929394565b6002826002811115610690576106906107ac565b11156106ae5760405162461bcd60e51b8152600401610305906107c2565b8160028111156106c0576106c06107ac565b604080518381524260208201526001600160a01b038616917fa0d4582659e33ebf7e1e80b7fd9c16d821a7f74598c47a09f3b891b428e268cb910160405180910390a3505050565b80356001600160a01b038116811461071f57600080fd5b919050565b60006020828403121561073657600080fd5b61073f82610708565b9392505050565b80356003811061071f57600080fd5b60006020828403121561076757600080fd5b61073f82610746565b60008060006060848603121561078557600080fd5b61078e84610708565b925061079c60208501610746565b9150604084013590509250925092565b634e487b7160e01b600052602160045260246000fd5b6020808252600c908201526b496e76616c6964206d6f646560a01b604082015260600190565b634e487b7160e01b600052601160045260246000fd5b600060018201610810576108106107e8565b5060010190565b8082018082111561082a5761082a6107e8565b92915050565b8181038181111561082a5761082a6107e856fea26469706673582212205cccd1e055e684227e9604f13eb6ba5e69f3d8ca2577dcf061910f71d19db76264736f6c63430008140033",
  "linkReferences": {},
  "deployedLinkReferences": {}
}