{
  "_format": "hh-sol-artifact-1",
  "contractName": "QuizTriviaEntry",
  "sourceName": "contracts/QuizTriviaEntry.sol",
  "abi": [
    {
      "inputs": [],
      "stateMutability": "nonpayable",
      "type": "constructor"
    },
    {
      "anonymous": false,
      "inputs": [
        {
          "indexed": true,
          "internalType": "address",
          "name": "user",
          "type": "address"
        },
        {
          "indexed": true,
          "internalType": "uint256",
          "name": "mode",
          "type": "uint256"
        },
        {
          "indexed": false,
          "internalType": "uint256",
          "name": "score",
          "type": "uint256"
        },
        {
          "indexed": false,
          "internalType": "uint256",
          "name": "timestamp",
          "type": "uint256"
        }
      ],
      "name": "QuizCompleted",
      "type": "event"
    },
    {
      "anonymous": false,
      "inputs": [
        {
          "indexed": true,
          "internalType": "address",
          "name": "user",
          "type": "address"
        },
        {
          "indexed": true,
          "internalType": "uint256",
          "name": "mode",
          "type": "uint256"
        },
        {
          "indexed": false,
          "internalType": "uint256",
          "name": "timestamp",
          "type": "uint256"
        },
        {
          "indexed": false,
          "internalType": "uint256",
          "name": "entryFee",
          "type": "uint256"
        }
      ],
      "name": "QuizStarted",
      "type": "event"
    },
    {
      "inputs": [],
      "name": "CHALLENGE_FEE",
      "outputs": [
        {
          "internalType": "uint256",
          "name": "",
          "type": "uint256"
        }
      ],
      "stateMutability": "view",
      "type": "function"
    },
    {
      "inputs": [],
      "name": "CLASSIC_FEE",
      "outputs": [
        {
          "internalType": "uint256",
          "name": "",
          "type": "uint256"
        }
      ],
      "stateMutability": "view",
      "type": "function"
    },
    {
      "inputs": [],
      "name": "TIME_MODE_FEE",
      "outputs": [
        {
          "internalType": "uint256",
          "name": "",
          "type": "uint256"
        }
      ],
      "stateMutability": "view",
      "type": "function"
    },
    {
      "inputs": [
        {
          "internalType": "enum QuizTriviaEntry.QuizMode",
          "name": "mode",
          "type": "uint8"
        }
      ],
      "name": "getRequiredFee",
      "outputs": [
        {
          "internalType": "uint256",
          "name": "",
          "type": "uint256"
        }
      ],
      "stateMutability": "pure",
      "type": "function"
    },
    {
      "inputs": [],
      "name": "getStats",
      "outputs": [
        {
          "internalType": "uint256",
          "name": "total",
          "type": "uint256"
        },
        {
          "internalType": "uint256",
          "name": "classic",
          "type": "uint256"
        },
        {
          "internalType": "uint256",
          "name": "time",
          "type": "uint256"
        },
        {
          "internalType": "uint256",
          "name": "challenge",
          "type": "uint256"
        }
      ],
      "stateMutability": "view",
      "type": "function"
    },
    {
      "inputs": [
        {
          "internalType": "address",
          "name": "user",
          "type": "address"
        }
      ],
      "name": "getUserQuizCount",
      "outputs": [
        {
          "internalType": "uint256",
          "name": "",
          "type": "uint256"
        }
      ],
      "stateMutability": "view",
      "type": "function"
    },
    {
      "inputs": [
        {
          "internalType": "enum QuizTriviaEntry.QuizMode",
          "name": "",
          "type": "uint8"
        }
      ],
      "name": "modeCount",
      "outputs": [
        {
          "internalType": "uint256",
          "name": "",
          "type": "uint256"
        }
      ],
      "stateMutability": "view",
      "type": "function"
    },
    {
      "inputs": [],
      "name": "owner",
      "outputs": [
        {
          "internalType": "address",
          "name": "",
          "type": "address"
        }
      ],
      "stateMutability": "view",
      "type": "function"
    },
    {
      "inputs": [
        {
          "internalType": "address",
          "name": "user",
          "type": "address"
        },
        {
          "internalType": "enum QuizTriviaEntry.QuizMode",
          "name": "mode",
          "type": "uint8"
        },
        {
          "internalType": "uint256",
          "name": "score",
          "type": "uint256"
        }
      ],
      "name": "recordQuizCompletion",
      "outputs": [],
      "stateMutability": "nonpayable",
      "type": "function"
    },
    {
      "inputs": [
        {
          "internalType": "enum QuizTriviaEntry.QuizMode",
          "name": "mode",
          "type": "uint8"
        }
      ],
      "name": "startQuiz",
      "outputs": [],
      "stateMutability": "payable",
      "type": "function"
    },
    {
      "inputs": [],
      "name": "totalQuizzes",
      "outputs": [
        {
          "internalType": "uint256",
          "name": "",
          "type": "uint256"
        }
      ],
      "stateMutability": "view",
      "type": "function"
    },
    {
      "inputs": [
        {
          "internalType": "address",
          "name": "",
          "type": "address"
        }
      ],
      "name": "userQuizCount",
      "outputs": [
        {
          "internalType": "uint256",
          "name": "",
          "type": "uint256"
        }
      ],
      "stateMutability": "view",
      "type": "function"
    },
    {
      "inputs": [],
      "name": "withdraw",
      "outputs": [],
      "stateMutability": "nonpayable",
      "type": "function"
    }
  ],
  "bytecode": "0x608060405234801561001057600080fd5b50600080546001600160a01b031916331790556107bc806100326000396000f3fe6080604052600436106100c25760003560e01c806391ad66cc1161007f578063bff53bd811610059578063bff53bd8146101d5578063c59d4847146101ee578063ce832a7b14610223578063db9eb6111461024357600080fd5b806391ad66cc146101c2578063b4476a2d146101d5578063be85b773146101d557600080fd5b80630db2e7d0146100c75780632cc71fc114610107578063316701c21461013d5780633ccfd60b146101535780636bc39c941461016a5780638da5cb5b1461018a575b600080fd5b3480156100d357600080fd5b506100f46100e23660046106c1565b60016020526000908152604090205481565b6040519081526020015b60405180910390f35b34801561011357600080fd5b506100f46101223660046106c1565b6001600160a01b031660009081526001602052604090205490565b34801561014957600080fd5b506100f460035481565b34801561015f57600080fd5b50610168610270565b005b34801561017657600080fd5b506100f46101853660046106f2565b6102f8565b34801561019657600080fd5b506000546101aa906001600160a01b031681565b6040516001600160a01b0390911681526020016100fe565b6101686101d03660046106f2565b610370565b3480156101e157600080fd5b506100f464174876e80081565b3480156101fa57600080fd5b50610203610540565b6040805194855260208501939093529183015260608201526080016100fe565b34801561022f57600080fd5b5061016861023e36600461070d565b6105fa565b34801561024f57600080fd5b506100f461025e3660046106f2565b60026020526000908152604090205481565b6000546001600160a01b031633146102bb5760405162461bcd60e51b81526020600482015260096024820152682737ba1037bbb732b960b91b60448201526064015b60405180910390fd5b600080546040516001600160a01b03909116914780156108fc02929091818181858888f193505050501580156102f5573d6000803e3d6000fd5b50565b60008082600281111561030d5761030d610749565b0361031e575064174876e800919050565b600182600281111561033257610332610749565b03610343575064174876e800919050565b600282600281111561035757610357610749565b03610368575064174876e800919050565b506000919050565b600281600281111561038457610384610749565b11156103c15760405162461bcd60e51b815260206004820152600c60248201526b496e76616c6964206d6f646560a01b60448201526064016102b2565b6000808260028111156103d6576103d6610749565b036103e7575064174876e80061042d565b60018260028111156103fb576103fb610749565b0361040c575064174876e80061042d565b600282600281111561042057610420610749565b0361042d575064174876e8005b803410156104705760405162461bcd60e51b815260206004820152601060248201526f496e73756666696369656e742066656560801b60448201526064016102b2565b33600090815260016020526040812080549161048b8361075f565b9190505550600260008360028111156104a6576104a6610749565b60028111156104b7576104b7610749565b815260200190815260200160002060008154809291906104d69061075f565b9091555050600380549060006104eb8361075f565b919050555081600281111561050257610502610749565b6040805142815234602082015233917f5aa65e0a1aad4bb70a2d7eae8b37448e338d5ccd9ae76a790e0bda14630fc1a4910160405180910390a35050565b6000806000806003546002600080600281111561055f5761055f610749565b600281111561057057610570610749565b815260200190815260200160002054600260006001600281111561059657610596610749565b60028111156105a7576105a7610749565b815260200190815260200160002054600260006002808111156105cc576105cc610749565b60028111156105dd576105dd610749565b815260200190815260200160002054935093509350935090919293565b600282600281111561060e5761060e610749565b111561064b5760405162461bcd60e51b815260206004820152600c60248201526b496e76616c6964206d6f646560a01b60448201526064016102b2565b81600281111561065d5761065d610749565b604080518381524260208201526001600160a01b038616917fa0d4582659e33ebf7e1e80b7fd9c16d821a7f74598c47a09f3b891b428e268cb910160405180910390a3505050565b80356001600160a01b03811681146106bc57600080fd5b919050565b6000602082840312156106d357600080fd5b6106dc826106a5565b9392505050565b8035600381106106bc57600080fd5b60006020828403121561070457600080fd5b6106dc826106e3565b60008060006060848603121561072257600080fd5b61072b846106a5565b9250610739602085016106e3565b9150604084013590509250925092565b634e487b7160e01b600052602160045260246000fd5b60006001820161077f57634e487b7160e01b600052601160045260246000fd5b506001019056fea2646970667358221220e6e007f3e207d51281a0de47c4d903dd837bc5dcbb27092fa908113e54c087b764736f6c63430008130033",
  "linkReferences": {},
  "deployedLinkReferences": {}
}