{
  "_format": "hh-sol-artifact-1",
  "contractName": "QuizTriviaSignature",
  "sourceName": "contracts/QuizTriviaEntry.sol",
  "abi": [
    {
      "inputs": [],
      "stateMutability": "nonpayable",
      "type": "constructor"
    },
    {
      "anonymous": false,
      "inputs": [
        {
          "indexed": true,
          "internalType": "address",
          "name": "user",
          "type": "address"
        },
        {
          "indexed": true,
          "internalType": "uint256",
          "name": "mode",
          "type": "uint256"
        },
        {
          "indexed": false,
          "internalType": "uint256",
          "name": "score",
          "type": "uint256"
        },
        {
          "indexed": false,
          "internalType": "uint256",
          "name": "timestamp",
          "type": "uint256"
        }
      ],
      "name": "QuizCompleted",
      "type": "event"
    },
    {
      "anonymous": false,
      "inputs": [
        {
          "indexed": true,
          "internalType": "address",
          "name": "user",
          "type": "address"
        },
        {
          "indexed": true,
          "internalType": "uint256",
          "name": "mode",
          "type": "uint256"
        },
        {
          "indexed": false,
          "internalType": "uint256",
          "name": "timestamp",
          "type": "uint256"
        },
        {
          "indexed": false,
          "internalType": "bytes32",
          "name": "signatureHash",
          "type": "bytes32"
        }
      ],
      "name": "QuizStarted",
      "type": "event"
    },
    {
      "inputs": [
        {
          "internalType": "address",
          "name": "user",
          "type": "address"
        },
        {
          "internalType": "enum QuizTriviaSignature.QuizMode",
          "name": "mode",
          "type": "uint8"
        },
        {
          "internalType": "uint256",
          "name": "timestamp",
          "type": "uint256"
        },
        {
          "internalType": "uint256",
          "name": "nonce",
          "type": "uint256"
        }
      ],
      "name": "getMessageHash",
      "outputs": [
        {
          "internalType": "bytes32",
          "name": "",
          "type": "bytes32"
        }
      ],
      "stateMutability": "pure",
      "type": "function"
    },
    {
      "inputs": [],
      "name": "getStats",
      "outputs": [
        {
          "internalType": "uint256",
          "name": "total",
          "type": "uint256"
        },
        {
          "internalType": "uint256",
          "name": "classic",
          "type": "uint256"
        },
        {
          "internalType": "uint256",
          "name": "time",
          "type": "uint256"
        },
        {
          "internalType": "uint256",
          "name": "challenge",
          "type": "uint256"
        }
      ],
      "stateMutability": "view",
      "type": "function"
    },
    {
      "inputs": [
        {
          "internalType": "address",
          "name": "user",
          "type": "address"
        }
      ],
      "name": "getUserNonce",
      "outputs": [
        {
          "internalType": "uint256",
          "name": "",
          "type": "uint256"
        }
      ],
      "stateMutability": "view",
      "type": "function"
    },
    {
      "inputs": [
        {
          "internalType": "address",
          "name": "user",
          "type": "address"
        }
      ],
      "name": "getUserQuizCount",
      "outputs": [
        {
          "internalType": "uint256",
          "name": "",
          "type": "uint256"
        }
      ],
      "stateMutability": "view",
      "type": "function"
    },
    {
      "inputs": [
        {
          "internalType": "enum QuizTriviaSignature.QuizMode",
          "name": "",
          "type": "uint8"
        }
      ],
      "name": "modeCount",
      "outputs": [
        {
          "internalType": "uint256",
          "name": "",
          "type": "uint256"
        }
      ],
      "stateMutability": "view",
      "type": "function"
    },
    {
      "inputs": [],
      "name": "owner",
      "outputs": [
        {
          "internalType": "address",
          "name": "",
          "type": "address"
        }
      ],
      "stateMutability": "view",
      "type": "function"
    },
    {
      "inputs": [
        {
          "internalType": "address",
          "name": "user",
          "type": "address"
        },
        {
          "internalType": "enum QuizTriviaSignature.QuizMode",
          "name": "mode",
          "type": "uint8"
        },
        {
          "internalType": "uint256",
          "name": "score",
          "type": "uint256"
        }
      ],
      "name": "recordQuizCompletion",
      "outputs": [],
      "stateMutability": "nonpayable",
      "type": "function"
    },
    {
      "inputs": [
        {
          "internalType": "enum QuizTriviaSignature.QuizMode",
          "name": "mode",
          "type": "uint8"
        },
        {
          "internalType": "uint256",
          "name": "timestamp",
          "type": "uint256"
        },
        {
          "internalType": "bytes",
          "name": "signature",
          "type": "bytes"
        }
      ],
      "name": "startQuizWithSignature",
      "outputs": [],
      "stateMutability": "nonpayable",
      "type": "function"
    },
    {
      "inputs": [],
      "name": "totalQuizzes",
      "outputs": [
        {
          "internalType": "uint256",
          "name": "",
          "type": "uint256"
        }
      ],
      "stateMutability": "view",
      "type": "function"
    },
    {
      "inputs": [
        {
          "internalType": "bytes32",
          "name": "",
          "type": "bytes32"
        }
      ],
      "name": "usedSignatures",
      "outputs": [
        {
          "internalType": "bool",
          "name": "",
          "type": "bool"
        }
      ],
      "stateMutability": "view",
      "type": "function"
    },
    {
      "inputs": [
        {
          "internalType": "address",
          "name": "",
          "type": "address"
        }
      ],
      "name": "userNonce",
      "outputs": [
        {
          "internalType": "uint256",
          "name": "",
          "type": "uint256"
        }
      ],
      "stateMutability": "view",
      "type": "function"
    },
    {
      "inputs": [
        {
          "internalType": "address",
          "name": "",
          "type": "address"
        }
      ],
      "name": "userQuizCount",
      "outputs": [
        {
          "internalType": "uint256",
          "name": "",
          "type": "uint256"
        }
      ],
      "stateMutability": "view",
      "type": "function"
    },
    {
      "inputs": [],
      "name": "withdraw",
      "outputs": [],
      "stateMutability": "nonpayable",
      "type": "function"
    }
  ],
  "bytecode": "0x608060405234801561001057600080fd5b50600080546001600160a01b03191633179055610b13806100326000396000f3fe608060405234801561001057600080fd5b50600436106100cf5760003560e01c80636834e3a81161008c578063ce832a7b11610066578063ce832a7b146101f2578063db9eb61114610205578063e313c00f14610225578063f978fd611461023857600080fd5b80636834e3a8146101765780638da5cb5b1461019f578063c59d4847146101ca57600080fd5b80630db2e7d0146100d45780632cc71fc1146101075780632e04b8e714610130578063316701c21461015057806339671eb6146101595780633ccfd60b1461016c575b600080fd5b6100f46100e2366004610853565b60016020526000908152604090205481565b6040519081526020015b60405180910390f35b6100f4610115366004610853565b6001600160a01b031660009081526001602052604090205490565b6100f461013e366004610853565b60056020526000908152604090205481565b6100f460045481565b6100f461016736600461087d565b61026b565b6101746102ed565b005b6100f4610184366004610853565b6001600160a01b031660009081526005602052604090205490565b6000546101b2906001600160a01b031681565b6040516001600160a01b0390911681526020016100fe565b6101d2610375565b6040805194855260208501939093529183015260608201526080016100fe565b6101746102003660046108bf565b61042f565b6100f46102133660046108fb565b60026020526000908152604090205481565b61017461023336600461092c565b6104da565b61025b6102463660046109f7565b60036020526000908152604090205460ff1681565b60405190151581526020016100fe565b6000848484846040516020016102849493929190610a26565b60408051601f198184030181529082905280516020918201207f19457468657265756d205369676e6564204d6573736167653a0a33320000000091830191909152603c820152605c01604051602081830303815290604052805190602001209050949350505050565b6000546001600160a01b031633146103385760405162461bcd60e51b81526020600482015260096024820152682737ba1037bbb732b960b91b60448201526064015b60405180910390fd5b600080546040516001600160a01b03909116914780156108fc02929091818181858888f19350505050158015610372573d6000803e3d6000fd5b50565b6000806000806004546002600080600281111561039457610394610a10565b60028111156103a5576103a5610a10565b81526020019081526020016000205460026000600160028111156103cb576103cb610a10565b60028111156103dc576103dc610a10565b8152602001908152602001600020546002600060028081111561040157610401610a10565b600281111561041257610412610a10565b815260200190815260200160002054935093509350935090919293565b600282600281111561044357610443610a10565b11156104805760405162461bcd60e51b815260206004820152600c60248201526b496e76616c6964206d6f646560a01b604482015260640161032f565b81600281111561049257610492610a10565b604080518381524260208201526001600160a01b038616917fa0d4582659e33ebf7e1e80b7fd9c16d821a7f74598c47a09f3b891b428e268cb910160405180910390a3505050565b60028360028111156104ee576104ee610a10565b111561052b5760405162461bcd60e51b815260206004820152600c60248201526b496e76616c6964206d6f646560a01b604482015260640161032f565b61012c6105388342610a92565b106105795760405162461bcd60e51b815260206004820152601160248201527014da59db985d1d5c9948195e1c1a5c9959607a1b604482015260640161032f565b336000818152600560205260408120549091610598918690869061026b565b60008181526003602052604090205490915060ff16156105f35760405162461bcd60e51b815260206004820152601660248201527514da59db985d1d5c9948185b1c9958591e481d5cd95960521b604482015260640161032f565b6105fe818333610748565b61063e5760405162461bcd60e51b8152602060048201526011602482015270496e76616c6964207369676e617475726560781b604482015260640161032f565b6000818152600360209081526040808320805460ff191660011790553383526005909152812080549161067083610aab565b909155505033600090815260016020526040812080549161069083610aab565b9190505550600260008560028111156106ab576106ab610a10565b60028111156106bc576106bc610a10565b815260200190815260200160002060008154809291906106db90610aab565b9091555050600480549060006106f083610aab565b919050555083600281111561070757610707610a10565b604080514281526020810184905233917fcf9677b104befbd3542fa394ca03a2bb35d886ae1f10940fa87ed921bac89861910160405180910390a350505050565b60008060008085516041146107635760009350505050610830565b50505060208301516040840151606085015160001a601b81101561078f5761078c601b82610ac4565b90505b8060ff16601b141580156107a757508060ff16601c14155b156107b85760009350505050610830565b60408051600081526020810180835289905260ff83169181019190915260608101849052608081018390526001600160a01b0386169060019060a0016020604051602081039080840390855afa158015610816573d6000803e3d6000fd5b505050602060405103516001600160a01b03161493505050505b9392505050565b80356001600160a01b038116811461084e57600080fd5b919050565b60006020828403121561086557600080fd5b61083082610837565b80356003811061084e57600080fd5b6000806000806080858703121561089357600080fd5b61089c85610837565b93506108aa6020860161086e565b93969395505050506040820135916060013590565b6000806000606084860312156108d457600080fd5b6108dd84610837565b92506108eb6020850161086e565b9150604084013590509250925092565b60006020828403121561090d57600080fd5b6108308261086e565b634e487b7160e01b600052604160045260246000fd5b60008060006060848603121561094157600080fd5b61094a8461086e565b925060208401359150604084013567ffffffffffffffff8082111561096e57600080fd5b818601915086601f83011261098257600080fd5b81358181111561099457610994610916565b604051601f8201601f19908116603f011681019083821181831017156109bc576109bc610916565b816040528281528960208487010111156109d557600080fd5b8260208601602083013760006020848301015280955050505050509250925092565b600060208284031215610a0957600080fd5b5035919050565b634e487b7160e01b600052602160045260246000fd5b6bffffffffffffffffffffffff198560601b168152600060038510610a5b57634e487b7160e01b600052602160045260246000fd5b5060f89390931b601484015260158301919091526035820152605501919050565b634e487b7160e01b600052601160045260246000fd5b81810381811115610aa557610aa5610a7c565b92915050565b600060018201610abd57610abd610a7c565b5060010190565b60ff8181168382160190811115610aa557610aa5610a7c56fea2646970667358221220914b0eed9de776745594319c0593cc3d33b36b78642b2ceec74fa353eb624f1564736f6c63430008130033",
  "linkReferences": {},
  "deployedLinkReferences": {}
}