{
  "_format": "hh-sol-artifact-1",
  "contractName": "QuizTriviaEntry",
  "sourceName": "contracts/QuizTriviaEntry.sol",
  "abi": [
    {
      "inputs": [],
      "stateMutability": "nonpayable",
      "type": "constructor"
    },
    {
      "anonymous": false,
      "inputs": [
        {
          "indexed": true,
          "internalType": "address",
          "name": "user",
          "type": "address"
        },
        {
          "indexed": true,
          "internalType": "uint256",
          "name": "mode",
          "type": "uint256"
        },
        {
          "indexed": false,
          "internalType": "uint256",
          "name": "score",
          "type": "uint256"
        },
        {
          "indexed": false,
          "internalType": "uint256",
          "name": "timestamp",
          "type": "uint256"
        }
      ],
      "name": "QuizCompleted",
      "type": "event"
    },
    {
      "anonymous": false,
      "inputs": [
        {
          "indexed": true,
          "internalType": "address",
          "name": "user",
          "type": "address"
        },
        {
          "indexed": true,
          "internalType": "uint256",
          "name": "mode",
          "type": "uint256"
        },
        {
          "indexed": false,
          "internalType": "uint256",
          "name": "timestamp",
          "type": "uint256"
        },
        {
          "indexed": false,
          "internalType": "uint256",
          "name": "feePaid",
          "type": "uint256"
        }
      ],
      "name": "QuizStarted",
      "type": "event"
    },
    {
      "inputs": [],
      "name": "CHALLENGE_FEE",
      "outputs": [
        {
          "internalType": "uint256",
          "name": "",
          "type": "uint256"
        }
      ],
      "stateMutability": "view",
      "type": "function"
    },
    {
      "inputs": [],
      "name": "CLASSIC_FEE",
      "outputs": [
        {
          "internalType": "uint256",
          "name": "",
          "type": "uint256"
        }
      ],
      "stateMutability": "view",
      "type": "function"
    },
    {
      "inputs": [],
      "name": "TIME_MODE_FEE",
      "outputs": [
        {
          "internalType": "uint256",
          "name": "",
          "type": "uint256"
        }
      ],
      "stateMutability": "view",
      "type": "function"
    },
    {
      "inputs": [],
      "name": "getBalance",
      "outputs": [
        {
          "internalType": "uint256",
          "name": "",
          "type": "uint256"
        }
      ],
      "stateMutability": "view",
      "type": "function"
    },
    {
      "inputs": [
        {
          "internalType": "enum QuizTriviaEntry.QuizMode",
          "name": "mode",
          "type": "uint8"
        }
      ],
      "name": "getRequiredFee",
      "outputs": [
        {
          "internalType": "uint256",
          "name": "",
          "type": "uint256"
        }
      ],
      "stateMutability": "pure",
      "type": "function"
    },
    {
      "inputs": [],
      "name": "getStats",
      "outputs": [
        {
          "internalType": "uint256",
          "name": "total",
          "type": "uint256"
        },
        {
          "internalType": "uint256",
          "name": "classic",
          "type": "uint256"
        },
        {
          "internalType": "uint256",
          "name": "time",
          "type": "uint256"
        },
        {
          "internalType": "uint256",
          "name": "challenge",
          "type": "uint256"
        },
        {
          "internalType": "uint256",
          "name": "fees",
          "type": "uint256"
        }
      ],
      "stateMutability": "view",
      "type": "function"
    },
    {
      "inputs": [
        {
          "internalType": "address",
          "name": "user",
          "type": "address"
        }
      ],
      "name": "getUserQuizCount",
      "outputs": [
        {
          "internalType": "uint256",
          "name": "",
          "type": "uint256"
        }
      ],
      "stateMutability": "view",
      "type": "function"
    },
    {
      "inputs": [
        {
          "internalType": "enum QuizTriviaEntry.QuizMode",
          "name": "",
          "type": "uint8"
        }
      ],
      "name": "modeCount",
      "outputs": [
        {
          "internalType": "uint256",
          "name": "",
          "type": "uint256"
        }
      ],
      "stateMutability": "view",
      "type": "function"
    },
    {
      "inputs": [],
      "name": "owner",
      "outputs": [
        {
          "internalType": "address",
          "name": "",
          "type": "address"
        }
      ],
      "stateMutability": "view",
      "type": "function"
    },
    {
      "inputs": [
        {
          "internalType": "address",
          "name": "user",
          "type": "address"
        },
        {
          "internalType": "enum QuizTriviaEntry.QuizMode",
          "name": "mode",
          "type": "uint8"
        },
        {
          "internalType": "uint256",
          "name": "score",
          "type": "uint256"
        }
      ],
      "name": "recordQuizCompletion",
      "outputs": [],
      "stateMutability": "nonpayable",
      "type": "function"
    },
    {
      "inputs": [
        {
          "internalType": "enum QuizTriviaEntry.QuizMode",
          "name": "mode",
          "type": "uint8"
        }
      ],
      "name": "startQuiz",
      "outputs": [],
      "stateMutability": "payable",
      "type": "function"
    },
    {
      "inputs": [],
      "name": "totalFeesCollected",
      "outputs": [
        {
          "internalType": "uint256",
          "name": "",
          "type": "uint256"
        }
      ],
      "stateMutability": "view",
      "type": "function"
    },
    {
      "inputs": [],
      "name": "totalQuizzes",
      "outputs": [
        {
          "internalType": "uint256",
          "name": "",
          "type": "uint256"
        }
      ],
      "stateMutability": "view",
      "type": "function"
    },
    {
      "inputs": [
        {
          "internalType": "address",
          "name": "",
          "type": "address"
        }
      ],
      "name": "userQuizCount",
      "outputs": [
        {
          "internalType": "uint256",
          "name": "",
          "type": "uint256"
        }
      ],
      "stateMutability": "view",
      "type": "function"
    },
    {
      "inputs": [],
      "name": "withdraw",
      "outputs": [],
      "stateMutability": "nonpayable",
      "type": "function"
    }
  ],
  "bytecode": "0x608060405234801561001057600080fd5b50600080546001600160a01b03191633179055610939806100326000396000f3fe6080604052600436106100e85760003560e01c80638da5cb5b1161008a578063bff53bd811610059578063bff53bd814610224578063c59d484714610239578063ce832a7b14610276578063db9eb6111461029657600080fd5b80638da5cb5b146101d957806391ad66cc14610211578063b4476a2d14610224578063be85b7731461022457600080fd5b8063316701c2116100c6578063316701c2146101765780633ccfd60b1461018c57806360c6d8ae146101a35780636bc39c94146101b957600080fd5b80630db2e7d0146100ed57806312065fe01461012d5780632cc71fc114610140575b600080fd5b3480156100f957600080fd5b5061011a6101083660046107e4565b60016020526000908152604090205481565b6040519081526020015b60405180910390f35b34801561013957600080fd5b504761011a565b34801561014c57600080fd5b5061011a61015b3660046107e4565b6001600160a01b031660009081526001602052604090205490565b34801561018257600080fd5b5061011a60035481565b34801561019857600080fd5b506101a16102c3565b005b3480156101af57600080fd5b5061011a60045481565b3480156101c557600080fd5b5061011a6101d4366004610815565b6103ee565b3480156101e557600080fd5b506000546101f9906001600160a01b031681565b6040516001600160a01b039091168152602001610124565b6101a161021f366004610815565b61046a565b34801561023057600080fd5b5061011a600081565b34801561024557600080fd5b5061024e61067a565b604080519586526020860194909452928401919091526060830152608082015260a001610124565b34801561028257600080fd5b506101a1610291366004610830565b61073c565b3480156102a257600080fd5b5061011a6102b1366004610815565b60026020526000908152604090205481565b6000546001600160a01b0316331461030e5760405162461bcd60e51b81526020600482015260096024820152682737ba1037bbb732b960b91b60448201526064015b60405180910390fd5b47806103535760405162461bcd60e51b81526020600482015260146024820152734e6f2066756e647320746f20776974686472617760601b6044820152606401610305565b600080546040516001600160a01b039091169083908381818185875af1925050503d80600081146103a0576040519150601f19603f3d011682016040523d82523d6000602084013e6103a5565b606091505b50509050806103ea5760405162461bcd60e51b815260206004820152601160248201527015da5d1a191c985dd85b0819985a5b1959607a1b6044820152606401610305565b5050565b6000808260028111156104035761040361086c565b0361041057506000919050565b60018260028111156104245761042461086c565b0361043157506000919050565b60028260028111156104455761044561086c565b0361045257506000919050565b60405162461bcd60e51b815260040161030590610882565b600281600281111561047e5761047e61086c565b111561049c5760405162461bcd60e51b815260040161030590610882565b60006104a7826103ee565b9050803410156104f05760405162461bcd60e51b8152602060048201526014602482015273125b9cdd59999a58da595b9d081c185e5b595b9d60621b6044820152606401610305565b33600090815260016020526040812080549161050b836108be565b9190505550600260008360028111156105265761052661086c565b60028111156105375761053761086c565b81526020019081526020016000206000815480929190610556906108be565b90915550506003805490600061056b836108be565b9190505550806004600082825461058291906108d7565b90915550829050600281111561059a5761059a61086c565b604080514281526020810184905233917f5aa65e0a1aad4bb70a2d7eae8b37448e338d5ccd9ae76a790e0bda14630fc1a4910160405180910390a3803411156103ea5760006105e982346108f0565b604051909150600090339083908381818185875af1925050503d806000811461062e576040519150601f19603f3d011682016040523d82523d6000602084013e610633565b606091505b50509050806106745760405162461bcd60e51b815260206004820152600d60248201526c1499599d5b990819985a5b1959609a1b6044820152606401610305565b50505050565b60008060008060006003546002600080600281111561069b5761069b61086c565b60028111156106ac576106ac61086c565b81526020019081526020016000205460026000600160028111156106d2576106d261086c565b60028111156106e3576106e361086c565b815260200190815260200160002054600260006002808111156107085761070861086c565b60028111156107195761071961086c565b815260200190815260200160002054600454945094509450945094509091929394565b60028260028111156107505761075061086c565b111561076e5760405162461bcd60e51b815260040161030590610882565b8160028111156107805761078061086c565b604080518381524260208201526001600160a01b038616917fa0d4582659e33ebf7e1e80b7fd9c16d821a7f74598c47a09f3b891b428e268cb910160405180910390a3505050565b80356001600160a01b03811681146107df57600080fd5b919050565b6000602082840312156107f657600080fd5b6107ff826107c8565b9392505050565b8035600381106107df57600080fd5b60006020828403121561082757600080fd5b6107ff82610806565b60008060006060848603121561084557600080fd5b61084e846107c8565b925061085c60208501610806565b9150604084013590509250925092565b634e487b7160e01b600052602160045260246000fd5b6020808252600c908201526b496e76616c6964206d6f646560a01b604082015260600190565b634e487b7160e01b600052601160045260246000fd5b6000600182016108d0576108d06108a8565b5060010190565b808201808211156108ea576108ea6108a8565b92915050565b818103818111156108ea576108ea6108a856fea264697066735822122087865728dd2e3a547c7783aa678f2c038c81f8ceb472c96bc5e7034a9f66525164736f6c63430008140033",
  "linkReferences": {},
  "deployedLinkReferences": {}
}