{
  "_format": "hh-sol-artifact-1",
  "contractName": "QuizTriviaSignature",
  "sourceName": "contracts/QuizTriviaEntry.sol",
  "abi": [
    {
      "inputs": [],
      "stateMutability": "nonpayable",
      "type": "constructor"
    },
    {
      "anonymous": false,
      "inputs": [
        {
          "indexed": true,
          "internalType": "address",
          "name": "user",
          "type": "address"
        },
        {
          "indexed": true,
          "internalType": "uint256",
          "name": "mode",
          "type": "uint256"
        },
        {
          "indexed": false,
          "internalType": "uint256",
          "name": "score",
          "type": "uint256"
        },
        {
          "indexed": false,
          "internalType": "uint256",
          "name": "timestamp",
          "type": "uint256"
        }
      ],
      "name": "QuizCompleted",
      "type": "event"
    },
    {
      "anonymous": false,
      "inputs": [
        {
          "indexed": true,
          "internalType": "address",
          "name": "user",
          "type": "address"
        },
        {
          "indexed": true,
          "internalType": "uint256",
          "name": "mode",
          "type": "uint256"
        },
        {
          "indexed": false,
          "internalType": "uint256",
          "name": "timestamp",
          "type": "uint256"
        },
        {
          "indexed": false,
          "internalType": "bytes32",
          "name": "signatureHash",
          "type": "bytes32"
        }
      ],
      "name": "QuizStarted",
      "type": "event"
    },
    {
      "inputs": [
        {
          "internalType": "bytes32",
          "name": "messageHash",
          "type": "bytes32"
        }
      ],
      "name": "getEthSignedMessageHash",
      "outputs": [
        {
          "internalType": "bytes32",
          "name": "",
          "type": "bytes32"
        }
      ],
      "stateMutability": "pure",
      "type": "function"
    },
    {
      "inputs": [
        {
          "internalType": "address",
          "name": "user",
          "type": "address"
        },
        {
          "internalType": "enum QuizTriviaSignature.QuizMode",
          "name": "mode",
          "type": "uint8"
        },
        {
          "internalType": "uint256",
          "name": "timestamp",
          "type": "uint256"
        },
        {
          "internalType": "uint256",
          "name": "nonce",
          "type": "uint256"
        }
      ],
      "name": "getMessageHash",
      "outputs": [
        {
          "internalType": "bytes32",
          "name": "",
          "type": "bytes32"
        }
      ],
      "stateMutability": "pure",
      "type": "function"
    },
    {
      "inputs": [],
      "name": "getStats",
      "outputs": [
        {
          "internalType": "uint256",
          "name": "total",
          "type": "uint256"
        },
        {
          "internalType": "uint256",
          "name": "classic",
          "type": "uint256"
        },
        {
          "internalType": "uint256",
          "name": "time",
          "type": "uint256"
        },
        {
          "internalType": "uint256",
          "name": "challenge",
          "type": "uint256"
        }
      ],
      "stateMutability": "view",
      "type": "function"
    },
    {
      "inputs": [
        {
          "internalType": "address",
          "name": "user",
          "type": "address"
        }
      ],
      "name": "getUserNonce",
      "outputs": [
        {
          "internalType": "uint256",
          "name": "",
          "type": "uint256"
        }
      ],
      "stateMutability": "view",
      "type": "function"
    },
    {
      "inputs": [
        {
          "internalType": "address",
          "name": "user",
          "type": "address"
        }
      ],
      "name": "getUserQuizCount",
      "outputs": [
        {
          "internalType": "uint256",
          "name": "",
          "type": "uint256"
        }
      ],
      "stateMutability": "view",
      "type": "function"
    },
    {
      "inputs": [
        {
          "internalType": "enum QuizTriviaSignature.QuizMode",
          "name": "",
          "type": "uint8"
        }
      ],
      "name": "modeCount",
      "outputs": [
        {
          "internalType": "uint256",
          "name": "",
          "type": "uint256"
        }
      ],
      "stateMutability": "view",
      "type": "function"
    },
    {
      "inputs": [],
      "name": "owner",
      "outputs": [
        {
          "internalType": "address",
          "name": "",
          "type": "address"
        }
      ],
      "stateMutability": "view",
      "type": "function"
    },
    {
      "inputs": [
        {
          "internalType": "address",
          "name": "user",
          "type": "address"
        },
        {
          "internalType": "enum QuizTriviaSignature.QuizMode",
          "name": "mode",
          "type": "uint8"
        },
        {
          "internalType": "uint256",
          "name": "score",
          "type": "uint256"
        }
      ],
      "name": "recordQuizCompletion",
      "outputs": [],
      "stateMutability": "nonpayable",
      "type": "function"
    },
    {
      "inputs": [
        {
          "internalType": "bytes32",
          "name": "messageHash",
          "type": "bytes32"
        },
        {
          "internalType": "bytes",
          "name": "signature",
          "type": "bytes"
        }
      ],
      "name": "recoverSigner",
      "outputs": [
        {
          "internalType": "address",
          "name": "",
          "type": "address"
        }
      ],
      "stateMutability": "pure",
      "type": "function"
    },
    {
      "inputs": [
        {
          "internalType": "enum QuizTriviaSignature.QuizMode",
          "name": "mode",
          "type": "uint8"
        },
        {
          "internalType": "uint256",
          "name": "timestamp",
          "type": "uint256"
        },
        {
          "internalType": "bytes",
          "name": "signature",
          "type": "bytes"
        }
      ],
      "name": "startQuizWithSignature",
      "outputs": [],
      "stateMutability": "nonpayable",
      "type": "function"
    },
    {
      "inputs": [],
      "name": "totalQuizzes",
      "outputs": [
        {
          "internalType": "uint256",
          "name": "",
          "type": "uint256"
        }
      ],
      "stateMutability": "view",
      "type": "function"
    },
    {
      "inputs": [
        {
          "internalType": "bytes32",
          "name": "",
          "type": "bytes32"
        }
      ],
      "name": "usedSignatures",
      "outputs": [
        {
          "internalType": "bool",
          "name": "",
          "type": "bool"
        }
      ],
      "stateMutability": "view",
      "type": "function"
    },
    {
      "inputs": [
        {
          "internalType": "address",
          "name": "",
          "type": "address"
        }
      ],
      "name": "userNonce",
      "outputs": [
        {
          "internalType": "uint256",
          "name": "",
          "type": "uint256"
        }
      ],
      "stateMutability": "view",
      "type": "function"
    },
    {
      "inputs": [
        {
          "internalType": "address",
          "name": "",
          "type": "address"
        }
      ],
      "name": "userQuizCount",
      "outputs": [
        {
          "internalType": "uint256",
          "name": "",
          "type": "uint256"
        }
      ],
      "stateMutability": "view",
      "type": "function"
    },
    {
      "inputs": [
        {
          "internalType": "address",
          "name": "user",
          "type": "address"
        },
        {
          "internalType": "enum QuizTriviaSignature.QuizMode",
          "name": "mode",
          "type": "uint8"
        },
        {
          "internalType": "uint256",
          "name": "timestamp",
          "type": "uint256"
        },
        {
          "internalType": "uint256",
          "name": "nonce",
          "type": "uint256"
        },
        {
          "internalType": "bytes",
          "name": "signature",
          "type": "bytes"
        }
      ],
      "name": "verifySignature",
      "outputs": [
        {
          "internalType": "bool",
          "name": "",
          "type": "bool"
        }
      ],
      "stateMutability": "pure",
      "type": "function"
    },
    {
      "inputs": [],
      "name": "withdraw",
      "outputs": [],
      "stateMutability": "nonpayable",
      "type": "function"
    }
  ],
  "bytecode": "0x608060405234801561001057600080fd5b50600080546001600160a01b03191633179055610d09806100326000396000f3fe608060405234801561001057600080fd5b50600436106101005760003560e01c806397aba7f911610097578063db9eb61111610066578063db9eb6111461026c578063e313c00f1461028c578063f978fd611461029f578063fa540801146102c257600080fd5b806397aba7f9146101fb578063bc5021791461020e578063c59d484714610231578063ce832a7b1461025957600080fd5b806339671eb6116100d357806339671eb61461018a5780633ccfd60b1461019d5780636834e3a8146101a75780638da5cb5b146101d057600080fd5b80630db2e7d0146101055780632cc71fc1146101385780632e04b8e714610161578063316701c214610181575b600080fd5b610125610113366004610976565b60016020526000908152604090205481565b6040519081526020015b60405180910390f35b610125610146366004610976565b6001600160a01b031660009081526001602052604090205490565b61012561016f366004610976565b60056020526000908152604090205481565b61012560045481565b6101256101983660046109a7565b6102d5565b6101a561030e565b005b6101256101b5366004610976565b6001600160a01b031660009081526005602052604090205490565b6000546101e3906001600160a01b031681565b6040516001600160a01b03909116815260200161012f565b6101e3610209366004610a8c565b610396565b61022161021c366004610ad3565b6104eb565b604051901515815260200161012f565b610239610524565b60408051948552602085019390935291830152606082015260800161012f565b6101a5610267366004610b45565b6105de565b61012561027a366004610b81565b60026020526000908152604090205481565b6101a561029a366004610b9c565b610689565b6102216102ad366004610bf3565b60036020526000908152604090205460ff1681565b6101256102d0366004610bf3565b610907565b6000848484846040516020016102ee9493929190610c22565b604051602081830303815290604052805190602001209050949350505050565b6000546001600160a01b031633146103595760405162461bcd60e51b81526020600482015260096024820152682737ba1037bbb732b960b91b60448201526064015b60405180910390fd5b600080546040516001600160a01b03909116914780156108fc02929091818181858888f19350505050158015610393573d6000803e3d6000fd5b50565b600081516041146103e95760405162461bcd60e51b815260206004820152601860248201527f496e76616c6964207369676e6174757265206c656e67746800000000000000006044820152606401610350565b60208201516040830151606084015160001a601b8110156104125761040f601b82610c8e565b90505b8060ff16601b148061042757508060ff16601c145b6104735760405162461bcd60e51b815260206004820152601960248201527f496e76616c6964207369676e617475726520762076616c7565000000000000006044820152606401610350565b600061047e87610907565b60408051600081526020810180835283905260ff851691810191909152606081018690526080810185905290915060019060a0016020604051602081039080840390855afa1580156104d4573d6000803e3d6000fd5b505050602060405103519450505050505b92915050565b6000806104fa878787876102d5565b905060006105088285610396565b6001600160a01b03908116908916149250505095945050505050565b6000806000806004546002600080600281111561054357610543610c0c565b600281111561055457610554610c0c565b815260200190815260200160002054600260006001600281111561057a5761057a610c0c565b600281111561058b5761058b610c0c565b815260200190815260200160002054600260006002808111156105b0576105b0610c0c565b60028111156105c1576105c1610c0c565b815260200190815260200160002054935093509350935090919293565b60028260028111156105f2576105f2610c0c565b111561062f5760405162461bcd60e51b815260206004820152600c60248201526b496e76616c6964206d6f646560a01b6044820152606401610350565b81600281111561064157610641610c0c565b604080518381524260208201526001600160a01b038616917fa0d4582659e33ebf7e1e80b7fd9c16d821a7f74598c47a09f3b891b428e268cb910160405180910390a3505050565b600283600281111561069d5761069d610c0c565b11156106da5760405162461bcd60e51b815260206004820152600c60248201526b496e76616c6964206d6f646560a01b6044820152606401610350565b61012c6106e78342610ca7565b106107285760405162461bcd60e51b815260206004820152601160248201527014da59db985d1d5c9948195e1c1a5c9959607a1b6044820152606401610350565b33600081815260056020526040812054909161074791869086906102d5565b60008181526003602052604090205490915060ff16156107a25760405162461bcd60e51b815260206004820152601660248201527514da59db985d1d5c9948185b1c9958591e481d5cd95960521b6044820152606401610350565b60006107ae8284610396565b90506001600160a01b03811633146107fc5760405162461bcd60e51b8152602060048201526011602482015270496e76616c6964207369676e617475726560781b6044820152606401610350565b6000828152600360209081526040808320805460ff191660011790553383526005909152812080549161082e83610cba565b909155505033600090815260016020526040812080549161084e83610cba565b91905055506002600086600281111561086957610869610c0c565b600281111561087a5761087a610c0c565b8152602001908152602001600020600081548092919061089990610cba565b9091555050600480549060006108ae83610cba565b91905055508460028111156108c5576108c5610c0c565b604080514281526020810185905233917fcf9677b104befbd3542fa394ca03a2bb35d886ae1f10940fa87ed921bac89861910160405180910390a35050505050565b6040517f19457468657265756d205369676e6564204d6573736167653a0a3332000000006020820152603c8101829052600090605c01604051602081830303815290604052805190602001209050919050565b80356001600160a01b038116811461097157600080fd5b919050565b60006020828403121561098857600080fd5b6109918261095a565b9392505050565b80356003811061097157600080fd5b600080600080608085870312156109bd57600080fd5b6109c68561095a565b93506109d460208601610998565b93969395505050506040820135916060013590565b634e487b7160e01b600052604160045260246000fd5b600082601f830112610a1057600080fd5b813567ffffffffffffffff80821115610a2b57610a2b6109e9565b604051601f8301601f19908116603f01168101908282118183101715610a5357610a536109e9565b81604052838152866020858801011115610a6c57600080fd5b836020870160208301376000602085830101528094505050505092915050565b60008060408385031215610a9f57600080fd5b82359150602083013567ffffffffffffffff811115610abd57600080fd5b610ac9858286016109ff565b9150509250929050565b600080600080600060a08688031215610aeb57600080fd5b610af48661095a565b9450610b0260208701610998565b93506040860135925060608601359150608086013567ffffffffffffffff811115610b2c57600080fd5b610b38888289016109ff565b9150509295509295909350565b600080600060608486031215610b5a57600080fd5b610b638461095a565b9250610b7160208501610998565b9150604084013590509250925092565b600060208284031215610b9357600080fd5b61099182610998565b600080600060608486031215610bb157600080fd5b610bba84610998565b925060208401359150604084013567ffffffffffffffff811115610bdd57600080fd5b610be9868287016109ff565b9150509250925092565b600060208284031215610c0557600080fd5b5035919050565b634e487b7160e01b600052602160045260246000fd5b6bffffffffffffffffffffffff198560601b168152600060038510610c5757634e487b7160e01b600052602160045260246000fd5b5060f89390931b601484015260158301919091526035820152605501919050565b634e487b7160e01b600052601160045260246000fd5b60ff81811683821601908111156104e5576104e5610c78565b818103818111156104e5576104e5610c78565b600060018201610ccc57610ccc610c78565b506001019056fea2646970667358221220849d1563abe749ebc9b22c8bcad924b4d13313e3aa23dea2934c726e23e37e3164736f6c63430008130033",
  "linkReferences": {},
  "deployedLinkReferences": {}
}