{"contracts/QuizTriviaEntry.sol":{"QuizTriviaEntry":{"abi":[{"inputs":[],"stateMutability":"nonpayable","type":"constructor"},{"anonymous":false,"inputs":[{"indexed":true,"internalType":"address","name":"user","type":"address"},{"indexed":true,"internalType":"uint256","name":"mode","type":"uint256"},{"indexed":false,"internalType":"uint256","name":"score","type":"uint256"},{"indexed":false,"internalType":"uint256","name":"timestamp","type":"uint256"}],"name":"QuizCompleted","type":"event"},{"anonymous":false,"inputs":[{"indexed":true,"internalType":"address","name":"user","type":"address"},{"indexed":true,"internalType":"uint256","name":"mode","type":"uint256"},{"indexed":false,"internalType":"uint256","name":"timestamp","type":"uint256"},{"indexed":false,"internalType":"uint256","name":"entryFee","type":"uint256"}],"name":"QuizStarted","type":"event"},{"inputs":[],"name":"CHALLENGE_FEE","outputs":[{"internalType":"uint256","name":"","type":"uint256"}],"stateMutability":"view","type":"function"},{"inputs":[],"name":"CLASSIC_FEE","outputs":[{"internalType":"uint256","name":"","type":"uint256"}],"stateMutability":"view","type":"function"},{"inputs":[],"name":"TIME_MODE_FEE","outputs":[{"internalType":"uint256","name":"","type":"uint256"}],"stateMutability":"view","type":"function"},{"inputs":[{"internalType":"enum QuizTriviaEntry.QuizMode","name":"mode","type":"uint8"}],"name":"getRequiredFee","outputs":[{"internalType":"uint256","name":"","type":"uint256"}],"stateMutability":"pure","type":"function"},{"inputs":[],"name":"getStats","outputs":[{"internalType":"uint256","name":"total","type":"uint256"},{"internalType":"uint256","name":"classic","type":"uint256"},{"internalType":"uint256","name":"time","type":"uint256"},{"internalType":"uint256","name":"challenge","type":"uint256"}],"stateMutability":"view","type":"function"},{"inputs":[{"internalType":"address","name":"user","type":"address"}],"name":"getUserQuizCount","outputs":[{"internalType":"uint256","name":"","type":"uint256"}],"stateMutability":"view","type":"function"},{"inputs":[{"internalType":"enum QuizTriviaEntry.QuizMode","name":"","type":"uint8"}],"name":"modeCount","outputs":[{"internalType":"uint256","name":"","type":"uint256"}],"stateMutability":"view","type":"function"},{"inputs":[],"name":"owner","outputs":[{"internalType":"address","name":"","type":"address"}],"stateMutability":"view","type":"function"},{"inputs":[{"internalType":"address","name":"user","type":"address"},{"internalType":"enum QuizTriviaEntry.QuizMode","name":"mode","type":"uint8"},{"internalType":"uint256","name":"score","type":"uint256"}],"name":"recordQuizCompletion","outputs":[],"stateMutability":"nonpayable","type":"function"},{"inputs":[{"internalType":"enum QuizTriviaEntry.QuizMode","name":"mode","type":"uint8"}],"name":"startQuiz","outputs":[],"stateMutability":"payable","type":"function"},{"inputs":[],"name":"totalQuizzes","outputs":[{"internalType":"uint256","name":"","type":"uint256"}],"stateMutability":"view","type":"function"},{"inputs":[{"internalType":"address","name":"","type":"address"}],"name":"userQuizCount","outputs":[{"internalType":"uint256","name":"","type":"uint256"}],"stateMutability":"view","type":"function"},{"inputs":[],"name":"withdraw","outputs":[],"stateMutability":"nonpayable","type":"function"}],"evm":{"bytecode":{"linkReferences":{},"object":"608060405234801561001057600080fd5b50600080546001600160a01b031916331790556107ca806100326000396000f3fe6080604052600436106100c25760003560e01c806391ad66cc1161007f578063bff53bd811610059578063bff53bd8146101d5578063c59d4847146101f0578063ce832a7b14610225578063db9eb6111461024557600080fd5b806391ad66cc146101c2578063b4476a2d146101d5578063be85b773146101d557600080fd5b80630db2e7d0146100c75780632cc71fc114610107578063316701c21461013d5780633ccfd60b146101535780636bc39c941461016a5780638da5cb5b1461018a575b600080fd5b3480156100d357600080fd5b506100f46100e23660046106cf565b60016020526000908152604090205481565b6040519081526020015b60405180910390f35b34801561011357600080fd5b506100f46101223660046106cf565b6001600160a01b031660009081526001602052604090205490565b34801561014957600080fd5b506100f460035481565b34801561015f57600080fd5b50610168610272565b005b34801561017657600080fd5b506100f4610185366004610700565b6102fa565b34801561019657600080fd5b506000546101aa906001600160a01b031681565b6040516001600160a01b0390911681526020016100fe565b6101686101d0366004610700565b610378565b3480156101e157600080fd5b506100f466038d7ea4c6800081565b3480156101fc57600080fd5b5061020561054e565b6040805194855260208501939093529183015260608201526080016100fe565b34801561023157600080fd5b5061016861024036600461071b565b610608565b34801561025157600080fd5b506100f4610260366004610700565b60026020526000908152604090205481565b6000546001600160a01b031633146102bd5760405162461bcd60e51b81526020600482015260096024820152682737ba1037bbb732b960b91b60448201526064015b60405180910390fd5b600080546040516001600160a01b03909116914780156108fc02929091818181858888f193505050501580156102f7573d6000803e3d6000fd5b50565b60008082600281111561030f5761030f610757565b03610322575066038d7ea4c68000919050565b600182600281111561033657610336610757565b03610349575066038d7ea4c68000919050565b600282600281111561035d5761035d610757565b03610370575066038d7ea4c68000919050565b506000919050565b600281600281111561038c5761038c610757565b11156103c95760405162461bcd60e51b815260206004820152600c60248201526b496e76616c6964206d6f646560a01b60448201526064016102b4565b6000808260028111156103de576103de610757565b036103f1575066038d7ea4c6800061043b565b600182600281111561040557610405610757565b03610418575066038d7ea4c6800061043b565b600282600281111561042c5761042c610757565b0361043b575066038d7ea4c680005b8034101561047e5760405162461bcd60e51b815260206004820152601060248201526f496e73756666696369656e742066656560801b60448201526064016102b4565b3360009081526001602052604081208054916104998361076d565b9190505550600260008360028111156104b4576104b4610757565b60028111156104c5576104c5610757565b815260200190815260200160002060008154809291906104e49061076d565b9091555050600380549060006104f98361076d565b919050555081600281111561051057610510610757565b6040805142815234602082015233917f5aa65e0a1aad4bb70a2d7eae8b37448e338d5ccd9ae76a790e0bda14630fc1a4910160405180910390a35050565b6000806000806003546002600080600281111561056d5761056d610757565b600281111561057e5761057e610757565b81526020019081526020016000205460026000600160028111156105a4576105a4610757565b60028111156105b5576105b5610757565b815260200190815260200160002054600260006002808111156105da576105da610757565b60028111156105eb576105eb610757565b815260200190815260200160002054935093509350935090919293565b600282600281111561061c5761061c610757565b11156106595760405162461bcd60e51b815260206004820152600c60248201526b496e76616c6964206d6f646560a01b60448201526064016102b4565b81600281111561066b5761066b610757565b604080518381524260208201526001600160a01b038616917fa0d4582659e33ebf7e1e80b7fd9c16d821a7f74598c47a09f3b891b428e268cb910160405180910390a3505050565b80356001600160a01b03811681146106ca57600080fd5b919050565b6000602082840312156106e157600080fd5b6106ea826106b3565b9392505050565b8035600381106106ca57600080fd5b60006020828403121561071257600080fd5b6106ea826106f1565b60008060006060848603121561073057600080fd5b610739846106b3565b9250610747602085016106f1565b9150604084013590509250925092565b634e487b7160e01b600052602160045260246000fd5b60006001820161078d57634e487b7160e01b600052601160045260246000fd5b506001019056fea26469706673582212208a01b77d0a4b5a4911adabf4876b06edd395160db9663bb7c6b6c38b453a38ee64736f6c63430008130033","opcodes":"PUSH1 0x80 PUSH1 0x40 MSTORE CALLVALUE DUP1 ISZERO PUSH2 0x10 JUMPI PUSH1 0x0 DUP1 REVERT JUMPDEST POP PUSH1 0x0 DUP1 SLOAD PUSH1 0x1 PUSH1 0x1 PUSH1 0xA0 SHL SUB NOT AND CALLER OR SWAP1 SSTORE PUSH2 0x7CA DUP1 PUSH2 0x32 PUSH1 0x0 CODECOPY PUSH1 0x0 RETURN INVALID PUSH1 0x80 PUSH1 0x40 MSTORE PUSH1 0x4 CALLDATASIZE LT PUSH2 0xC2 JUMPI PUSH1 0x0 CALLDATALOAD PUSH1 0xE0 SHR DUP1 PUSH4 0x91AD66CC GT PUSH2 0x7F JUMPI DUP1 PUSH4 0xBFF53BD8 GT PUSH2 0x59 JUMPI DUP1 PUSH4 0xBFF53BD8 EQ PUSH2 0x1D5 JUMPI DUP1 PUSH4 0xC59D4847 EQ PUSH2 0x1F0 JUMPI DUP1 PUSH4 0xCE832A7B EQ PUSH2 0x225 JUMPI DUP1 PUSH4 0xDB9EB611 EQ PUSH2 0x245 JUMPI PUSH1 0x0 DUP1 REVERT JUMPDEST DUP1 PUSH4 0x91AD66CC EQ PUSH2 0x1C2 JUMPI DUP1 PUSH4 0xB4476A2D EQ PUSH2 0x1D5 JUMPI DUP1 PUSH4 0xBE85B773 EQ PUSH2 0x1D5 JUMPI PUSH1 0x0 DUP1 REVERT JUMPDEST DUP1 PUSH4 0xDB2E7D0 EQ PUSH2 0xC7 JUMPI DUP1 PUSH4 0x2CC71FC1 EQ PUSH2 0x107 JUMPI DUP1 PUSH4 0x316701C2 EQ PUSH2 0x13D JUMPI DUP1 PUSH4 0x3CCFD60B EQ PUSH2 0x153 JUMPI DUP1 PUSH4 0x6BC39C94 EQ PUSH2 0x16A JUMPI DUP1 PUSH4 0x8DA5CB5B EQ PUSH2 0x18A JUMPI JUMPDEST PUSH1 0x0 DUP1 REVERT JUMPDEST CALLVALUE DUP1 ISZERO PUSH2 0xD3 JUMPI PUSH1 0x0 DUP1 REVERT JUMPDEST POP PUSH2 0xF4 PUSH2 0xE2 CALLDATASIZE PUSH1 0x4 PUSH2 0x6CF JUMP JUMPDEST PUSH1 0x1 PUSH1 0x20 MSTORE PUSH1 0x0 SWAP1 DUP2 MSTORE PUSH1 0x40 SWAP1 KECCAK256 SLOAD DUP2 JUMP JUMPDEST PUSH1 0x40 MLOAD SWAP1 DUP2 MSTORE PUSH1 0x20 ADD JUMPDEST PUSH1 0x40 MLOAD DUP1 SWAP2 SUB SWAP1 RETURN JUMPDEST CALLVALUE DUP1 ISZERO PUSH2 0x113 JUMPI PUSH1 0x0 DUP1 REVERT JUMPDEST POP PUSH2 0xF4 PUSH2 0x122 CALLDATASIZE PUSH1 0x4 PUSH2 0x6CF JUMP JUMPDEST PUSH1 0x1 PUSH1 0x1 PUSH1 0xA0 SHL SUB AND PUSH1 0x0 SWAP1 DUP2 MSTORE PUSH1 0x1 PUSH1 0x20 MSTORE PUSH1 0x40 SWAP1 KECCAK256 SLOAD SWAP1 JUMP JUMPDEST CALLVALUE DUP1 ISZERO PUSH2 0x149 JUMPI PUSH1 0x0 DUP1 REVERT JUMPDEST POP PUSH2 0xF4 PUSH1 0x3 SLOAD DUP2 JUMP JUMPDEST CALLVALUE DUP1 ISZERO PUSH2 0x15F JUMPI PUSH1 0x0 DUP1 REVERT JUMPDEST POP PUSH2 0x168 PUSH2 0x272 JUMP JUMPDEST STOP JUMPDEST CALLVALUE DUP1 ISZERO PUSH2 0x176 JUMPI PUSH1 0x0 DUP1 REVERT JUMPDEST POP PUSH2 0xF4 PUSH2 0x185 CALLDATASIZE PUSH1 0x4 PUSH2 0x700 JUMP JUMPDEST PUSH2 0x2FA JUMP JUMPDEST CALLVALUE DUP1 ISZERO PUSH2 0x196 JUMPI PUSH1 0x0 DUP1 REVERT JUMPDEST POP PUSH1 0x0 SLOAD PUSH2 0x1AA SWAP1 PUSH1 0x1 PUSH1 0x1 PUSH1 0xA0 SHL SUB AND DUP2 JUMP JUMPDEST PUSH1 0x40 MLOAD PUSH1 0x1 PUSH1 0x1 PUSH1 0xA0 SHL SUB SWAP1 SWAP2 AND DUP2 MSTORE PUSH1 0x20 ADD PUSH2 0xFE JUMP JUMPDEST PUSH2 0x168 PUSH2 0x1D0 CALLDATASIZE PUSH1 0x4 PUSH2 0x700 JUMP JUMPDEST PUSH2 0x378 JUMP JUMPDEST CALLVALUE DUP1 ISZERO PUSH2 0x1E1 JUMPI PUSH1 0x0 DUP1 REVERT JUMPDEST POP PUSH2 0xF4 PUSH7 0x38D7EA4C68000 DUP2 JUMP JUMPDEST CALLVALUE DUP1 ISZERO PUSH2 0x1FC JUMPI PUSH1 0x0 DUP1 REVERT JUMPDEST POP PUSH2 0x205 PUSH2 0x54E JUMP JUMPDEST PUSH1 0x40 DUP1 MLOAD SWAP5 DUP6 MSTORE PUSH1 0x20 DUP6 ADD SWAP4 SWAP1 SWAP4 MSTORE SWAP2 DUP4 ADD MSTORE PUSH1 0x60 DUP3 ADD MSTORE PUSH1 0x80 ADD PUSH2 0xFE JUMP JUMPDEST CALLVALUE DUP1 ISZERO PUSH2 0x231 JUMPI PUSH1 0x0 DUP1 REVERT JUMPDEST POP PUSH2 0x168 PUSH2 0x240 CALLDATASIZE PUSH1 0x4 PUSH2 0x71B JUMP JUMPDEST PUSH2 0x608 JUMP JUMPDEST CALLVALUE DUP1 ISZERO PUSH2 0x251 JUMPI PUSH1 0x0 DUP1 REVERT JUMPDEST POP PUSH2 0xF4 PUSH2 0x260 CALLDATASIZE PUSH1 0x4 PUSH2 0x700 JUMP JUMPDEST PUSH1 0x2 PUSH1 0x20 MSTORE PUSH1 0x0 SWAP1 DUP2 MSTORE PUSH1 0x40 SWAP1 KECCAK256 SLOAD DUP2 JUMP JUMPDEST PUSH1 0x0 SLOAD PUSH1 0x1 PUSH1 0x1 PUSH1 0xA0 SHL SUB AND CALLER EQ PUSH2 0x2BD JUMPI PUSH1 0x40 MLOAD PUSH3 0x461BCD PUSH1 0xE5 SHL DUP2 MSTORE PUSH1 0x20 PUSH1 0x4 DUP3 ADD MSTORE PUSH1 0x9 PUSH1 0x24 DUP3 ADD MSTORE PUSH9 0x2737BA1037BBB732B9 PUSH1 0xB9 SHL PUSH1 0x44 DUP3 ADD MSTORE PUSH1 0x64 ADD JUMPDEST PUSH1 0x40 MLOAD DUP1 SWAP2 SUB SWAP1 REVERT JUMPDEST PUSH1 0x0 DUP1 SLOAD PUSH1 0x40 MLOAD PUSH1 0x1 PUSH1 0x1 PUSH1 0xA0 SHL SUB SWAP1 SWAP2 AND SWAP2 SELFBALANCE DUP1 ISZERO PUSH2 0x8FC MUL SWAP3 SWAP1 SWAP2 DUP2 DUP2 DUP2 DUP6 DUP9 DUP9 CALL SWAP4 POP POP POP POP ISZERO DUP1 ISZERO PUSH2 0x2F7 JUMPI RETURNDATASIZE PUSH1 0x0 DUP1 RETURNDATACOPY RETURNDATASIZE PUSH1 0x0 REVERT JUMPDEST POP JUMP JUMPDEST PUSH1 0x0 DUP1 DUP3 PUSH1 0x2 DUP2 GT ISZERO PUSH2 0x30F JUMPI PUSH2 0x30F PUSH2 0x757 JUMP JUMPDEST SUB PUSH2 0x322 JUMPI POP PUSH7 0x38D7EA4C68000 SWAP2 SWAP1 POP JUMP JUMPDEST PUSH1 0x1 DUP3 PUSH1 0x2 DUP2 GT ISZERO PUSH2 0x336 JUMPI PUSH2 0x336 PUSH2 0x757 JUMP JUMPDEST SUB PUSH2 0x349 JUMPI POP PUSH7 0x38D7EA4C68000 SWAP2 SWAP1 POP JUMP JUMPDEST PUSH1 0x2 DUP3 PUSH1 0x2 DUP2 GT ISZERO PUSH2 0x35D JUMPI PUSH2 0x35D PUSH2 0x757 JUMP JUMPDEST SUB PUSH2 0x370 JUMPI POP PUSH7 0x38D7EA4C68000 SWAP2 SWAP1 POP JUMP JUMPDEST POP PUSH1 0x0 SWAP2 SWAP1 POP JUMP JUMPDEST PUSH1 0x2 DUP2 PUSH1 0x2 DUP2 GT ISZERO PUSH2 0x38C JUMPI PUSH2 0x38C PUSH2 0x757 JUMP JUMPDEST GT ISZERO PUSH2 0x3C9 JUMPI PUSH1 0x40 MLOAD PUSH3 0x461BCD PUSH1 0xE5 SHL DUP2 MSTORE PUSH1 0x20 PUSH1 0x4 DUP3 ADD MSTORE PUSH1 0xC PUSH1 0x24 DUP3 ADD MSTORE PUSH12 0x496E76616C6964206D6F6465 PUSH1 0xA0 SHL PUSH1 0x44 DUP3 ADD MSTORE PUSH1 0x64 ADD PUSH2 0x2B4 JUMP JUMPDEST PUSH1 0x0 DUP1 DUP3 PUSH1 0x2 DUP2 GT ISZERO PUSH2 0x3DE JUMPI PUSH2 0x3DE PUSH2 0x757 JUMP JUMPDEST SUB PUSH2 0x3F1 JUMPI POP PUSH7 0x38D7EA4C68000 PUSH2 0x43B JUMP JUMPDEST PUSH1 0x1 DUP3 PUSH1 0x2 DUP2 GT ISZERO PUSH2 0x405 JUMPI PUSH2 0x405 PUSH2 0x757 JUMP JUMPDEST SUB PUSH2 0x418 JUMPI POP PUSH7 0x38D7EA4C68000 PUSH2 0x43B JUMP JUMPDEST PUSH1 0x2 DUP3 PUSH1 0x2 DUP2 GT ISZERO PUSH2 0x42C JUMPI PUSH2 0x42C PUSH2 0x757 JUMP JUMPDEST SUB PUSH2 0x43B JUMPI POP PUSH7 0x38D7EA4C68000 JUMPDEST DUP1 CALLVALUE LT ISZERO PUSH2 0x47E JUMPI PUSH1 0x40 MLOAD PUSH3 0x461BCD PUSH1 0xE5 SHL DUP2 MSTORE PUSH1 0x20 PUSH1 0x4 DUP3 ADD MSTORE PUSH1 0x10 PUSH1 0x24 DUP3 ADD MSTORE PUSH16 0x496E73756666696369656E7420666565 PUSH1 0x80 SHL PUSH1 0x44 DUP3 ADD MSTORE PUSH1 0x64 ADD PUSH2 0x2B4 JUMP JUMPDEST CALLER PUSH1 0x0 SWAP1 DUP2 MSTORE PUSH1 0x1 PUSH1 0x20 MSTORE PUSH1 0x40 DUP2 KECCAK256 DUP1 SLOAD SWAP2 PUSH2 0x499 DUP4 PUSH2 0x76D JUMP JUMPDEST SWAP2 SWAP1 POP SSTORE POP PUSH1 0x2 PUSH1 0x0 DUP4 PUSH1 0x2 DUP2 GT ISZERO PUSH2 0x4B4 JUMPI PUSH2 0x4B4 PUSH2 0x757 JUMP JUMPDEST PUSH1 0x2 DUP2 GT ISZERO PUSH2 0x4C5 JUMPI PUSH2 0x4C5 PUSH2 0x757 JUMP JUMPDEST DUP2 MSTORE PUSH1 0x20 ADD SWAP1 DUP2 MSTORE PUSH1 0x20 ADD PUSH1 0x0 KECCAK256 PUSH1 0x0 DUP2 SLOAD DUP1 SWAP3 SWAP2 SWAP1 PUSH2 0x4E4 SWAP1 PUSH2 0x76D JUMP JUMPDEST SWAP1 SWAP2 SSTORE POP POP PUSH1 0x3 DUP1 SLOAD SWAP1 PUSH1 0x0 PUSH2 0x4F9 DUP4 PUSH2 0x76D JUMP JUMPDEST SWAP2 SWAP1 POP SSTORE POP DUP2 PUSH1 0x2 DUP2 GT ISZERO PUSH2 0x510 JUMPI PUSH2 0x510 PUSH2 0x757 JUMP JUMPDEST PUSH1 0x40 DUP1 MLOAD TIMESTAMP DUP2 MSTORE CALLVALUE PUSH1 0x20 DUP3 ADD MSTORE CALLER SWAP2 PUSH32 0x5AA65E0A1AAD4BB70A2D7EAE8B37448E338D5CCD9AE76A790E0BDA14630FC1A4 SWAP2 ADD PUSH1 0x40 MLOAD DUP1 SWAP2 SUB SWAP1 LOG3 POP POP JUMP JUMPDEST PUSH1 0x0 DUP1 PUSH1 0x0 DUP1 PUSH1 0x3 SLOAD PUSH1 0x2 PUSH1 0x0 DUP1 PUSH1 0x2 DUP2 GT ISZERO PUSH2 0x56D JUMPI PUSH2 0x56D PUSH2 0x757 JUMP JUMPDEST PUSH1 0x2 DUP2 GT ISZERO PUSH2 0x57E JUMPI PUSH2 0x57E PUSH2 0x757 JUMP JUMPDEST DUP2 MSTORE PUSH1 0x20 ADD SWAP1 DUP2 MSTORE PUSH1 0x20 ADD PUSH1 0x0 KECCAK256 SLOAD PUSH1 0x2 PUSH1 0x0 PUSH1 0x1 PUSH1 0x2 DUP2 GT ISZERO PUSH2 0x5A4 JUMPI PUSH2 0x5A4 PUSH2 0x757 JUMP JUMPDEST PUSH1 0x2 DUP2 GT ISZERO PUSH2 0x5B5 JUMPI PUSH2 0x5B5 PUSH2 0x757 JUMP JUMPDEST DUP2 MSTORE PUSH1 0x20 ADD SWAP1 DUP2 MSTORE PUSH1 0x20 ADD PUSH1 0x0 KECCAK256 SLOAD PUSH1 0x2 PUSH1 0x0 PUSH1 0x2 DUP1 DUP2 GT ISZERO PUSH2 0x5DA JUMPI PUSH2 0x5DA PUSH2 0x757 JUMP JUMPDEST PUSH1 0x2 DUP2 GT ISZERO PUSH2 0x5EB JUMPI PUSH2 0x5EB PUSH2 0x757 JUMP JUMPDEST DUP2 MSTORE PUSH1 0x20 ADD SWAP1 DUP2 MSTORE PUSH1 0x20 ADD PUSH1 0x0 KECCAK256 SLOAD SWAP4 POP SWAP4 POP SWAP4 POP SWAP4 POP SWAP1 SWAP2 SWAP3 SWAP4 JUMP JUMPDEST PUSH1 0x2 DUP3 PUSH1 0x2 DUP2 GT ISZERO PUSH2 0x61C JUMPI PUSH2 0x61C PUSH2 0x757 JUMP JUMPDEST GT ISZERO PUSH2 0x659 JUMPI PUSH1 0x40 MLOAD PUSH3 0x461BCD PUSH1 0xE5 SHL DUP2 MSTORE PUSH1 0x20 PUSH1 0x4 DUP3 ADD MSTORE PUSH1 0xC PUSH1 0x24 DUP3 ADD MSTORE PUSH12 0x496E76616C6964206D6F6465 PUSH1 0xA0 SHL PUSH1 0x44 DUP3 ADD MSTORE PUSH1 0x64 ADD PUSH2 0x2B4 JUMP JUMPDEST DUP2 PUSH1 0x2 DUP2 GT ISZERO PUSH2 0x66B JUMPI PUSH2 0x66B PUSH2 0x757 JUMP JUMPDEST PUSH1 0x40 DUP1 MLOAD DUP4 DUP2 MSTORE TIMESTAMP PUSH1 0x20 DUP3 ADD MSTORE PUSH1 0x1 PUSH1 0x1 PUSH1 0xA0 SHL SUB DUP7 AND SWAP2 PUSH32 0xA0D4582659E33EBF7E1E80B7FD9C16D821A7F74598C47A09F3B891B428E268CB SWAP2 ADD PUSH1 0x40 MLOAD DUP1 SWAP2 SUB SWAP1 LOG3 POP POP POP JUMP JUMPDEST DUP1 CALLDATALOAD PUSH1 0x1 PUSH1 0x1 PUSH1 0xA0 SHL SUB DUP2 AND DUP2 EQ PUSH2 0x6CA JUMPI PUSH1 0x0 DUP1 REVERT JUMPDEST SWAP2 SWAP1 POP JUMP JUMPDEST PUSH1 0x0 PUSH1 0x20 DUP3 DUP5 SUB SLT ISZERO PUSH2 0x6E1 JUMPI PUSH1 0x0 DUP1 REVERT JUMPDEST PUSH2 0x6EA DUP3 PUSH2 0x6B3 JUMP JUMPDEST SWAP4 SWAP3 POP POP POP JUMP JUMPDEST DUP1 CALLDATALOAD PUSH1 0x3 DUP2 LT PUSH2 0x6CA JUMPI PUSH1 0x0 DUP1 REVERT JUMPDEST PUSH1 0x0 PUSH1 0x20 DUP3 DUP5 SUB SLT ISZERO PUSH2 0x712 JUMPI PUSH1 0x0 DUP1 REVERT JUMPDEST PUSH2 0x6EA DUP3 PUSH2 0x6F1 JUMP JUMPDEST PUSH1 0x0 DUP1 PUSH1 0x0 PUSH1 0x60 DUP5 DUP7 SUB SLT ISZERO PUSH2 0x730 JUMPI PUSH1 0x0 DUP1 REVERT JUMPDEST PUSH2 0x739 DUP5 PUSH2 0x6B3 JUMP JUMPDEST SWAP3 POP PUSH2 0x747 PUSH1 0x20 DUP6 ADD PUSH2 0x6F1 JUMP JUMPDEST SWAP2 POP PUSH1 0x40 DUP5 ADD CALLDATALOAD SWAP1 POP SWAP3 POP SWAP3 POP SWAP3 JUMP JUMPDEST PUSH4 0x4E487B71 PUSH1 0xE0 SHL PUSH1 0x0 MSTORE PUSH1 0x21 PUSH1 0x4 MSTORE PUSH1 0x24 PUSH1 0x0 REVERT JUMPDEST PUSH1 0x0 PUSH1 0x1 DUP3 ADD PUSH2 0x78D JUMPI PUSH4 0x4E487B71 PUSH1 0xE0 SHL PUSH1 0x0 MSTORE PUSH1 0x11 PUSH1 0x4 MSTORE PUSH1 0x24 PUSH1 0x0 REVERT JUMPDEST POP PUSH1 0x1 ADD SWAP1 JUMP INVALID LOG2 PUSH5 0x6970667358 0x22 SLT KECCAK256 DUP11 ADD 0xB7 PUSH30 0xA4B5A4911ADABF4876B06EDD395160DB9663BB7C6B6C38B453A38EE6473 PUSH16 0x6C634300081300330000000000000000 "},"methodIdentifiers":{"CHALLENGE_FEE()":"be85b773","CLASSIC_FEE()":"bff53bd8","TIME_MODE_FEE()":"b4476a2d","getRequiredFee(uint8)":"6bc39c94","getStats()":"c59d4847","getUserQuizCount(address)":"2cc71fc1","modeCount(uint8)":"db9eb611","owner()":"8da5cb5b","recordQuizCompletion(address,uint8,uint256)":"ce832a7b","startQuiz(uint8)":"91ad66cc","totalQuizzes()":"316701c2","userQuizCount(address)":"0db2e7d0","withdraw()":"3ccfd60b"}}}}}