{"contracts/QuizTriviaEntry.sol":{"QuizTriviaSignature":{"abi":[{"inputs":[],"stateMutability":"nonpayable","type":"constructor"},{"anonymous":false,"inputs":[{"indexed":true,"internalType":"address","name":"user","type":"address"},{"indexed":true,"internalType":"uint256","name":"mode","type":"uint256"},{"indexed":false,"internalType":"uint256","name":"score","type":"uint256"},{"indexed":false,"internalType":"uint256","name":"timestamp","type":"uint256"}],"name":"QuizCompleted","type":"event"},{"anonymous":false,"inputs":[{"indexed":true,"internalType":"address","name":"user","type":"address"},{"indexed":true,"internalType":"uint256","name":"mode","type":"uint256"},{"indexed":false,"internalType":"uint256","name":"timestamp","type":"uint256"},{"indexed":false,"internalType":"bytes32","name":"signatureHash","type":"bytes32"}],"name":"QuizStarted","type":"event"},{"inputs":[{"internalType":"address","name":"user","type":"address"},{"internalType":"enum QuizTriviaSignature.QuizMode","name":"mode","type":"uint8"},{"internalType":"uint256","name":"timestamp","type":"uint256"},{"internalType":"uint256","name":"nonce","type":"uint256"}],"name":"getMessageHash","outputs":[{"internalType":"bytes32","name":"","type":"bytes32"}],"stateMutability":"pure","type":"function"},{"inputs":[],"name":"getStats","outputs":[{"internalType":"uint256","name":"total","type":"uint256"},{"internalType":"uint256","name":"classic","type":"uint256"},{"internalType":"uint256","name":"time","type":"uint256"},{"internalType":"uint256","name":"challenge","type":"uint256"}],"stateMutability":"view","type":"function"},{"inputs":[{"internalType":"address","name":"user","type":"address"}],"name":"getUserNonce","outputs":[{"internalType":"uint256","name":"","type":"uint256"}],"stateMutability":"view","type":"function"},{"inputs":[{"internalType":"address","name":"user","type":"address"}],"name":"getUserQuizCount","outputs":[{"internalType":"uint256","name":"","type":"uint256"}],"stateMutability":"view","type":"function"},{"inputs":[{"internalType":"enum QuizTriviaSignature.QuizMode","name":"","type":"uint8"}],"name":"modeCount","outputs":[{"internalType":"uint256","name":"","type":"uint256"}],"stateMutability":"view","type":"function"},{"inputs":[],"name":"owner","outputs":[{"internalType":"address","name":"","type":"address"}],"stateMutability":"view","type":"function"},{"inputs":[{"internalType":"address","name":"user","type":"address"},{"internalType":"enum QuizTriviaSignature.QuizMode","name":"mode","type":"uint8"},{"internalType":"uint256","name":"score","type":"uint256"}],"name":"recordQuizCompletion","outputs":[],"stateMutability":"nonpayable","type":"function"},{"inputs":[{"internalType":"enum QuizTriviaSignature.QuizMode","name":"mode","type":"uint8"},{"internalType":"uint256","name":"timestamp","type":"uint256"},{"internalType":"bytes","name":"signature","type":"bytes"}],"name":"startQuizWithSignature","outputs":[],"stateMutability":"nonpayable","type":"function"},{"inputs":[],"name":"totalQuizzes","outputs":[{"internalType":"uint256","name":"","type":"uint256"}],"stateMutability":"view","type":"function"},{"inputs":[{"internalType":"bytes32","name":"","type":"bytes32"}],"name":"usedSignatures","outputs":[{"internalType":"bool","name":"","type":"bool"}],"stateMutability":"view","type":"function"},{"inputs":[{"internalType":"address","name":"","type":"address"}],"name":"userNonce","outputs":[{"internalType":"uint256","name":"","type":"uint256"}],"stateMutability":"view","type":"function"},{"inputs":[{"internalType":"address","name":"","type":"address"}],"name":"userQuizCount","outputs":[{"internalType":"uint256","name":"","type":"uint256"}],"stateMutability":"view","type":"function"},{"inputs":[],"name":"withdraw","outputs":[],"stateMutability":"nonpayable","type":"function"}],"evm":{"bytecode":{"linkReferences":{},"object":"608060405234801561001057600080fd5b50600080546001600160a01b03191633179055610b13806100326000396000f3fe608060405234801561001057600080fd5b50600436106100cf5760003560e01c80636834e3a81161008c578063ce832a7b11610066578063ce832a7b146101f2578063db9eb61114610205578063e313c00f14610225578063f978fd611461023857600080fd5b80636834e3a8146101765780638da5cb5b1461019f578063c59d4847146101ca57600080fd5b80630db2e7d0146100d45780632cc71fc1146101075780632e04b8e714610130578063316701c21461015057806339671eb6146101595780633ccfd60b1461016c575b600080fd5b6100f46100e2366004610853565b60016020526000908152604090205481565b6040519081526020015b60405180910390f35b6100f4610115366004610853565b6001600160a01b031660009081526001602052604090205490565b6100f461013e366004610853565b60056020526000908152604090205481565b6100f460045481565b6100f461016736600461087d565b61026b565b6101746102ed565b005b6100f4610184366004610853565b6001600160a01b031660009081526005602052604090205490565b6000546101b2906001600160a01b031681565b6040516001600160a01b0390911681526020016100fe565b6101d2610375565b6040805194855260208501939093529183015260608201526080016100fe565b6101746102003660046108bf565b61042f565b6100f46102133660046108fb565b60026020526000908152604090205481565b61017461023336600461092c565b6104da565b61025b6102463660046109f7565b60036020526000908152604090205460ff1681565b60405190151581526020016100fe565b6000848484846040516020016102849493929190610a26565b60408051601f198184030181529082905280516020918201207f19457468657265756d205369676e6564204d6573736167653a0a33320000000091830191909152603c820152605c01604051602081830303815290604052805190602001209050949350505050565b6000546001600160a01b031633146103385760405162461bcd60e51b81526020600482015260096024820152682737ba1037bbb732b960b91b60448201526064015b60405180910390fd5b600080546040516001600160a01b03909116914780156108fc02929091818181858888f19350505050158015610372573d6000803e3d6000fd5b50565b6000806000806004546002600080600281111561039457610394610a10565b60028111156103a5576103a5610a10565b81526020019081526020016000205460026000600160028111156103cb576103cb610a10565b60028111156103dc576103dc610a10565b8152602001908152602001600020546002600060028081111561040157610401610a10565b600281111561041257610412610a10565b815260200190815260200160002054935093509350935090919293565b600282600281111561044357610443610a10565b11156104805760405162461bcd60e51b815260206004820152600c60248201526b496e76616c6964206d6f646560a01b604482015260640161032f565b81600281111561049257610492610a10565b604080518381524260208201526001600160a01b038616917fa0d4582659e33ebf7e1e80b7fd9c16d821a7f74598c47a09f3b891b428e268cb910160405180910390a3505050565b60028360028111156104ee576104ee610a10565b111561052b5760405162461bcd60e51b815260206004820152600c60248201526b496e76616c6964206d6f646560a01b604482015260640161032f565b61012c6105388342610a92565b106105795760405162461bcd60e51b815260206004820152601160248201527014da59db985d1d5c9948195e1c1a5c9959607a1b604482015260640161032f565b336000818152600560205260408120549091610598918690869061026b565b60008181526003602052604090205490915060ff16156105f35760405162461bcd60e51b815260206004820152601660248201527514da59db985d1d5c9948185b1c9958591e481d5cd95960521b604482015260640161032f565b6105fe818333610748565b61063e5760405162461bcd60e51b8152602060048201526011602482015270496e76616c6964207369676e617475726560781b604482015260640161032f565b6000818152600360209081526040808320805460ff191660011790553383526005909152812080549161067083610aab565b909155505033600090815260016020526040812080549161069083610aab565b9190505550600260008560028111156106ab576106ab610a10565b60028111156106bc576106bc610a10565b815260200190815260200160002060008154809291906106db90610aab565b9091555050600480549060006106f083610aab565b919050555083600281111561070757610707610a10565b604080514281526020810184905233917fcf9677b104befbd3542fa394ca03a2bb35d886ae1f10940fa87ed921bac89861910160405180910390a350505050565b60008060008085516041146107635760009350505050610830565b50505060208301516040840151606085015160001a601b81101561078f5761078c601b82610ac4565b90505b8060ff16601b141580156107a757508060ff16601c14155b156107b85760009350505050610830565b60408051600081526020810180835289905260ff83169181019190915260608101849052608081018390526001600160a01b0386169060019060a0016020604051602081039080840390855afa158015610816573d6000803e3d6000fd5b505050602060405103516001600160a01b03161493505050505b9392505050565b80356001600160a01b038116811461084e57600080fd5b919050565b60006020828403121561086557600080fd5b61083082610837565b80356003811061084e57600080fd5b6000806000806080858703121561089357600080fd5b61089c85610837565b93506108aa6020860161086e565b93969395505050506040820135916060013590565b6000806000606084860312156108d457600080fd5b6108dd84610837565b92506108eb6020850161086e565b9150604084013590509250925092565b60006020828403121561090d57600080fd5b6108308261086e565b634e487b7160e01b600052604160045260246000fd5b60008060006060848603121561094157600080fd5b61094a8461086e565b925060208401359150604084013567ffffffffffffffff8082111561096e57600080fd5b818601915086601f83011261098257600080fd5b81358181111561099457610994610916565b604051601f8201601f19908116603f011681019083821181831017156109bc576109bc610916565b816040528281528960208487010111156109d557600080fd5b8260208601602083013760006020848301015280955050505050509250925092565b600060208284031215610a0957600080fd5b5035919050565b634e487b7160e01b600052602160045260246000fd5b6bffffffffffffffffffffffff198560601b168152600060038510610a5b57634e487b7160e01b600052602160045260246000fd5b5060f89390931b601484015260158301919091526035820152605501919050565b634e487b7160e01b600052601160045260246000fd5b81810381811115610aa557610aa5610a7c565b92915050565b600060018201610abd57610abd610a7c565b5060010190565b60ff8181168382160190811115610aa557610aa5610a7c56fea2646970667358221220914b0eed9de776745594319c0593cc3d33b36b78642b2ceec74fa353eb624f1564736f6c63430008130033","opcodes":"PUSH1 0x80 PUSH1 0x40 MSTORE CALLVALUE DUP1 ISZERO PUSH2 0x10 JUMPI PUSH1 0x0 DUP1 REVERT JUMPDEST POP PUSH1 0x0 DUP1 SLOAD PUSH1 0x1 PUSH1 0x1 PUSH1 0xA0 SHL SUB NOT AND CALLER OR SWAP1 SSTORE PUSH2 0xB13 DUP1 PUSH2 0x32 PUSH1 0x0 CODECOPY PUSH1 0x0 RETURN INVALID PUSH1 0x80 PUSH1 0x40 MSTORE CALLVALUE DUP1 ISZERO PUSH2 0x10 JUMPI PUSH1 0x0 DUP1 REVERT JUMPDEST POP PUSH1 0x4 CALLDATASIZE LT PUSH2 0xCF JUMPI PUSH1 0x0 CALLDATALOAD PUSH1 0xE0 SHR DUP1 PUSH4 0x6834E3A8 GT PUSH2 0x8C JUMPI DUP1 PUSH4 0xCE832A7B GT PUSH2 0x66 JUMPI DUP1 PUSH4 0xCE832A7B EQ PUSH2 0x1F2 JUMPI DUP1 PUSH4 0xDB9EB611 EQ PUSH2 0x205 JUMPI DUP1 PUSH4 0xE313C00F EQ PUSH2 0x225 JUMPI DUP1 PUSH4 0xF978FD61 EQ PUSH2 0x238 JUMPI PUSH1 0x0 DUP1 REVERT JUMPDEST DUP1 PUSH4 0x6834E3A8 EQ PUSH2 0x176 JUMPI DUP1 PUSH4 0x8DA5CB5B EQ PUSH2 0x19F JUMPI DUP1 PUSH4 0xC59D4847 EQ PUSH2 0x1CA JUMPI PUSH1 0x0 DUP1 REVERT JUMPDEST DUP1 PUSH4 0xDB2E7D0 EQ PUSH2 0xD4 JUMPI DUP1 PUSH4 0x2CC71FC1 EQ PUSH2 0x107 JUMPI DUP1 PUSH4 0x2E04B8E7 EQ PUSH2 0x130 JUMPI DUP1 PUSH4 0x316701C2 EQ PUSH2 0x150 JUMPI DUP1 PUSH4 0x39671EB6 EQ PUSH2 0x159 JUMPI DUP1 PUSH4 0x3CCFD60B EQ PUSH2 0x16C JUMPI JUMPDEST PUSH1 0x0 DUP1 REVERT JUMPDEST PUSH2 0xF4 PUSH2 0xE2 CALLDATASIZE PUSH1 0x4 PUSH2 0x853 JUMP JUMPDEST PUSH1 0x1 PUSH1 0x20 MSTORE PUSH1 0x0 SWAP1 DUP2 MSTORE PUSH1 0x40 SWAP1 KECCAK256 SLOAD DUP2 JUMP JUMPDEST PUSH1 0x40 MLOAD SWAP1 DUP2 MSTORE PUSH1 0x20 ADD JUMPDEST PUSH1 0x40 MLOAD DUP1 SWAP2 SUB SWAP1 RETURN JUMPDEST PUSH2 0xF4 PUSH2 0x115 CALLDATASIZE PUSH1 0x4 PUSH2 0x853 JUMP JUMPDEST PUSH1 0x1 PUSH1 0x1 PUSH1 0xA0 SHL SUB AND PUSH1 0x0 SWAP1 DUP2 MSTORE PUSH1 0x1 PUSH1 0x20 MSTORE PUSH1 0x40 SWAP1 KECCAK256 SLOAD SWAP1 JUMP JUMPDEST PUSH2 0xF4 PUSH2 0x13E CALLDATASIZE PUSH1 0x4 PUSH2 0x853 JUMP JUMPDEST PUSH1 0x5 PUSH1 0x20 MSTORE PUSH1 0x0 SWAP1 DUP2 MSTORE PUSH1 0x40 SWAP1 KECCAK256 SLOAD DUP2 JUMP JUMPDEST PUSH2 0xF4 PUSH1 0x4 SLOAD DUP2 JUMP JUMPDEST PUSH2 0xF4 PUSH2 0x167 CALLDATASIZE PUSH1 0x4 PUSH2 0x87D JUMP JUMPDEST PUSH2 0x26B JUMP JUMPDEST PUSH2 0x174 PUSH2 0x2ED JUMP JUMPDEST STOP JUMPDEST PUSH2 0xF4 PUSH2 0x184 CALLDATASIZE PUSH1 0x4 PUSH2 0x853 JUMP JUMPDEST PUSH1 0x1 PUSH1 0x1 PUSH1 0xA0 SHL SUB AND PUSH1 0x0 SWAP1 DUP2 MSTORE PUSH1 0x5 PUSH1 0x20 MSTORE PUSH1 0x40 SWAP1 KECCAK256 SLOAD SWAP1 JUMP JUMPDEST PUSH1 0x0 SLOAD PUSH2 0x1B2 SWAP1 PUSH1 0x1 PUSH1 0x1 PUSH1 0xA0 SHL SUB AND DUP2 JUMP JUMPDEST PUSH1 0x40 MLOAD PUSH1 0x1 PUSH1 0x1 PUSH1 0xA0 SHL SUB SWAP1 SWAP2 AND DUP2 MSTORE PUSH1 0x20 ADD PUSH2 0xFE JUMP JUMPDEST PUSH2 0x1D2 PUSH2 0x375 JUMP JUMPDEST PUSH1 0x40 DUP1 MLOAD SWAP5 DUP6 MSTORE PUSH1 0x20 DUP6 ADD SWAP4 SWAP1 SWAP4 MSTORE SWAP2 DUP4 ADD MSTORE PUSH1 0x60 DUP3 ADD MSTORE PUSH1 0x80 ADD PUSH2 0xFE JUMP JUMPDEST PUSH2 0x174 PUSH2 0x200 CALLDATASIZE PUSH1 0x4 PUSH2 0x8BF JUMP JUMPDEST PUSH2 0x42F JUMP JUMPDEST PUSH2 0xF4 PUSH2 0x213 CALLDATASIZE PUSH1 0x4 PUSH2 0x8FB JUMP JUMPDEST PUSH1 0x2 PUSH1 0x20 MSTORE PUSH1 0x0 SWAP1 DUP2 MSTORE PUSH1 0x40 SWAP1 KECCAK256 SLOAD DUP2 JUMP JUMPDEST PUSH2 0x174 PUSH2 0x233 CALLDATASIZE PUSH1 0x4 PUSH2 0x92C JUMP JUMPDEST PUSH2 0x4DA JUMP JUMPDEST PUSH2 0x25B PUSH2 0x246 CALLDATASIZE PUSH1 0x4 PUSH2 0x9F7 JUMP JUMPDEST PUSH1 0x3 PUSH1 0x20 MSTORE PUSH1 0x0 SWAP1 DUP2 MSTORE PUSH1 0x40 SWAP1 KECCAK256 SLOAD PUSH1 0xFF AND DUP2 JUMP JUMPDEST PUSH1 0x40 MLOAD SWAP1 ISZERO ISZERO DUP2 MSTORE PUSH1 0x20 ADD PUSH2 0xFE JUMP JUMPDEST PUSH1 0x0 DUP5 DUP5 DUP5 DUP5 PUSH1 0x40 MLOAD PUSH1 0x20 ADD PUSH2 0x284 SWAP5 SWAP4 SWAP3 SWAP2 SWAP1 PUSH2 0xA26 JUMP JUMPDEST PUSH1 0x40 DUP1 MLOAD PUSH1 0x1F NOT DUP2 DUP5 SUB ADD DUP2 MSTORE SWAP1 DUP3 SWAP1 MSTORE DUP1 MLOAD PUSH1 0x20 SWAP2 DUP3 ADD KECCAK256 PUSH32 0x19457468657265756D205369676E6564204D6573736167653A0A333200000000 SWAP2 DUP4 ADD SWAP2 SWAP1 SWAP2 MSTORE PUSH1 0x3C DUP3 ADD MSTORE PUSH1 0x5C ADD PUSH1 0x40 MLOAD PUSH1 0x20 DUP2 DUP4 SUB SUB DUP2 MSTORE SWAP1 PUSH1 0x40 MSTORE DUP1 MLOAD SWAP1 PUSH1 0x20 ADD KECCAK256 SWAP1 POP SWAP5 SWAP4 POP POP POP POP JUMP JUMPDEST PUSH1 0x0 SLOAD PUSH1 0x1 PUSH1 0x1 PUSH1 0xA0 SHL SUB AND CALLER EQ PUSH2 0x338 JUMPI PUSH1 0x40 MLOAD PUSH3 0x461BCD PUSH1 0xE5 SHL DUP2 MSTORE PUSH1 0x20 PUSH1 0x4 DUP3 ADD MSTORE PUSH1 0x9 PUSH1 0x24 DUP3 ADD MSTORE PUSH9 0x2737BA1037BBB732B9 PUSH1 0xB9 SHL PUSH1 0x44 DUP3 ADD MSTORE PUSH1 0x64 ADD JUMPDEST PUSH1 0x40 MLOAD DUP1 SWAP2 SUB SWAP1 REVERT JUMPDEST PUSH1 0x0 DUP1 SLOAD PUSH1 0x40 MLOAD PUSH1 0x1 PUSH1 0x1 PUSH1 0xA0 SHL SUB SWAP1 SWAP2 AND SWAP2 SELFBALANCE DUP1 ISZERO PUSH2 0x8FC MUL SWAP3 SWAP1 SWAP2 DUP2 DUP2 DUP2 DUP6 DUP9 DUP9 CALL SWAP4 POP POP POP POP ISZERO DUP1 ISZERO PUSH2 0x372 JUMPI RETURNDATASIZE PUSH1 0x0 DUP1 RETURNDATACOPY RETURNDATASIZE PUSH1 0x0 REVERT JUMPDEST POP JUMP JUMPDEST PUSH1 0x0 DUP1 PUSH1 0x0 DUP1 PUSH1 0x4 SLOAD PUSH1 0x2 PUSH1 0x0 DUP1 PUSH1 0x2 DUP2 GT ISZERO PUSH2 0x394 JUMPI PUSH2 0x394 PUSH2 0xA10 JUMP JUMPDEST PUSH1 0x2 DUP2 GT ISZERO PUSH2 0x3A5 JUMPI PUSH2 0x3A5 PUSH2 0xA10 JUMP JUMPDEST DUP2 MSTORE PUSH1 0x20 ADD SWAP1 DUP2 MSTORE PUSH1 0x20 ADD PUSH1 0x0 KECCAK256 SLOAD PUSH1 0x2 PUSH1 0x0 PUSH1 0x1 PUSH1 0x2 DUP2 GT ISZERO PUSH2 0x3CB JUMPI PUSH2 0x3CB PUSH2 0xA10 JUMP JUMPDEST PUSH1 0x2 DUP2 GT ISZERO PUSH2 0x3DC JUMPI PUSH2 0x3DC PUSH2 0xA10 JUMP JUMPDEST DUP2 MSTORE PUSH1 0x20 ADD SWAP1 DUP2 MSTORE PUSH1 0x20 ADD PUSH1 0x0 KECCAK256 SLOAD PUSH1 0x2 PUSH1 0x0 PUSH1 0x2 DUP1 DUP2 GT ISZERO PUSH2 0x401 JUMPI PUSH2 0x401 PUSH2 0xA10 JUMP JUMPDEST PUSH1 0x2 DUP2 GT ISZERO PUSH2 0x412 JUMPI PUSH2 0x412 PUSH2 0xA10 JUMP JUMPDEST DUP2 MSTORE PUSH1 0x20 ADD SWAP1 DUP2 MSTORE PUSH1 0x20 ADD PUSH1 0x0 KECCAK256 SLOAD SWAP4 POP SWAP4 POP SWAP4 POP SWAP4 POP SWAP1 SWAP2 SWAP3 SWAP4 JUMP JUMPDEST PUSH1 0x2 DUP3 PUSH1 0x2 DUP2 GT ISZERO PUSH2 0x443 JUMPI PUSH2 0x443 PUSH2 0xA10 JUMP JUMPDEST GT ISZERO PUSH2 0x480 JUMPI PUSH1 0x40 MLOAD PUSH3 0x461BCD PUSH1 0xE5 SHL DUP2 MSTORE PUSH1 0x20 PUSH1 0x4 DUP3 ADD MSTORE PUSH1 0xC PUSH1 0x24 DUP3 ADD MSTORE PUSH12 0x496E76616C6964206D6F6465 PUSH1 0xA0 SHL PUSH1 0x44 DUP3 ADD MSTORE PUSH1 0x64 ADD PUSH2 0x32F JUMP JUMPDEST DUP2 PUSH1 0x2 DUP2 GT ISZERO PUSH2 0x492 JUMPI PUSH2 0x492 PUSH2 0xA10 JUMP JUMPDEST PUSH1 0x40 DUP1 MLOAD DUP4 DUP2 MSTORE TIMESTAMP PUSH1 0x20 DUP3 ADD MSTORE PUSH1 0x1 PUSH1 0x1 PUSH1 0xA0 SHL SUB DUP7 AND SWAP2 PUSH32 0xA0D4582659E33EBF7E1E80B7FD9C16D821A7F74598C47A09F3B891B428E268CB SWAP2 ADD PUSH1 0x40 MLOAD DUP1 SWAP2 SUB SWAP1 LOG3 POP POP POP JUMP JUMPDEST PUSH1 0x2 DUP4 PUSH1 0x2 DUP2 GT ISZERO PUSH2 0x4EE JUMPI PUSH2 0x4EE PUSH2 0xA10 JUMP JUMPDEST GT ISZERO PUSH2 0x52B JUMPI PUSH1 0x40 MLOAD PUSH3 0x461BCD PUSH1 0xE5 SHL DUP2 MSTORE PUSH1 0x20 PUSH1 0x4 DUP3 ADD MSTORE PUSH1 0xC PUSH1 0x24 DUP3 ADD MSTORE PUSH12 0x496E76616C6964206D6F6465 PUSH1 0xA0 SHL PUSH1 0x44 DUP3 ADD MSTORE PUSH1 0x64 ADD PUSH2 0x32F JUMP JUMPDEST PUSH2 0x12C PUSH2 0x538 DUP4 TIMESTAMP PUSH2 0xA92 JUMP JUMPDEST LT PUSH2 0x579 JUMPI PUSH1 0x40 MLOAD PUSH3 0x461BCD PUSH1 0xE5 SHL DUP2 MSTORE PUSH1 0x20 PUSH1 0x4 DUP3 ADD MSTORE PUSH1 0x11 PUSH1 0x24 DUP3 ADD MSTORE PUSH17 0x14DA59DB985D1D5C9948195E1C1A5C9959 PUSH1 0x7A SHL PUSH1 0x44 DUP3 ADD MSTORE PUSH1 0x64 ADD PUSH2 0x32F JUMP JUMPDEST CALLER PUSH1 0x0 DUP2 DUP2 MSTORE PUSH1 0x5 PUSH1 0x20 MSTORE PUSH1 0x40 DUP2 KECCAK256 SLOAD SWAP1 SWAP2 PUSH2 0x598 SWAP2 DUP7 SWAP1 DUP7 SWAP1 PUSH2 0x26B JUMP JUMPDEST PUSH1 0x0 DUP2 DUP2 MSTORE PUSH1 0x3 PUSH1 0x20 MSTORE PUSH1 0x40 SWAP1 KECCAK256 SLOAD SWAP1 SWAP2 POP PUSH1 0xFF AND ISZERO PUSH2 0x5F3 JUMPI PUSH1 0x40 MLOAD PUSH3 0x461BCD PUSH1 0xE5 SHL DUP2 MSTORE PUSH1 0x20 PUSH1 0x4 DUP3 ADD MSTORE PUSH1 0x16 PUSH1 0x24 DUP3 ADD MSTORE PUSH22 0x14DA59DB985D1D5C9948185B1C9958591E481D5CD959 PUSH1 0x52 SHL PUSH1 0x44 DUP3 ADD MSTORE PUSH1 0x64 ADD PUSH2 0x32F JUMP JUMPDEST PUSH2 0x5FE DUP2 DUP4 CALLER PUSH2 0x748 JUMP JUMPDEST PUSH2 0x63E JUMPI PUSH1 0x40 MLOAD PUSH3 0x461BCD PUSH1 0xE5 SHL DUP2 MSTORE PUSH1 0x20 PUSH1 0x4 DUP3 ADD MSTORE PUSH1 0x11 PUSH1 0x24 DUP3 ADD MSTORE PUSH17 0x496E76616C6964207369676E6174757265 PUSH1 0x78 SHL PUSH1 0x44 DUP3 ADD MSTORE PUSH1 0x64 ADD PUSH2 0x32F JUMP JUMPDEST PUSH1 0x0 DUP2 DUP2 MSTORE PUSH1 0x3 PUSH1 0x20 SWAP1 DUP2 MSTORE PUSH1 0x40 DUP1 DUP4 KECCAK256 DUP1 SLOAD PUSH1 0xFF NOT AND PUSH1 0x1 OR SWAP1 SSTORE CALLER DUP4 MSTORE PUSH1 0x5 SWAP1 SWAP2 MSTORE DUP2 KECCAK256 DUP1 SLOAD SWAP2 PUSH2 0x670 DUP4 PUSH2 0xAAB JUMP JUMPDEST SWAP1 SWAP2 SSTORE POP POP CALLER PUSH1 0x0 SWAP1 DUP2 MSTORE PUSH1 0x1 PUSH1 0x20 MSTORE PUSH1 0x40 DUP2 KECCAK256 DUP1 SLOAD SWAP2 PUSH2 0x690 DUP4 PUSH2 0xAAB JUMP JUMPDEST SWAP2 SWAP1 POP SSTORE POP PUSH1 0x2 PUSH1 0x0 DUP6 PUSH1 0x2 DUP2 GT ISZERO PUSH2 0x6AB JUMPI PUSH2 0x6AB PUSH2 0xA10 JUMP JUMPDEST PUSH1 0x2 DUP2 GT ISZERO PUSH2 0x6BC JUMPI PUSH2 0x6BC PUSH2 0xA10 JUMP JUMPDEST DUP2 MSTORE PUSH1 0x20 ADD SWAP1 DUP2 MSTORE PUSH1 0x20 ADD PUSH1 0x0 KECCAK256 PUSH1 0x0 DUP2 SLOAD DUP1 SWAP3 SWAP2 SWAP1 PUSH2 0x6DB SWAP1 PUSH2 0xAAB JUMP JUMPDEST SWAP1 SWAP2 SSTORE POP POP PUSH1 0x4 DUP1 SLOAD SWAP1 PUSH1 0x0 PUSH2 0x6F0 DUP4 PUSH2 0xAAB JUMP JUMPDEST SWAP2 SWAP1 POP SSTORE POP DUP4 PUSH1 0x2 DUP2 GT ISZERO PUSH2 0x707 JUMPI PUSH2 0x707 PUSH2 0xA10 JUMP JUMPDEST PUSH1 0x40 DUP1 MLOAD TIMESTAMP DUP2 MSTORE PUSH1 0x20 DUP2 ADD DUP5 SWAP1 MSTORE CALLER SWAP2 PUSH32 0xCF9677B104BEFBD3542FA394CA03A2BB35D886AE1F10940FA87ED921BAC89861 SWAP2 ADD PUSH1 0x40 MLOAD DUP1 SWAP2 SUB SWAP1 LOG3 POP POP POP POP JUMP JUMPDEST PUSH1 0x0 DUP1 PUSH1 0x0 DUP1 DUP6 MLOAD PUSH1 0x41 EQ PUSH2 0x763 JUMPI PUSH1 0x0 SWAP4 POP POP POP POP PUSH2 0x830 JUMP JUMPDEST POP POP POP PUSH1 0x20 DUP4 ADD MLOAD PUSH1 0x40 DUP5 ADD MLOAD PUSH1 0x60 DUP6 ADD MLOAD PUSH1 0x0 BYTE PUSH1 0x1B DUP2 LT ISZERO PUSH2 0x78F JUMPI PUSH2 0x78C PUSH1 0x1B DUP3 PUSH2 0xAC4 JUMP JUMPDEST SWAP1 POP JUMPDEST DUP1 PUSH1 0xFF AND PUSH1 0x1B EQ ISZERO DUP1 ISZERO PUSH2 0x7A7 JUMPI POP DUP1 PUSH1 0xFF AND PUSH1 0x1C EQ ISZERO JUMPDEST ISZERO PUSH2 0x7B8 JUMPI PUSH1 0x0 SWAP4 POP POP POP POP PUSH2 0x830 JUMP JUMPDEST PUSH1 0x40 DUP1 MLOAD PUSH1 0x0 DUP2 MSTORE PUSH1 0x20 DUP2 ADD DUP1 DUP4 MSTORE DUP10 SWAP1 MSTORE PUSH1 0xFF DUP4 AND SWAP2 DUP2 ADD SWAP2 SWAP1 SWAP2 MSTORE PUSH1 0x60 DUP2 ADD DUP5 SWAP1 MSTORE PUSH1 0x80 DUP2 ADD DUP4 SWAP1 MSTORE PUSH1 0x1 PUSH1 0x1 PUSH1 0xA0 SHL SUB DUP7 AND SWAP1 PUSH1 0x1 SWAP1 PUSH1 0xA0 ADD PUSH1 0x20 PUSH1 0x40 MLOAD PUSH1 0x20 DUP2 SUB SWAP1 DUP1 DUP5 SUB SWAP1 DUP6 GAS STATICCALL ISZERO DUP1 ISZERO PUSH2 0x816 JUMPI RETURNDATASIZE PUSH1 0x0 DUP1 RETURNDATACOPY RETURNDATASIZE PUSH1 0x0 REVERT JUMPDEST POP POP POP PUSH1 0x20 PUSH1 0x40 MLOAD SUB MLOAD PUSH1 0x1 PUSH1 0x1 PUSH1 0xA0 SHL SUB AND EQ SWAP4 POP POP POP POP JUMPDEST SWAP4 SWAP3 POP POP POP JUMP JUMPDEST DUP1 CALLDATALOAD PUSH1 0x1 PUSH1 0x1 PUSH1 0xA0 SHL SUB DUP2 AND DUP2 EQ PUSH2 0x84E JUMPI PUSH1 0x0 DUP1 REVERT JUMPDEST SWAP2 SWAP1 POP JUMP JUMPDEST PUSH1 0x0 PUSH1 0x20 DUP3 DUP5 SUB SLT ISZERO PUSH2 0x865 JUMPI PUSH1 0x0 DUP1 REVERT JUMPDEST PUSH2 0x830 DUP3 PUSH2 0x837 JUMP JUMPDEST DUP1 CALLDATALOAD PUSH1 0x3 DUP2 LT PUSH2 0x84E JUMPI PUSH1 0x0 DUP1 REVERT JUMPDEST PUSH1 0x0 DUP1 PUSH1 0x0 DUP1 PUSH1 0x80 DUP6 DUP8 SUB SLT ISZERO PUSH2 0x893 JUMPI PUSH1 0x0 DUP1 REVERT JUMPDEST PUSH2 0x89C DUP6 PUSH2 0x837 JUMP JUMPDEST SWAP4 POP PUSH2 0x8AA PUSH1 0x20 DUP7 ADD PUSH2 0x86E JUMP JUMPDEST SWAP4 SWAP7 SWAP4 SWAP6 POP POP POP POP PUSH1 0x40 DUP3 ADD CALLDATALOAD SWAP2 PUSH1 0x60 ADD CALLDATALOAD SWAP1 JUMP JUMPDEST PUSH1 0x0 DUP1 PUSH1 0x0 PUSH1 0x60 DUP5 DUP7 SUB SLT ISZERO PUSH2 0x8D4 JUMPI PUSH1 0x0 DUP1 REVERT JUMPDEST PUSH2 0x8DD DUP5 PUSH2 0x837 JUMP JUMPDEST SWAP3 POP PUSH2 0x8EB PUSH1 0x20 DUP6 ADD PUSH2 0x86E JUMP JUMPDEST SWAP2 POP PUSH1 0x40 DUP5 ADD CALLDATALOAD SWAP1 POP SWAP3 POP SWAP3 POP SWAP3 JUMP JUMPDEST PUSH1 0x0 PUSH1 0x20 DUP3 DUP5 SUB SLT ISZERO PUSH2 0x90D JUMPI PUSH1 0x0 DUP1 REVERT JUMPDEST PUSH2 0x830 DUP3 PUSH2 0x86E JUMP JUMPDEST PUSH4 0x4E487B71 PUSH1 0xE0 SHL PUSH1 0x0 MSTORE PUSH1 0x41 PUSH1 0x4 MSTORE PUSH1 0x24 PUSH1 0x0 REVERT JUMPDEST PUSH1 0x0 DUP1 PUSH1 0x0 PUSH1 0x60 DUP5 DUP7 SUB SLT ISZERO PUSH2 0x941 JUMPI PUSH1 0x0 DUP1 REVERT JUMPDEST PUSH2 0x94A DUP5 PUSH2 0x86E JUMP JUMPDEST SWAP3 POP PUSH1 0x20 DUP5 ADD CALLDATALOAD SWAP2 POP PUSH1 0x40 DUP5 ADD CALLDATALOAD PUSH8 0xFFFFFFFFFFFFFFFF DUP1 DUP3 GT ISZERO PUSH2 0x96E JUMPI PUSH1 0x0 DUP1 REVERT JUMPDEST DUP2 DUP7 ADD SWAP2 POP DUP7 PUSH1 0x1F DUP4 ADD SLT PUSH2 0x982 JUMPI PUSH1 0x0 DUP1 REVERT JUMPDEST DUP2 CALLDATALOAD DUP2 DUP2 GT ISZERO PUSH2 0x994 JUMPI PUSH2 0x994 PUSH2 0x916 JUMP JUMPDEST PUSH1 0x40 MLOAD PUSH1 0x1F DUP3 ADD PUSH1 0x1F NOT SWAP1 DUP2 AND PUSH1 0x3F ADD AND DUP2 ADD SWAP1 DUP4 DUP3 GT DUP2 DUP4 LT OR ISZERO PUSH2 0x9BC JUMPI PUSH2 0x9BC PUSH2 0x916 JUMP JUMPDEST DUP2 PUSH1 0x40 MSTORE DUP3 DUP2 MSTORE DUP10 PUSH1 0x20 DUP5 DUP8 ADD ADD GT ISZERO PUSH2 0x9D5 JUMPI PUSH1 0x0 DUP1 REVERT JUMPDEST DUP3 PUSH1 0x20 DUP7 ADD PUSH1 0x20 DUP4 ADD CALLDATACOPY PUSH1 0x0 PUSH1 0x20 DUP5 DUP4 ADD ADD MSTORE DUP1 SWAP6 POP POP POP POP POP POP SWAP3 POP SWAP3 POP SWAP3 JUMP JUMPDEST PUSH1 0x0 PUSH1 0x20 DUP3 DUP5 SUB SLT ISZERO PUSH2 0xA09 JUMPI PUSH1 0x0 DUP1 REVERT JUMPDEST POP CALLDATALOAD SWAP2 SWAP1 POP JUMP JUMPDEST PUSH4 0x4E487B71 PUSH1 0xE0 SHL PUSH1 0x0 MSTORE PUSH1 0x21 PUSH1 0x4 MSTORE PUSH1 0x24 PUSH1 0x0 REVERT JUMPDEST PUSH12 0xFFFFFFFFFFFFFFFFFFFFFFFF NOT DUP6 PUSH1 0x60 SHL AND DUP2 MSTORE PUSH1 0x0 PUSH1 0x3 DUP6 LT PUSH2 0xA5B JUMPI PUSH4 0x4E487B71 PUSH1 0xE0 SHL PUSH1 0x0 MSTORE PUSH1 0x21 PUSH1 0x4 MSTORE PUSH1 0x24 PUSH1 0x0 REVERT JUMPDEST POP PUSH1 0xF8 SWAP4 SWAP1 SWAP4 SHL PUSH1 0x14 DUP5 ADD MSTORE PUSH1 0x15 DUP4 ADD SWAP2 SWAP1 SWAP2 MSTORE PUSH1 0x35 DUP3 ADD MSTORE PUSH1 0x55 ADD SWAP2 SWAP1 POP JUMP JUMPDEST PUSH4 0x4E487B71 PUSH1 0xE0 SHL PUSH1 0x0 MSTORE PUSH1 0x11 PUSH1 0x4 MSTORE PUSH1 0x24 PUSH1 0x0 REVERT JUMPDEST DUP2 DUP2 SUB DUP2 DUP2 GT ISZERO PUSH2 0xAA5 JUMPI PUSH2 0xAA5 PUSH2 0xA7C JUMP JUMPDEST SWAP3 SWAP2 POP POP JUMP JUMPDEST PUSH1 0x0 PUSH1 0x1 DUP3 ADD PUSH2 0xABD JUMPI PUSH2 0xABD PUSH2 0xA7C JUMP JUMPDEST POP PUSH1 0x1 ADD SWAP1 JUMP JUMPDEST PUSH1 0xFF DUP2 DUP2 AND DUP4 DUP3 AND ADD SWAP1 DUP2 GT ISZERO PUSH2 0xAA5 JUMPI PUSH2 0xAA5 PUSH2 0xA7C JUMP INVALID LOG2 PUSH5 0x6970667358 0x22 SLT KECCAK256 SWAP2 0x4B 0xE 0xED SWAP14 0xE7 PUSH23 0x745594319C0593CC3D33B36B78642B2CEEC74FA353EB62 0x4F ISZERO PUSH5 0x736F6C6343 STOP ADDMOD SGT STOP CALLER "},"methodIdentifiers":{"getMessageHash(address,uint8,uint256,uint256)":"39671eb6","getStats()":"c59d4847","getUserNonce(address)":"6834e3a8","getUserQuizCount(address)":"2cc71fc1","modeCount(uint8)":"db9eb611","owner()":"8da5cb5b","recordQuizCompletion(address,uint8,uint256)":"ce832a7b","startQuizWithSignature(uint8,uint256,bytes)":"e313c00f","totalQuizzes()":"316701c2","usedSignatures(bytes32)":"f978fd61","userNonce(address)":"2e04b8e7","userQuizCount(address)":"0db2e7d0","withdraw()":"3ccfd60b"}}}}}