{
  "_format": "hh-sol-artifact-1",
  "contractName": "QuizTriviaSignature",
  "sourceName": "contracts/QuizTriviaEntry-Fixed.sol",
  "abi": [
    {
      "inputs": [],
      "stateMutability": "nonpayable",
      "type": "constructor"
    },
    {
      "anonymous": false,
      "inputs": [
        {
          "indexed": true,
          "internalType": "address",
          "name": "user",
          "type": "address"
        },
        {
          "indexed": true,
          "internalType": "uint256",
          "name": "mode",
          "type": "uint256"
        },
        {
          "indexed": false,
          "internalType": "uint256",
          "name": "score",
          "type": "uint256"
        },
        {
          "indexed": false,
          "internalType": "uint256",
          "name": "timestamp",
          "type": "uint256"
        }
      ],
      "name": "QuizCompleted",
      "type": "event"
    },
    {
      "anonymous": false,
      "inputs": [
        {
          "indexed": true,
          "internalType": "address",
          "name": "user",
          "type": "address"
        },
        {
          "indexed": true,
          "internalType": "uint256",
          "name": "mode",
          "type": "uint256"
        },
        {
          "indexed": false,
          "internalType": "uint256",
          "name": "timestamp",
          "type": "uint256"
        },
        {
          "indexed": false,
          "internalType": "bytes32",
          "name": "signatureHash",
          "type": "bytes32"
        }
      ],
      "name": "QuizStarted",
      "type": "event"
    },
    {
      "inputs": [
        {
          "internalType": "bytes32",
          "name": "messageHash",
          "type": "bytes32"
        }
      ],
      "name": "getEthSignedMessageHash",
      "outputs": [
        {
          "internalType": "bytes32",
          "name": "",
          "type": "bytes32"
        }
      ],
      "stateMutability": "pure",
      "type": "function"
    },
    {
      "inputs": [
        {
          "internalType": "address",
          "name": "user",
          "type": "address"
        },
        {
          "internalType": "enum QuizTriviaSignature.QuizMode",
          "name": "mode",
          "type": "uint8"
        },
        {
          "internalType": "uint256",
          "name": "timestamp",
          "type": "uint256"
        },
        {
          "internalType": "uint256",
          "name": "nonce",
          "type": "uint256"
        }
      ],
      "name": "getMessageHash",
      "outputs": [
        {
          "internalType": "bytes32",
          "name": "",
          "type": "bytes32"
        }
      ],
      "stateMutability": "pure",
      "type": "function"
    },
    {
      "inputs": [],
      "name": "getStats",
      "outputs": [
        {
          "internalType": "uint256",
          "name": "total",
          "type": "uint256"
        },
        {
          "internalType": "uint256",
          "name": "classic",
          "type": "uint256"
        },
        {
          "internalType": "uint256",
          "name": "time",
          "type": "uint256"
        },
        {
          "internalType": "uint256",
          "name": "challenge",
          "type": "uint256"
        }
      ],
      "stateMutability": "view",
      "type": "function"
    },
    {
      "inputs": [
        {
          "internalType": "address",
          "name": "user",
          "type": "address"
        }
      ],
      "name": "getUserNonce",
      "outputs": [
        {
          "internalType": "uint256",
          "name": "",
          "type": "uint256"
        }
      ],
      "stateMutability": "view",
      "type": "function"
    },
    {
      "inputs": [
        {
          "internalType": "address",
          "name": "user",
          "type": "address"
        }
      ],
      "name": "getUserQuizCount",
      "outputs": [
        {
          "internalType": "uint256",
          "name": "",
          "type": "uint256"
        }
      ],
      "stateMutability": "view",
      "type": "function"
    },
    {
      "inputs": [
        {
          "internalType": "enum QuizTriviaSignature.QuizMode",
          "name": "",
          "type": "uint8"
        }
      ],
      "name": "modeCount",
      "outputs": [
        {
          "internalType": "uint256",
          "name": "",
          "type": "uint256"
        }
      ],
      "stateMutability": "view",
      "type": "function"
    },
    {
      "inputs": [],
      "name": "owner",
      "outputs": [
        {
          "internalType": "address",
          "name": "",
          "type": "address"
        }
      ],
      "stateMutability": "view",
      "type": "function"
    },
    {
      "inputs": [
        {
          "internalType": "address",
          "name": "user",
          "type": "address"
        },
        {
          "internalType": "enum QuizTriviaSignature.QuizMode",
          "name": "mode",
          "type": "uint8"
        },
        {
          "internalType": "uint256",
          "name": "score",
          "type": "uint256"
        }
      ],
      "name": "recordQuizCompletion",
      "outputs": [],
      "stateMutability": "nonpayable",
      "type": "function"
    },
    {
      "inputs": [
        {
          "internalType": "bytes32",
          "name": "messageHash",
          "type": "bytes32"
        },
        {
          "internalType": "bytes",
          "name": "signature",
          "type": "bytes"
        }
      ],
      "name": "recoverSigner",
      "outputs": [
        {
          "internalType": "address",
          "name": "",
          "type": "address"
        }
      ],
      "stateMutability": "pure",
      "type": "function"
    },
    {
      "inputs": [
        {
          "internalType": "bytes32",
          "name": "messageHash",
          "type": "bytes32"
        },
        {
          "internalType": "bytes",
          "name": "signature",
          "type": "bytes"
        }
      ],
      "name": "recoverSignerFlexible",
      "outputs": [
        {
          "internalType": "address",
          "name": "",
          "type": "address"
        }
      ],
      "stateMutability": "pure",
      "type": "function"
    },
    {
      "inputs": [
        {
          "internalType": "enum QuizTriviaSignature.QuizMode",
          "name": "mode",
          "type": "uint8"
        },
        {
          "internalType": "uint256",
          "name": "timestamp",
          "type": "uint256"
        },
        {
          "internalType": "bytes",
          "name": "signature",
          "type": "bytes"
        }
      ],
      "name": "startQuizWithSignature",
      "outputs": [],
      "stateMutability": "nonpayable",
      "type": "function"
    },
    {
      "inputs": [],
      "name": "totalQuizzes",
      "outputs": [
        {
          "internalType": "uint256",
          "name": "",
          "type": "uint256"
        }
      ],
      "stateMutability": "view",
      "type": "function"
    },
    {
      "inputs": [
        {
          "internalType": "bytes32",
          "name": "",
          "type": "bytes32"
        }
      ],
      "name": "usedSignatures",
      "outputs": [
        {
          "internalType": "bool",
          "name": "",
          "type": "bool"
        }
      ],
      "stateMutability": "view",
      "type": "function"
    },
    {
      "inputs": [
        {
          "internalType": "address",
          "name": "",
          "type": "address"
        }
      ],
      "name": "userNonce",
      "outputs": [
        {
          "internalType": "uint256",
          "name": "",
          "type": "uint256"
        }
      ],
      "stateMutability": "view",
      "type": "function"
    },
    {
      "inputs": [
        {
          "internalType": "address",
          "name": "",
          "type": "address"
        }
      ],
      "name": "userQuizCount",
      "outputs": [
        {
          "internalType": "uint256",
          "name": "",
          "type": "uint256"
        }
      ],
      "stateMutability": "view",
      "type": "function"
    },
    {
      "inputs": [
        {
          "internalType": "address",
          "name": "user",
          "type": "address"
        },
        {
          "internalType": "enum QuizTriviaSignature.QuizMode",
          "name": "mode",
          "type": "uint8"
        },
        {
          "internalType": "uint256",
          "name": "timestamp",
          "type": "uint256"
        },
        {
          "internalType": "uint256",
          "name": "nonce",
          "type": "uint256"
        },
        {
          "internalType": "bytes",
          "name": "signature",
          "type": "bytes"
        }
      ],
      "name": "verifySignature",
      "outputs": [
        {
          "internalType": "bool",
          "name": "",
          "type": "bool"
        }
      ],
      "stateMutability": "pure",
      "type": "function"
    },
    {
      "inputs": [],
      "name": "withdraw",
      "outputs": [],
      "stateMutability": "nonpayable",
      "type": "function"
    }
  ],
  "bytecode": "0x608060405234801561001057600080fd5b50600080546001600160a01b03191633179055610f3c806100326000396000f3fe608060405234801561001057600080fd5b506004361061010b5760003560e01c8063959208f0116100a2578063ce832a7b11610071578063ce832a7b14610277578063db9eb6111461028a578063e313c00f146102aa578063f978fd61146102bd578063fa540801146102e057600080fd5b8063959208f01461020657806397aba7f914610219578063bc5021791461022c578063c59d48471461024f57600080fd5b806339671eb6116100de57806339671eb6146101955780633ccfd60b146101a85780636834e3a8146101b25780638da5cb5b146101db57600080fd5b80630db2e7d0146101105780632cc71fc1146101435780632e04b8e71461016c578063316701c21461018c575b600080fd5b61013061011e366004610ba9565b60016020526000908152604090205481565b6040519081526020015b60405180910390f35b610130610151366004610ba9565b6001600160a01b031660009081526001602052604090205490565b61013061017a366004610ba9565b60056020526000908152604090205481565b61013060045481565b6101306101a3366004610bda565b6102f3565b6101b061032c565b005b6101306101c0366004610ba9565b6001600160a01b031660009081526005602052604090205490565b6000546101ee906001600160a01b031681565b6040516001600160a01b03909116815260200161013a565b6101ee610214366004610cbf565b6103b4565b6101ee610227366004610cbf565b6105d3565b61023f61023a366004610d06565b61071e565b604051901515815260200161013a565b610257610757565b60408051948552602085019390935291830152606082015260800161013a565b6101b0610285366004610d78565b610811565b610130610298366004610db4565b60026020526000908152604090205481565b6101b06102b8366004610dcf565b6108bc565b61023f6102cb366004610e26565b60036020526000908152604090205460ff1681565b6101306102ee366004610e26565b610b3a565b60008484848460405160200161030c9493929190610e55565b604051602081830303815290604052805190602001209050949350505050565b6000546001600160a01b031633146103775760405162461bcd60e51b81526020600482015260096024820152682737ba1037bbb732b960b91b60448201526064015b60405180910390fd5b600080546040516001600160a01b03909116914780156108fc02929091818181858888f193505050501580156103b1573d6000803e3d6000fd5b50565b600081516041146104025760405162461bcd60e51b8152602060048201526018602482015277092dcecc2d8d2c840e6d2cedcc2e8eae4ca40d8cadccee8d60431b604482015260640161036e565b60208201516040830151606084015160001a601b81101561042b57610428601b82610ec1565b90505b8060ff16601b148061044057508060ff16601c145b6104885760405162461bcd60e51b8152602060048201526019602482015278496e76616c6964207369676e617475726520762076616c756560381b604482015260640161036e565b600061049387610b3a565b6040805160008082526020820180845284905260ff86169282019290925260608101879052608081018690529192509060019060a0016020604051602081039080840390855afa1580156104eb573d6000803e3d6000fd5b505060408051601f198101516000808352602083018085528d905260ff8816938301939093526060820189905260808201889052935090915060019060a0016020604051602081039080840390855afa15801561054c573d6000803e3d6000fd5b5050604051601f1901519150506001600160a01b03821615610575575094506105cd9350505050565b6001600160a01b038116156105915795506105cd945050505050565b60405162461bcd60e51b8152602060048201526011602482015270496e76616c6964207369676e617475726560781b604482015260640161036e565b92915050565b600081516041146106215760405162461bcd60e51b8152602060048201526018602482015277092dcecc2d8d2c840e6d2cedcc2e8eae4ca40d8cadccee8d60431b604482015260640161036e565b60208201516040830151606084015160001a601b81101561064a57610647601b82610ec1565b90505b8060ff16601b148061065f57508060ff16601c145b6106a75760405162461bcd60e51b8152602060048201526019602482015278496e76616c6964207369676e617475726520762076616c756560381b604482015260640161036e565b60006106b287610b3a565b60408051600081526020810180835283905260ff851691810191909152606081018690526080810185905290915060019060a0016020604051602081039080840390855afa158015610708573d6000803e3d6000fd5b5050604051601f19015198975050505050505050565b60008061072d878787876102f3565b9050600061073b82856103b4565b6001600160a01b03908116908916149250505095945050505050565b6000806000806004546002600080600281111561077657610776610e3f565b600281111561078757610787610e3f565b81526020019081526020016000205460026000600160028111156107ad576107ad610e3f565b60028111156107be576107be610e3f565b815260200190815260200160002054600260006002808111156107e3576107e3610e3f565b60028111156107f4576107f4610e3f565b815260200190815260200160002054935093509350935090919293565b600282600281111561082557610825610e3f565b11156108625760405162461bcd60e51b815260206004820152600c60248201526b496e76616c6964206d6f646560a01b604482015260640161036e565b81600281111561087457610874610e3f565b604080518381524260208201526001600160a01b038616917fa0d4582659e33ebf7e1e80b7fd9c16d821a7f74598c47a09f3b891b428e268cb910160405180910390a3505050565b60028360028111156108d0576108d0610e3f565b111561090d5760405162461bcd60e51b815260206004820152600c60248201526b496e76616c6964206d6f646560a01b604482015260640161036e565b61012c61091a8342610eda565b1061095b5760405162461bcd60e51b815260206004820152601160248201527014da59db985d1d5c9948195e1c1a5c9959607a1b604482015260640161036e565b33600081815260056020526040812054909161097a91869086906102f3565b60008181526003602052604090205490915060ff16156109d55760405162461bcd60e51b815260206004820152601660248201527514da59db985d1d5c9948185b1c9958591e481d5cd95960521b604482015260640161036e565b60006109e182846103b4565b90506001600160a01b0381163314610a2f5760405162461bcd60e51b8152602060048201526011602482015270496e76616c6964207369676e617475726560781b604482015260640161036e565b6000828152600360209081526040808320805460ff1916600117905533835260059091528120805491610a6183610eed565b9091555050336000908152600160205260408120805491610a8183610eed565b919050555060026000866002811115610a9c57610a9c610e3f565b6002811115610aad57610aad610e3f565b81526020019081526020016000206000815480929190610acc90610eed565b909155505060048054906000610ae183610eed565b9190505550846002811115610af857610af8610e3f565b604080514281526020810185905233917fcf9677b104befbd3542fa394ca03a2bb35d886ae1f10940fa87ed921bac89861910160405180910390a35050505050565b6040517f19457468657265756d205369676e6564204d6573736167653a0a3332000000006020820152603c8101829052600090605c01604051602081830303815290604052805190602001209050919050565b80356001600160a01b0381168114610ba457600080fd5b919050565b600060208284031215610bbb57600080fd5b610bc482610b8d565b9392505050565b803560038110610ba457600080fd5b60008060008060808587031215610bf057600080fd5b610bf985610b8d565b9350610c0760208601610bcb565b93969395505050506040820135916060013590565b634e487b7160e01b600052604160045260246000fd5b600082601f830112610c4357600080fd5b813567ffffffffffffffff80821115610c5e57610c5e610c1c565b604051601f8301601f19908116603f01168101908282118183101715610c8657610c86610c1c565b81604052838152866020858801011115610c9f57600080fd5b836020870160208301376000602085830101528094505050505092915050565b60008060408385031215610cd257600080fd5b82359150602083013567ffffffffffffffff811115610cf057600080fd5b610cfc85828601610c32565b9150509250929050565b600080600080600060a08688031215610d1e57600080fd5b610d2786610b8d565b9450610d3560208701610bcb565b93506040860135925060608601359150608086013567ffffffffffffffff811115610d5f57600080fd5b610d6b88828901610c32565b9150509295509295909350565b600080600060608486031215610d8d57600080fd5b610d9684610b8d565b9250610da460208501610bcb565b9150604084013590509250925092565b600060208284031215610dc657600080fd5b610bc482610bcb565b600080600060608486031215610de457600080fd5b610ded84610bcb565b925060208401359150604084013567ffffffffffffffff811115610e1057600080fd5b610e1c86828701610c32565b9150509250925092565b600060208284031215610e3857600080fd5b5035919050565b634e487b7160e01b600052602160045260246000fd5b6bffffffffffffffffffffffff198560601b168152600060038510610e8a57634e487b7160e01b600052602160045260246000fd5b5060f89390931b601484015260158301919091526035820152605501919050565b634e487b7160e01b600052601160045260246000fd5b60ff81811683821601908111156105cd576105cd610eab565b818103818111156105cd576105cd610eab565b600060018201610eff57610eff610eab565b506001019056fea264697066735822122081796e33aeb873854ef49b565d05f47a4a05a95005575a62c94b99eaaed5342d64736f6c63430008130033",
  "linkReferences": {},
  "deployedLinkReferences": {}
}