{
  "_format": "hh-sol-artifact-1",
  "contractName": "BetModeVault",
  "sourceName": "contracts/BetModeVault.sol",
  "abi": [
    {
      "inputs": [
        {
          "internalType": "address",
          "name": "_qtToken",
          "type": "address"
        },
        {
          "internalType": "address",
          "name": "_adminSigner",
          "type": "address"
        }
      ],
      "stateMutability": "nonpayable",
      "type": "constructor"
    },
    {
      "inputs": [],
      "name": "ECDSAInvalidSignature",
      "type": "error"
    },
    {
      "inputs": [
        {
          "internalType": "uint256",
          "name": "length",
          "type": "uint256"
        }
      ],
      "name": "ECDSAInvalidSignatureLength",
      "type": "error"
    },
    {
      "inputs": [
        {
          "internalType": "bytes32",
          "name": "s",
          "type": "bytes32"
        }
      ],
      "name": "ECDSAInvalidSignatureS",
      "type": "error"
    },
    {
      "inputs": [],
      "name": "EnforcedPause",
      "type": "error"
    },
    {
      "inputs": [],
      "name": "ExpectedPause",
      "type": "error"
    },
    {
      "inputs": [],
      "name": "InsufficientAmount",
      "type": "error"
    },
    {
      "inputs": [],
      "name": "InsufficientContractBalance",
      "type": "error"
    },
    {
      "inputs": [],
      "name": "InsufficientUserBalance",
      "type": "error"
    },
    {
      "inputs": [],
      "name": "InvalidAddress",
      "type": "error"
    },
    {
      "inputs": [],
      "name": "InvalidNonce",
      "type": "error"
    },
    {
      "inputs": [],
      "name": "InvalidSignature",
      "type": "error"
    },
    {
      "inputs": [
        {
          "internalType": "address",
          "name": "owner",
          "type": "address"
        }
      ],
      "name": "OwnableInvalidOwner",
      "type": "error"
    },
    {
      "inputs": [
        {
          "internalType": "address",
          "name": "account",
          "type": "address"
        }
      ],
      "name": "OwnableUnauthorizedAccount",
      "type": "error"
    },
    {
      "inputs": [],
      "name": "ReentrancyGuardReentrantCall",
      "type": "error"
    },
    {
      "inputs": [
        {
          "internalType": "address",
          "name": "token",
          "type": "address"
        }
      ],
      "name": "SafeERC20FailedOperation",
      "type": "error"
    },
    {
      "inputs": [],
      "name": "TransferFailed",
      "type": "error"
    },
    {
      "anonymous": false,
      "inputs": [
        {
          "indexed": true,
          "internalType": "address",
          "name": "oldSigner",
          "type": "address"
        },
        {
          "indexed": true,
          "internalType": "address",
          "name": "newSigner",
          "type": "address"
        }
      ],
      "name": "AdminSignerUpdated",
      "type": "event"
    },
    {
      "anonymous": false,
      "inputs": [
        {
          "indexed": true,
          "internalType": "address",
          "name": "user",
          "type": "address"
        },
        {
          "indexed": false,
          "internalType": "uint256",
          "name": "oldBalance",
          "type": "uint256"
        },
        {
          "indexed": false,
          "internalType": "uint256",
          "name": "newBalance",
          "type": "uint256"
        },
        {
          "indexed": false,
          "internalType": "uint256",
          "name": "timestamp",
          "type": "uint256"
        }
      ],
      "name": "BalanceAdjusted",
      "type": "event"
    },
    {
      "anonymous": false,
      "inputs": [
        {
          "indexed": true,
          "internalType": "address",
          "name": "user",
          "type": "address"
        },
        {
          "indexed": false,
          "internalType": "uint256",
          "name": "amount",
          "type": "uint256"
        },
        {
          "indexed": false,
          "internalType": "uint256",
          "name": "newBalance",
          "type": "uint256"
        },
        {
          "indexed": false,
          "internalType": "uint256",
          "name": "timestamp",
          "type": "uint256"
        }
      ],
      "name": "Deposited",
      "type": "event"
    },
    {
      "anonymous": false,
      "inputs": [
        {
          "indexed": true,
          "internalType": "address",
          "name": "admin",
          "type": "address"
        },
        {
          "indexed": false,
          "internalType": "uint256",
          "name": "amount",
          "type": "uint256"
        },
        {
          "indexed": false,
          "internalType": "uint256",
          "name": "timestamp",
          "type": "uint256"
        }
      ],
      "name": "EmergencyWithdrawal",
      "type": "event"
    },
    {
      "anonymous": false,
      "inputs": [
        {
          "indexed": true,
          "internalType": "address",
          "name": "user",
          "type": "address"
        },
        {
          "indexed": false,
          "internalType": "uint256",
          "name": "amount",
          "type": "uint256"
        },
        {
          "indexed": false,
          "internalType": "uint256",
          "name": "newBalance",
          "type": "uint256"
        },
        {
          "indexed": false,
          "internalType": "uint256",
          "name": "timestamp",
          "type": "uint256"
        }
      ],
      "name": "LossDebited",
      "type": "event"
    },
    {
      "anonymous": false,
      "inputs": [
        {
          "indexed": true,
          "internalType": "address",
          "name": "owner",
          "type": "address"
        },
        {
          "indexed": false,
          "internalType": "uint256",
          "name": "amount",
          "type": "uint256"
        },
        {
          "indexed": false,
          "internalType": "uint256",
          "name": "remainingBalance",
          "type": "uint256"
        },
        {
          "indexed": false,
          "internalType": "uint256",
          "name": "timestamp",
          "type": "uint256"
        }
      ],
      "name": "OwnerWithdrawal",
      "type": "event"
    },
    {
      "anonymous": false,
      "inputs": [
        {
          "indexed": true,
          "internalType": "address",
          "name": "previousOwner",
          "type": "address"
        },
        {
          "indexed": true,
          "internalType": "address",
          "name": "newOwner",
          "type": "address"
        }
      ],
      "name": "OwnershipTransferred",
      "type": "event"
    },
    {
      "anonymous": false,
      "inputs": [
        {
          "indexed": false,
          "internalType": "address",
          "name": "account",
          "type": "address"
        }
      ],
      "name": "Paused",
      "type": "event"
    },
    {
      "anonymous": false,
      "inputs": [
        {
          "indexed": false,
          "internalType": "address",
          "name": "account",
          "type": "address"
        }
      ],
      "name": "Unpaused",
      "type": "event"
    },
    {
      "anonymous": false,
      "inputs": [
        {
          "indexed": true,
          "internalType": "address",
          "name": "user",
          "type": "address"
        },
        {
          "indexed": false,
          "internalType": "uint256",
          "name": "amount",
          "type": "uint256"
        },
        {
          "indexed": false,
          "internalType": "uint256",
          "name": "newBalance",
          "type": "uint256"
        },
        {
          "indexed": false,
          "internalType": "uint256",
          "name": "timestamp",
          "type": "uint256"
        }
      ],
      "name": "WinningsCredited",
      "type": "event"
    },
    {
      "anonymous": false,
      "inputs": [
        {
          "indexed": true,
          "internalType": "address",
          "name": "user",
          "type": "address"
        },
        {
          "indexed": false,
          "internalType": "uint256",
          "name": "amount",
          "type": "uint256"
        },
        {
          "indexed": false,
          "internalType": "uint256",
          "name": "newBalance",
          "type": "uint256"
        },
        {
          "indexed": false,
          "internalType": "uint256",
          "name": "nonce",
          "type": "uint256"
        },
        {
          "indexed": false,
          "internalType": "uint256",
          "name": "timestamp",
          "type": "uint256"
        }
      ],
      "name": "Withdrawn",
      "type": "event"
    },
    {
      "inputs": [],
      "name": "MIN_DEPOSIT",
      "outputs": [
        {
          "internalType": "uint256",
          "name": "",
          "type": "uint256"
        }
      ],
      "stateMutability": "view",
      "type": "function"
    },
    {
      "inputs": [],
      "name": "MIN_WITHDRAWAL",
      "outputs": [
        {
          "internalType": "uint256",
          "name": "",
          "type": "uint256"
        }
      ],
      "stateMutability": "view",
      "type": "function"
    },
    {
      "inputs": [
        {
          "internalType": "address",
          "name": "user",
          "type": "address"
        },
        {
          "internalType": "uint256",
          "name": "newBalance",
          "type": "uint256"
        }
      ],
      "name": "adjustBalance",
      "outputs": [],
      "stateMutability": "nonpayable",
      "type": "function"
    },
    {
      "inputs": [],
      "name": "adminSigner",
      "outputs": [
        {
          "internalType": "address",
          "name": "",
          "type": "address"
        }
      ],
      "stateMutability": "view",
      "type": "function"
    },
    {
      "inputs": [],
      "name": "checkBalanceIntegrity",
      "outputs": [
        {
          "internalType": "bool",
          "name": "balanced",
          "type": "bool"
        },
        {
          "internalType": "uint256",
          "name": "contractBal",
          "type": "uint256"
        },
        {
          "internalType": "uint256",
          "name": "userBal",
          "type": "uint256"
        }
      ],
      "stateMutability": "view",
      "type": "function"
    },
    {
      "inputs": [
        {
          "internalType": "address",
          "name": "user",
          "type": "address"
        },
        {
          "internalType": "uint256",
          "name": "amount",
          "type": "uint256"
        }
      ],
      "name": "creditWinnings",
      "outputs": [],
      "stateMutability": "nonpayable",
      "type": "function"
    },
    {
      "inputs": [
        {
          "internalType": "address",
          "name": "user",
          "type": "address"
        },
        {
          "internalType": "uint256",
          "name": "amount",
          "type": "uint256"
        }
      ],
      "name": "debitLoss",
      "outputs": [],
      "stateMutability": "nonpayable",
      "type": "function"
    },
    {
      "inputs": [
        {
          "internalType": "uint256",
          "name": "amount",
          "type": "uint256"
        }
      ],
      "name": "deposit",
      "outputs": [],
      "stateMutability": "nonpayable",
      "type": "function"
    },
    {
      "inputs": [
        {
          "internalType": "uint256",
          "name": "amount",
          "type": "uint256"
        }
      ],
      "name": "emergencyWithdraw",
      "outputs": [],
      "stateMutability": "nonpayable",
      "type": "function"
    },
    {
      "inputs": [
        {
          "internalType": "address",
          "name": "user",
          "type": "address"
        }
      ],
      "name": "getBalance",
      "outputs": [
        {
          "internalType": "uint256",
          "name": "",
          "type": "uint256"
        }
      ],
      "stateMutability": "view",
      "type": "function"
    },
    {
      "inputs": [],
      "name": "getContractBalance",
      "outputs": [
        {
          "internalType": "uint256",
          "name": "",
          "type": "uint256"
        }
      ],
      "stateMutability": "view",
      "type": "function"
    },
    {
      "inputs": [],
      "name": "getTotalUserBalances",
      "outputs": [
        {
          "internalType": "uint256",
          "name": "",
          "type": "uint256"
        }
      ],
      "stateMutability": "view",
      "type": "function"
    },
    {
      "inputs": [
        {
          "internalType": "address",
          "name": "user",
          "type": "address"
        }
      ],
      "name": "getUserStats",
      "outputs": [
        {
          "internalType": "uint256",
          "name": "currentBalance",
          "type": "uint256"
        },
        {
          "internalType": "uint256",
          "name": "deposited",
          "type": "uint256"
        },
        {
          "internalType": "uint256",
          "name": "withdrawn",
          "type": "uint256"
        },
        {
          "internalType": "uint256",
          "name": "nextNonce",
          "type": "uint256"
        }
      ],
      "stateMutability": "view",
      "type": "function"
    },
    {
      "inputs": [],
      "name": "owner",
      "outputs": [
        {
          "internalType": "address",
          "name": "",
          "type": "address"
        }
      ],
      "stateMutability": "view",
      "type": "function"
    },
    {
      "inputs": [
        {
          "internalType": "uint256",
          "name": "amount",
          "type": "uint256"
        }
      ],
      "name": "ownerWithdraw",
      "outputs": [],
      "stateMutability": "nonpayable",
      "type": "function"
    },
    {
      "inputs": [],
      "name": "ownerWithdrawAll",
      "outputs": [],
      "stateMutability": "nonpayable",
      "type": "function"
    },
    {
      "inputs": [],
      "name": "pause",
      "outputs": [],
      "stateMutability": "nonpayable",
      "type": "function"
    },
    {
      "inputs": [],
      "name": "paused",
      "outputs": [
        {
          "internalType": "bool",
          "name": "",
          "type": "bool"
        }
      ],
      "stateMutability": "view",
      "type": "function"
    },
    {
      "inputs": [],
      "name": "qtToken",
      "outputs": [
        {
          "internalType": "contract IERC20",
          "name": "",
          "type": "address"
        }
      ],
      "stateMutability": "view",
      "type": "function"
    },
    {
      "inputs": [],
      "name": "renounceOwnership",
      "outputs": [],
      "stateMutability": "nonpayable",
      "type": "function"
    },
    {
      "inputs": [],
      "name": "totalContractBalance",
      "outputs": [
        {
          "internalType": "uint256",
          "name": "",
          "type": "uint256"
        }
      ],
      "stateMutability": "view",
      "type": "function"
    },
    {
      "inputs": [
        {
          "internalType": "address",
          "name": "",
          "type": "address"
        }
      ],
      "name": "totalDeposits",
      "outputs": [
        {
          "internalType": "uint256",
          "name": "",
          "type": "uint256"
        }
      ],
      "stateMutability": "view",
      "type": "function"
    },
    {
      "inputs": [
        {
          "internalType": "address",
          "name": "",
          "type": "address"
        }
      ],
      "name": "totalWithdrawals",
      "outputs": [
        {
          "internalType": "uint256",
          "name": "",
          "type": "uint256"
        }
      ],
      "stateMutability": "view",
      "type": "function"
    },
    {
      "inputs": [
        {
          "internalType": "address",
          "name": "newOwner",
          "type": "address"
        }
      ],
      "name": "transferOwnership",
      "outputs": [],
      "stateMutability": "nonpayable",
      "type": "function"
    },
    {
      "inputs": [],
      "name": "unpause",
      "outputs": [],
      "stateMutability": "nonpayable",
      "type": "function"
    },
    {
      "inputs": [
        {
          "internalType": "address",
          "name": "newSigner",
          "type": "address"
        }
      ],
      "name": "updateAdminSigner",
      "outputs": [],
      "stateMutability": "nonpayable",
      "type": "function"
    },
    {
      "inputs": [
        {
          "internalType": "address",
          "name": "",
          "type": "address"
        }
      ],
      "name": "userBalances",
      "outputs": [
        {
          "internalType": "uint256",
          "name": "",
          "type": "uint256"
        }
      ],
      "stateMutability": "view",
      "type": "function"
    },
    {
      "inputs": [
        {
          "internalType": "uint256",
          "name": "amount",
          "type": "uint256"
        },
        {
          "internalType": "uint256",
          "name": "nonce",
          "type": "uint256"
        },
        {
          "internalType": "bytes",
          "name": "signature",
          "type": "bytes"
        }
      ],
      "name": "withdraw",
      "outputs": [],
      "stateMutability": "nonpayable",
      "type": "function"
    },
    {
      "inputs": [
        {
          "internalType": "address",
          "name": "",
          "type": "address"
        }
      ],
      "name": "withdrawalNonces",
      "outputs": [
        {
          "internalType": "uint256",
          "name": "",
          "type": "uint256"
        }
      ],
      "stateMutability": "view",
      "type": "function"
    }
  ],
  "bytecode": "0x60a06040523480156200001157600080fd5b5060405162001b2138038062001b21833981016040819052620000349162000151565b33806200005b57604051631e4fbdf760e01b81526000600482015260240160405180910390fd5b6200006681620000e4565b50600180556001600160a01b038216620000935760405163e6c4247b60e01b815260040160405180910390fd5b6001600160a01b038116620000bb5760405163e6c4247b60e01b815260040160405180910390fd5b6001600160a01b03918216608052600280546001600160a01b0319169190921617905562000189565b600080546001600160a01b038381166001600160a01b0319831681178455604051919092169283917f8be0079c531659141344cd1fd0a4f28419497f9722a3daafe3b4186f6b6457e09190a35050565b80516001600160a01b03811681146200014c57600080fd5b919050565b600080604083850312156200016557600080fd5b620001708362000134565b9150620001806020840162000134565b90509250929050565b60805161192f620001f2600039600081816101d9015281816104b90152818161056e015281816105e6015281816106af015281816107be01528181610a0001528181610b2501528181610ce801528181610ed901528181611158015261120d015261192f6000f3fe608060405234801561001057600080fd5b50600436106101cf5760003560e01c80638456cb5911610104578063c766731e116100a2578063e940325611610071578063e940325614610422578063f2fde38b14610442578063f8b2cb4f14610455578063ff9d2dcc1461047e57600080fd5b8063c766731e146103f7578063d15ca1661461040a578063e0d5af941461041a578063e1e158a51461040a57600080fd5b80639e3a5127116100de5780639e3a5127146103b5578063b6b55f25146103c8578063b970eb34146103db578063bac03cd7146103ee57600080fd5b80638456cb59146103775780638da5cb5b1461037f5780638eae3ad31461039057600080fd5b80635312ea8e116101715780636f9fb98a1161014b5780636f9fb98a14610341578063715018a614610349578063744fb6ca146103515780637d0c6d521461036457600080fd5b80635312ea8e146102f15780635c975abb1461030457806369f7caba1461032157600080fd5b806333f707d1116101ad57806333f707d11461024a5780633f0d2d501461025f5780633f4ba83a1461027f5780634e43603a1461028757600080fd5b806305d97f4f146101d45780630a8618681461021857806326224c641461022a575b600080fd5b6101fb7f000000000000000000000000000000000000000000000000000000000000000081565b6040516001600160a01b0390911681526020015b60405180910390f35b6007545b60405190815260200161020f565b61021c610238366004611790565b60036020526000908152604090205481565b61025d6102583660046117b2565b610491565b005b61021c61026d366004611790565b60066020526000908152604090205481565b61025d61067d565b6102d1610295366004611790565b6001600160a01b031660009081526003602090815260408083205460048352818420546005845282852054600690945291909320549293909290565b60408051948552602085019390935291830152606082015260800161020f565b61025d6102ff3660046117b2565b61068f565b600054600160a01b900460ff16604051901515815260200161020f565b61021c61032f366004611790565b60056020526000908152604090205481565b61021c6107a6565b61025d610836565b61025d61035f3660046117cb565b610848565b61025d61037236600461184b565b610bb5565b61025d610cb4565b6000546001600160a01b03166101fb565b610398610cc4565b60408051931515845260208401929092529082015260600161020f565b61025d6103c336600461184b565b610d63565b61025d6103d63660046117b2565b610e92565b61025d6103e936600461184b565b610fb9565b61021c60075481565b61025d610405366004611790565b6110af565b61021c683635c9adc5dea0000081565b61025d611130565b61021c610430366004611790565b60046020526000908152604090205481565b61025d610450366004611790565b61128d565b61021c610463366004611790565b6001600160a01b031660009081526003602052604090205490565b6002546101fb906001600160a01b031681565b6104996112cd565b6104a16112fa565b6040516370a0823160e01b81523060048201526000907f00000000000000000000000000000000000000000000000000000000000000006001600160a01b0316906370a0823190602401602060405180830381865afa158015610508573d6000803e3d6000fd5b505050506040513d601f19601f8201168201806040525081019061052c9190611875565b90508082111561054f5760405163786e0a9960e01b815260040160405180910390fd5b6105956105646000546001600160a01b031690565b6001600160a01b037f0000000000000000000000000000000000000000000000000000000000000000169084611324565b6000546001600160a01b03166040516370a0823160e01b81523060048201526001600160a01b03918216917f04dac1d8304dac8e7856f8cc2e1d9b6545d28637e947c4d8e93a95f1c87caf049185917f000000000000000000000000000000000000000000000000000000000000000016906370a0823190602401602060405180830381865afa15801561062d573d6000803e3d6000fd5b505050506040513d601f19601f820116820180604052508101906106519190611875565b604080519283526020830191909152429082015260600160405180910390a25061067a60018055565b50565b6106856112cd565b61068d611388565b565b6106976112cd565b6040516370a0823160e01b81523060048201526000907f00000000000000000000000000000000000000000000000000000000000000006001600160a01b0316906370a0823190602401602060405180830381865afa1580156106fe573d6000803e3d6000fd5b505050506040513d601f19601f820116820180604052508101906107229190611875565b9050808211156107455760405163786e0a9960e01b815260040160405180910390fd5b61075a6105646000546001600160a01b031690565b600054604080518481524260208201526001600160a01b03909216917f56da9a5ae0bcf6e7c3fdd78a10550e7d0458de1c39bfb7f6e96a3e92dd344a6891015b60405180910390a25050565b6040516370a0823160e01b81523060048201526000907f00000000000000000000000000000000000000000000000000000000000000006001600160a01b0316906370a0823190602401602060405180830381865afa15801561080d573d6000803e3d6000fd5b505050506040513d601f19601f820116820180604052508101906108319190611875565b905090565b61083e6112cd565b61068d60006113dd565b61085061142d565b6108586112fa565b683635c9adc5dea0000084101561088257604051632ca2f52b60e11b815260040160405180910390fd5b3360009081526006602052604090205483146108b157604051633ab3447f60e11b815260040160405180910390fd5b6040516bffffffffffffffffffffffff1933606090811b82166020840152603483018790526054830186905246607484015230901b16609482015260009060a8016040516020818303038152906040528051906020012090506000610943827f19457468657265756d205369676e6564204d6573736167653a0a3332000000006000908152601c91909152603c902090565b905060006109878286868080601f01602080910402602001604051908101604052809392919081815260200183838082843760009201919091525061145892505050565b6002549091506001600160a01b038083169116146109b857604051638baa579f60e01b815260040160405180910390fd5b336000908152600360205260409020548711156109e8576040516324aa779360e21b815260040160405180910390fd5b6040516370a0823160e01b81523060048201526000907f00000000000000000000000000000000000000000000000000000000000000006001600160a01b0316906370a0823190602401602060405180830381865afa158015610a4f573d6000803e3d6000fd5b505050506040513d601f19601f82011682018060405250810190610a739190611875565b905087811015610a965760405163786e0a9960e01b815260040160405180910390fd5b336000908152600660205260408120805491610ab1836118a4565b909155505033600090815260036020526040812080548a9290610ad59084906118bd565b909155505033600090815260056020526040812080548a9290610af99084906118d0565b925050819055508760076000828254610b1291906118bd565b90915550610b4c90506001600160a01b037f000000000000000000000000000000000000000000000000000000000000000016338a611324565b336000818152600360209081526040918290205482518c8152918201529081018990524260608201527f94ffd6b85c71b847775c89ef6496b93cee961bdc6ff827fd117f174f06f745ae9060800160405180910390a250505050610baf60018055565b50505050565b610bbd6112cd565b610bc561142d565b6001600160a01b038216610bec5760405163e6c4247b60e01b815260040160405180910390fd5b6001600160a01b03821660009081526003602052604090205480821115610c3357610c1781836118bd565b60076000828254610c2891906118d0565b90915550610c549050565b610c3d82826118bd565b60076000828254610c4e91906118bd565b90915550505b6001600160a01b0383166000818152600360209081526040918290208590558151848152908101859052428183015290517f51c5919f28bdc16e8ddec9eb3d04dd374c69c68b772e0ffd11ffbea0a30a7b219181900360600190a2505050565b610cbc6112cd565b61068d611484565b6040516370a0823160e01b8152306004820152600090819081906001600160a01b037f000000000000000000000000000000000000000000000000000000000000000016906370a0823190602401602060405180830381865afa158015610d2f573d6000803e3d6000fd5b505050506040513d601f19601f82011682018060405250810190610d539190611875565b6007548082149591945092509050565b610d6b6112cd565b610d7361142d565b6001600160a01b038216610d9a5760405163e6c4247b60e01b815260040160405180910390fd5b80600003610dbb57604051632ca2f52b60e11b815260040160405180910390fd5b6001600160a01b038216600090815260036020526040902054811115610df4576040516324aa779360e21b815260040160405180910390fd5b6001600160a01b03821660009081526003602052604081208054839290610e1c9084906118bd565b925050819055508060076000828254610e3591906118bd565b90915550506001600160a01b0382166000818152600360209081526040918290205482518581529182015242918101919091527f629f2f8e822955e5b36fcf3ca60b0cfdc26ce663582918d3ceb104aa64c943e99060600161079a565b610e9a61142d565b610ea26112fa565b683635c9adc5dea00000811015610ecc57604051632ca2f52b60e11b815260040160405180910390fd5b610f016001600160a01b037f0000000000000000000000000000000000000000000000000000000000000000163330846114c7565b3360009081526003602052604081208054839290610f209084906118d0565b90915550503360009081526004602052604081208054839290610f449084906118d0565b925050819055508060076000828254610f5d91906118d0565b90915550503360008181526003602090815260409182902054825185815291820152428183015290517f91ede45f04a37a7c170f5c1207df3b6bc748dc1e04ad5e917a241d0f52feada39181900360600190a261067a60018055565b610fc16112cd565b610fc961142d565b6001600160a01b038216610ff05760405163e6c4247b60e01b815260040160405180910390fd5b8060000361101157604051632ca2f52b60e11b815260040160405180910390fd5b6001600160a01b038216600090815260036020526040812080548392906110399084906118d0565b92505081905550806007600082825461105291906118d0565b90915550506001600160a01b0382166000818152600360209081526040918290205482518581529182015242918101919091527f0e9b943abff303b67ed7e9fe0a0df836d8ea261293efe004abc4b25cd781f1289060600161079a565b6110b76112cd565b6001600160a01b0381166110de5760405163e6c4247b60e01b815260040160405180910390fd5b600280546001600160a01b038381166001600160a01b0319831681179093556040519116919082907f6f90e3333b36a43e9473b1faf6286d9e81782ed8df1110323511fbbc67a1e61090600090a35050565b6111386112cd565b6111406112fa565b6040516370a0823160e01b81523060048201526000907f00000000000000000000000000000000000000000000000000000000000000006001600160a01b0316906370a0823190602401602060405180830381865afa1580156111a7573d6000803e3d6000fd5b505050506040513d601f19601f820116820180604052508101906111cb9190611875565b9050806000036111ee5760405163786e0a9960e01b815260040160405180910390fd5b6112346112036000546001600160a01b031690565b6001600160a01b037f0000000000000000000000000000000000000000000000000000000000000000169083611324565b6000805460408051848152602081019390935242908301526001600160a01b0316907f04dac1d8304dac8e7856f8cc2e1d9b6545d28637e947c4d8e93a95f1c87caf049060600160405180910390a25061068d60018055565b6112956112cd565b6001600160a01b0381166112c457604051631e4fbdf760e01b8152600060048201526024015b60405180910390fd5b61067a816113dd565b6000546001600160a01b0316331461068d5760405163118cdaa760e01b81523360048201526024016112bb565b60026001540361131d57604051633ee5aeb560e01b815260040160405180910390fd5b6002600155565b6040516001600160a01b0383811660248301526044820183905261138391859182169063a9059cbb906064015b604051602081830303815290604052915060e01b6020820180516001600160e01b038381831617835250505050611500565b505050565b611390611571565b6000805460ff60a01b191690557f5db9ee0a495bf2e6ff9c91a7834c1ba4fdd244a5e8aa4e537bd38aeae4b073aa335b6040516001600160a01b03909116815260200160405180910390a1565b600080546001600160a01b038381166001600160a01b0319831681178455604051919092169283917f8be0079c531659141344cd1fd0a4f28419497f9722a3daafe3b4186f6b6457e09190a35050565b600054600160a01b900460ff161561068d5760405163d93c066560e01b815260040160405180910390fd5b600080600080611468868661159b565b92509250925061147882826115e8565b50909150505b92915050565b61148c61142d565b6000805460ff60a01b1916600160a01b1790557f62e78cea01bee320cd4e420270b5ea74000d11b0c9f74754ebdbfc544b05a2586113c03390565b6040516001600160a01b038481166024830152838116604483015260648201839052610baf9186918216906323b872dd90608401611351565b600080602060008451602086016000885af180611523576040513d6000823e3d81fd5b50506000513d9150811561153b578060011415611548565b6001600160a01b0384163b155b15610baf57604051635274afe760e01b81526001600160a01b03851660048201526024016112bb565b600054600160a01b900460ff1661068d57604051638dfc202b60e01b815260040160405180910390fd5b600080600083516041036115d55760208401516040850151606086015160001a6115c7888285856116a5565b9550955095505050506115e1565b50508151600091506002905b9250925092565b60008260038111156115fc576115fc6118e3565b03611605575050565b6001826003811115611619576116196118e3565b036116375760405163f645eedf60e01b815260040160405180910390fd5b600282600381111561164b5761164b6118e3565b0361166c5760405163fce698f760e01b8152600481018290526024016112bb565b6003826003811115611680576116806118e3565b036116a1576040516335e2f38360e21b8152600481018290526024016112bb565b5050565b600080807f7fffffffffffffffffffffffffffffff5d576e7357a4501ddfe92f46681b20a08411156116e0575060009150600390508261176a565b604080516000808252602082018084528a905260ff891692820192909252606081018790526080810186905260019060a0016020604051602081039080840390855afa158015611734573d6000803e3d6000fd5b5050604051601f1901519150506001600160a01b0381166117605750600092506001915082905061176a565b9250600091508190505b9450945094915050565b80356001600160a01b038116811461178b57600080fd5b919050565b6000602082840312156117a257600080fd5b6117ab82611774565b9392505050565b6000602082840312156117c457600080fd5b5035919050565b600080600080606085870312156117e157600080fd5b8435935060208501359250604085013567ffffffffffffffff8082111561180757600080fd5b818701915087601f83011261181b57600080fd5b81358181111561182a57600080fd5b88602082850101111561183c57600080fd5b95989497505060200194505050565b6000806040838503121561185e57600080fd5b61186783611774565b946020939093013593505050565b60006020828403121561188757600080fd5b5051919050565b634e487b7160e01b600052601160045260246000fd5b6000600182016118b6576118b661188e565b5060010190565b8181038181111561147e5761147e61188e565b8082018082111561147e5761147e61188e565b634e487b7160e01b600052602160045260246000fdfea264697066735822122007279974a60029830ba7ef8958496a9daf031dae41f14a456d09559d6511787a64736f6c63430008140033",
  "linkReferences": {},
  "deployedLinkReferences": {}
}