{
  "_format": "hh-sol-artifact-1",
  "contractName": "BetModeVault",
  "sourceName": "contracts/BetModeVault.sol",
  "abi": [
    {
      "inputs": [
        {
          "internalType": "address",
          "name": "_qtToken",
          "type": "address"
        },
        {
          "internalType": "address",
          "name": "_adminSigner",
          "type": "address"
        }
      ],
      "stateMutability": "nonpayable",
      "type": "constructor"
    },
    {
      "inputs": [],
      "name": "ECDSAInvalidSignature",
      "type": "error"
    },
    {
      "inputs": [
        {
          "internalType": "uint256",
          "name": "length",
          "type": "uint256"
        }
      ],
      "name": "ECDSAInvalidSignatureLength",
      "type": "error"
    },
    {
      "inputs": [
        {
          "internalType": "bytes32",
          "name": "s",
          "type": "bytes32"
        }
      ],
      "name": "ECDSAInvalidSignatureS",
      "type": "error"
    },
    {
      "inputs": [],
      "name": "EnforcedPause",
      "type": "error"
    },
    {
      "inputs": [],
      "name": "ExpectedPause",
      "type": "error"
    },
    {
      "inputs": [],
      "name": "InsufficientAmount",
      "type": "error"
    },
    {
      "inputs": [],
      "name": "InsufficientContractBalance",
      "type": "error"
    },
    {
      "inputs": [],
      "name": "InsufficientUserBalance",
      "type": "error"
    },
    {
      "inputs": [],
      "name": "InvalidAddress",
      "type": "error"
    },
    {
      "inputs": [],
      "name": "InvalidNonce",
      "type": "error"
    },
    {
      "inputs": [],
      "name": "InvalidSignature",
      "type": "error"
    },
    {
      "inputs": [
        {
          "internalType": "address",
          "name": "owner",
          "type": "address"
        }
      ],
      "name": "OwnableInvalidOwner",
      "type": "error"
    },
    {
      "inputs": [
        {
          "internalType": "address",
          "name": "account",
          "type": "address"
        }
      ],
      "name": "OwnableUnauthorizedAccount",
      "type": "error"
    },
    {
      "inputs": [],
      "name": "ReentrancyGuardReentrantCall",
      "type": "error"
    },
    {
      "inputs": [],
      "name": "TransferFailed",
      "type": "error"
    },
    {
      "anonymous": false,
      "inputs": [
        {
          "indexed": true,
          "internalType": "address",
          "name": "oldSigner",
          "type": "address"
        },
        {
          "indexed": true,
          "internalType": "address",
          "name": "newSigner",
          "type": "address"
        }
      ],
      "name": "AdminSignerUpdated",
      "type": "event"
    },
    {
      "anonymous": false,
      "inputs": [
        {
          "indexed": true,
          "internalType": "address",
          "name": "user",
          "type": "address"
        },
        {
          "indexed": false,
          "internalType": "uint256",
          "name": "oldBalance",
          "type": "uint256"
        },
        {
          "indexed": false,
          "internalType": "uint256",
          "name": "newBalance",
          "type": "uint256"
        },
        {
          "indexed": false,
          "internalType": "uint256",
          "name": "timestamp",
          "type": "uint256"
        }
      ],
      "name": "BalanceAdjusted",
      "type": "event"
    },
    {
      "anonymous": false,
      "inputs": [
        {
          "indexed": true,
          "internalType": "address",
          "name": "user",
          "type": "address"
        },
        {
          "indexed": false,
          "internalType": "uint256",
          "name": "amount",
          "type": "uint256"
        },
        {
          "indexed": false,
          "internalType": "uint256",
          "name": "newBalance",
          "type": "uint256"
        },
        {
          "indexed": false,
          "internalType": "uint256",
          "name": "timestamp",
          "type": "uint256"
        }
      ],
      "name": "Deposited",
      "type": "event"
    },
    {
      "anonymous": false,
      "inputs": [
        {
          "indexed": true,
          "internalType": "address",
          "name": "admin",
          "type": "address"
        },
        {
          "indexed": false,
          "internalType": "uint256",
          "name": "amount",
          "type": "uint256"
        },
        {
          "indexed": false,
          "internalType": "uint256",
          "name": "timestamp",
          "type": "uint256"
        }
      ],
      "name": "EmergencyWithdrawal",
      "type": "event"
    },
    {
      "anonymous": false,
      "inputs": [
        {
          "indexed": true,
          "internalType": "address",
          "name": "user",
          "type": "address"
        },
        {
          "indexed": false,
          "internalType": "uint256",
          "name": "amount",
          "type": "uint256"
        },
        {
          "indexed": false,
          "internalType": "uint256",
          "name": "newBalance",
          "type": "uint256"
        },
        {
          "indexed": false,
          "internalType": "uint256",
          "name": "timestamp",
          "type": "uint256"
        }
      ],
      "name": "LossDebited",
      "type": "event"
    },
    {
      "anonymous": false,
      "inputs": [
        {
          "indexed": true,
          "internalType": "address",
          "name": "owner",
          "type": "address"
        },
        {
          "indexed": false,
          "internalType": "uint256",
          "name": "amount",
          "type": "uint256"
        },
        {
          "indexed": false,
          "internalType": "uint256",
          "name": "remainingBalance",
          "type": "uint256"
        },
        {
          "indexed": false,
          "internalType": "uint256",
          "name": "timestamp",
          "type": "uint256"
        }
      ],
      "name": "OwnerWithdrawal",
      "type": "event"
    },
    {
      "anonymous": false,
      "inputs": [
        {
          "indexed": true,
          "internalType": "address",
          "name": "previousOwner",
          "type": "address"
        },
        {
          "indexed": true,
          "internalType": "address",
          "name": "newOwner",
          "type": "address"
        }
      ],
      "name": "OwnershipTransferred",
      "type": "event"
    },
    {
      "anonymous": false,
      "inputs": [
        {
          "indexed": false,
          "internalType": "address",
          "name": "account",
          "type": "address"
        }
      ],
      "name": "Paused",
      "type": "event"
    },
    {
      "anonymous": false,
      "inputs": [
        {
          "indexed": false,
          "internalType": "address",
          "name": "account",
          "type": "address"
        }
      ],
      "name": "Unpaused",
      "type": "event"
    },
    {
      "anonymous": false,
      "inputs": [
        {
          "indexed": true,
          "internalType": "address",
          "name": "user",
          "type": "address"
        },
        {
          "indexed": false,
          "internalType": "uint256",
          "name": "amount",
          "type": "uint256"
        },
        {
          "indexed": false,
          "internalType": "uint256",
          "name": "newBalance",
          "type": "uint256"
        },
        {
          "indexed": false,
          "internalType": "uint256",
          "name": "timestamp",
          "type": "uint256"
        }
      ],
      "name": "WinningsCredited",
      "type": "event"
    },
    {
      "anonymous": false,
      "inputs": [
        {
          "indexed": true,
          "internalType": "address",
          "name": "user",
          "type": "address"
        },
        {
          "indexed": false,
          "internalType": "uint256",
          "name": "amount",
          "type": "uint256"
        },
        {
          "indexed": false,
          "internalType": "uint256",
          "name": "newBalance",
          "type": "uint256"
        },
        {
          "indexed": false,
          "internalType": "uint256",
          "name": "nonce",
          "type": "uint256"
        },
        {
          "indexed": false,
          "internalType": "uint256",
          "name": "timestamp",
          "type": "uint256"
        }
      ],
      "name": "Withdrawn",
      "type": "event"
    },
    {
      "inputs": [],
      "name": "MIN_DEPOSIT",
      "outputs": [
        {
          "internalType": "uint256",
          "name": "",
          "type": "uint256"
        }
      ],
      "stateMutability": "view",
      "type": "function"
    },
    {
      "inputs": [],
      "name": "MIN_WITHDRAWAL",
      "outputs": [
        {
          "internalType": "uint256",
          "name": "",
          "type": "uint256"
        }
      ],
      "stateMutability": "view",
      "type": "function"
    },
    {
      "inputs": [
        {
          "internalType": "address",
          "name": "user",
          "type": "address"
        },
        {
          "internalType": "uint256",
          "name": "newBalance",
          "type": "uint256"
        }
      ],
      "name": "adjustBalance",
      "outputs": [],
      "stateMutability": "nonpayable",
      "type": "function"
    },
    {
      "inputs": [],
      "name": "adminSigner",
      "outputs": [
        {
          "internalType": "address",
          "name": "",
          "type": "address"
        }
      ],
      "stateMutability": "view",
      "type": "function"
    },
    {
      "inputs": [],
      "name": "checkBalanceIntegrity",
      "outputs": [
        {
          "internalType": "bool",
          "name": "balanced",
          "type": "bool"
        },
        {
          "internalType": "uint256",
          "name": "contractBal",
          "type": "uint256"
        },
        {
          "internalType": "uint256",
          "name": "userBal",
          "type": "uint256"
        }
      ],
      "stateMutability": "view",
      "type": "function"
    },
    {
      "inputs": [
        {
          "internalType": "address",
          "name": "user",
          "type": "address"
        },
        {
          "internalType": "uint256",
          "name": "amount",
          "type": "uint256"
        }
      ],
      "name": "creditWinnings",
      "outputs": [],
      "stateMutability": "nonpayable",
      "type": "function"
    },
    {
      "inputs": [
        {
          "internalType": "address",
          "name": "user",
          "type": "address"
        },
        {
          "internalType": "uint256",
          "name": "amount",
          "type": "uint256"
        }
      ],
      "name": "debitLoss",
      "outputs": [],
      "stateMutability": "nonpayable",
      "type": "function"
    },
    {
      "inputs": [
        {
          "internalType": "uint256",
          "name": "amount",
          "type": "uint256"
        }
      ],
      "name": "deposit",
      "outputs": [],
      "stateMutability": "nonpayable",
      "type": "function"
    },
    {
      "inputs": [
        {
          "internalType": "uint256",
          "name": "amount",
          "type": "uint256"
        }
      ],
      "name": "emergencyWithdraw",
      "outputs": [],
      "stateMutability": "nonpayable",
      "type": "function"
    },
    {
      "inputs": [
        {
          "internalType": "address",
          "name": "user",
          "type": "address"
        }
      ],
      "name": "getBalance",
      "outputs": [
        {
          "internalType": "uint256",
          "name": "",
          "type": "uint256"
        }
      ],
      "stateMutability": "view",
      "type": "function"
    },
    {
      "inputs": [],
      "name": "getContractBalance",
      "outputs": [
        {
          "internalType": "uint256",
          "name": "",
          "type": "uint256"
        }
      ],
      "stateMutability": "view",
      "type": "function"
    },
    {
      "inputs": [],
      "name": "getTotalUserBalances",
      "outputs": [
        {
          "internalType": "uint256",
          "name": "",
          "type": "uint256"
        }
      ],
      "stateMutability": "view",
      "type": "function"
    },
    {
      "inputs": [
        {
          "internalType": "address",
          "name": "user",
          "type": "address"
        }
      ],
      "name": "getUserStats",
      "outputs": [
        {
          "internalType": "uint256",
          "name": "currentBalance",
          "type": "uint256"
        },
        {
          "internalType": "uint256",
          "name": "deposited",
          "type": "uint256"
        },
        {
          "internalType": "uint256",
          "name": "withdrawn",
          "type": "uint256"
        },
        {
          "internalType": "uint256",
          "name": "nextNonce",
          "type": "uint256"
        }
      ],
      "stateMutability": "view",
      "type": "function"
    },
    {
      "inputs": [],
      "name": "owner",
      "outputs": [
        {
          "internalType": "address",
          "name": "",
          "type": "address"
        }
      ],
      "stateMutability": "view",
      "type": "function"
    },
    {
      "inputs": [
        {
          "internalType": "uint256",
          "name": "amount",
          "type": "uint256"
        }
      ],
      "name": "ownerWithdraw",
      "outputs": [],
      "stateMutability": "nonpayable",
      "type": "function"
    },
    {
      "inputs": [],
      "name": "ownerWithdrawAll",
      "outputs": [],
      "stateMutability": "nonpayable",
      "type": "function"
    },
    {
      "inputs": [],
      "name": "pause",
      "outputs": [],
      "stateMutability": "nonpayable",
      "type": "function"
    },
    {
      "inputs": [],
      "name": "paused",
      "outputs": [
        {
          "internalType": "bool",
          "name": "",
          "type": "bool"
        }
      ],
      "stateMutability": "view",
      "type": "function"
    },
    {
      "inputs": [],
      "name": "qtToken",
      "outputs": [
        {
          "internalType": "contract IERC20",
          "name": "",
          "type": "address"
        }
      ],
      "stateMutability": "view",
      "type": "function"
    },
    {
      "inputs": [],
      "name": "renounceOwnership",
      "outputs": [],
      "stateMutability": "nonpayable",
      "type": "function"
    },
    {
      "inputs": [],
      "name": "totalContractBalance",
      "outputs": [
        {
          "internalType": "uint256",
          "name": "",
          "type": "uint256"
        }
      ],
      "stateMutability": "view",
      "type": "function"
    },
    {
      "inputs": [
        {
          "internalType": "address",
          "name": "",
          "type": "address"
        }
      ],
      "name": "totalDeposits",
      "outputs": [
        {
          "internalType": "uint256",
          "name": "",
          "type": "uint256"
        }
      ],
      "stateMutability": "view",
      "type": "function"
    },
    {
      "inputs": [
        {
          "internalType": "address",
          "name": "",
          "type": "address"
        }
      ],
      "name": "totalWithdrawals",
      "outputs": [
        {
          "internalType": "uint256",
          "name": "",
          "type": "uint256"
        }
      ],
      "stateMutability": "view",
      "type": "function"
    },
    {
      "inputs": [
        {
          "internalType": "address",
          "name": "newOwner",
          "type": "address"
        }
      ],
      "name": "transferOwnership",
      "outputs": [],
      "stateMutability": "nonpayable",
      "type": "function"
    },
    {
      "inputs": [],
      "name": "unpause",
      "outputs": [],
      "stateMutability": "nonpayable",
      "type": "function"
    },
    {
      "inputs": [
        {
          "internalType": "address",
          "name": "newSigner",
          "type": "address"
        }
      ],
      "name": "updateAdminSigner",
      "outputs": [],
      "stateMutability": "nonpayable",
      "type": "function"
    },
    {
      "inputs": [
        {
          "internalType": "address",
          "name": "",
          "type": "address"
        }
      ],
      "name": "userBalances",
      "outputs": [
        {
          "internalType": "uint256",
          "name": "",
          "type": "uint256"
        }
      ],
      "stateMutability": "view",
      "type": "function"
    },
    {
      "inputs": [
        {
          "internalType": "uint256",
          "name": "amount",
          "type": "uint256"
        },
        {
          "internalType": "uint256",
          "name": "nonce",
          "type": "uint256"
        },
        {
          "internalType": "bytes",
          "name": "signature",
          "type": "bytes"
        }
      ],
      "name": "withdraw",
      "outputs": [],
      "stateMutability": "nonpayable",
      "type": "function"
    },
    {
      "inputs": [
        {
          "internalType": "address",
          "name": "",
          "type": "address"
        }
      ],
      "name": "withdrawalNonces",
      "outputs": [
        {
          "internalType": "uint256",
          "name": "",
          "type": "uint256"
        }
      ],
      "stateMutability": "view",
      "type": "function"
    }
  ],
  "bytecode": "0x60a06040523480156200001157600080fd5b5060405162001d2438038062001d24833981016040819052620000349162000151565b33806200005b57604051631e4fbdf760e01b81526000600482015260240160405180910390fd5b6200006681620000e4565b50600180556001600160a01b038216620000935760405163e6c4247b60e01b815260040160405180910390fd5b6001600160a01b038116620000bb5760405163e6c4247b60e01b815260040160405180910390fd5b6001600160a01b03918216608052600280546001600160a01b0319169190921617905562000189565b600080546001600160a01b038381166001600160a01b0319831681178455604051919092169283917f8be0079c531659141344cd1fd0a4f28419497f9722a3daafe3b4186f6b6457e09190a35050565b80516001600160a01b03811681146200014c57600080fd5b919050565b600080604083850312156200016557600080fd5b620001708362000134565b9150620001806020840162000134565b90509250929050565b608051611b2b620001f9600039600081816101d9015281816104b901528181610553015281816106740152818161073e015281816107d80152818161090d01528181610b4f01528181610c8501528181610eb3015281816110c4015281816113b1015261144b0152611b2b6000f3fe608060405234801561001057600080fd5b50600436106101cf5760003560e01c80638456cb5911610104578063c766731e116100a2578063e940325611610071578063e940325614610422578063f2fde38b14610442578063f8b2cb4f14610455578063ff9d2dcc1461047e57600080fd5b8063c766731e146103f7578063d15ca1661461040a578063e0d5af941461041a578063e1e158a51461040a57600080fd5b80639e3a5127116100de5780639e3a5127146103b5578063b6b55f25146103c8578063b970eb34146103db578063bac03cd7146103ee57600080fd5b80638456cb59146103775780638da5cb5b1461037f5780638eae3ad31461039057600080fd5b80635312ea8e116101715780636f9fb98a1161014b5780636f9fb98a14610341578063715018a614610349578063744fb6ca146103515780637d0c6d521461036457600080fd5b80635312ea8e146102f15780635c975abb1461030457806369f7caba1461032157600080fd5b806333f707d1116101ad57806333f707d11461024a5780633f0d2d501461025f5780633f4ba83a1461027f5780634e43603a1461028757600080fd5b806305d97f4f146101d45780630a8618681461021857806326224c641461022a575b600080fd5b6101fb7f000000000000000000000000000000000000000000000000000000000000000081565b6040516001600160a01b0390911681526020015b60405180910390f35b6007545b60405190815260200161020f565b61021c61023836600461196a565b60036020526000908152604090205481565b61025d61025836600461198c565b610491565b005b61021c61026d36600461196a565b60066020526000908152604090205481565b61025d61070c565b6102d161029536600461196a565b6001600160a01b031660009081526003602090815260408083205460048352818420546005845282852054600690945291909320549293909290565b60408051948552602085019390935291830152606082015260800161020f565b61025d6102ff36600461198c565b61071e565b600054600160a01b900460ff16604051901515815260200161020f565b61021c61032f36600461196a565b60056020526000908152604090205481565b61021c6108f5565b61025d610985565b61025d61035f3660046119a5565b610997565b61025d610372366004611a25565b610d84565b61025d610e7f565b6000546001600160a01b03166101fb565b610398610e8f565b60408051931515845260208401929092529082015260600161020f565b61025d6103c3366004611a25565b610f2e565b61025d6103d636600461198c565b611065565b61025d6103e9366004611a25565b611212565b61021c60075481565b61025d61040536600461196a565b611308565b61021c683635c9adc5dea0000081565b61025d611389565b61021c61043036600461196a565b60046020526000908152604090205481565b61025d61045036600461196a565b611575565b61021c61046336600461196a565b6001600160a01b031660009081526003602052604090205490565b6002546101fb906001600160a01b031681565b6104996115b5565b6104a16115e2565b6040516370a0823160e01b81523060048201526000907f00000000000000000000000000000000000000000000000000000000000000006001600160a01b0316906370a0823190602401602060405180830381865afa158015610508573d6000803e3d6000fd5b505050506040513d601f19601f8201168201806040525081019061052c9190611a4f565b90508082111561054f5760405163786e0a9960e01b815260040160405180910390fd5b60007f00000000000000000000000000000000000000000000000000000000000000006001600160a01b031663a9059cbb6105926000546001600160a01b031690565b6040516001600160e01b031960e084901b1681526001600160a01b039091166004820152602481018690526044016020604051808303816000875af11580156105df573d6000803e3d6000fd5b505050506040513d601f19601f820116820180604052508101906106039190611a68565b905080610623576040516312171d8360e31b815260040160405180910390fd5b6000546001600160a01b03166040516370a0823160e01b81523060048201526001600160a01b03918216917f04dac1d8304dac8e7856f8cc2e1d9b6545d28637e947c4d8e93a95f1c87caf049186917f000000000000000000000000000000000000000000000000000000000000000016906370a0823190602401602060405180830381865afa1580156106bb573d6000803e3d6000fd5b505050506040513d601f19601f820116820180604052508101906106df9190611a4f565b604080519283526020830191909152429082015260600160405180910390a2505061070960018055565b50565b6107146115b5565b61071c61160c565b565b6107266115b5565b6040516370a0823160e01b81523060048201526000907f00000000000000000000000000000000000000000000000000000000000000006001600160a01b0316906370a0823190602401602060405180830381865afa15801561078d573d6000803e3d6000fd5b505050506040513d601f19601f820116820180604052508101906107b19190611a4f565b9050808211156107d45760405163786e0a9960e01b815260040160405180910390fd5b60007f00000000000000000000000000000000000000000000000000000000000000006001600160a01b031663a9059cbb6108176000546001600160a01b031690565b6040516001600160e01b031960e084901b1681526001600160a01b039091166004820152602481018690526044016020604051808303816000875af1158015610864573d6000803e3d6000fd5b505050506040513d601f19601f820116820180604052508101906108889190611a68565b9050806108a8576040516312171d8360e31b815260040160405180910390fd5b600054604080518581524260208201526001600160a01b03909216917f56da9a5ae0bcf6e7c3fdd78a10550e7d0458de1c39bfb7f6e96a3e92dd344a6891015b60405180910390a2505050565b6040516370a0823160e01b81523060048201526000907f00000000000000000000000000000000000000000000000000000000000000006001600160a01b0316906370a0823190602401602060405180830381865afa15801561095c573d6000803e3d6000fd5b505050506040513d601f19601f820116820180604052508101906109809190611a4f565b905090565b61098d6115b5565b61071c6000611661565b61099f6116b1565b6109a76115e2565b683635c9adc5dea000008410156109d157604051632ca2f52b60e11b815260040160405180910390fd5b336000908152600660205260409020548314610a0057604051633ab3447f60e11b815260040160405180910390fd5b6040516bffffffffffffffffffffffff1933606090811b82166020840152603483018790526054830186905246607484015230901b16609482015260009060a8016040516020818303038152906040528051906020012090506000610a92827f19457468657265756d205369676e6564204d6573736167653a0a3332000000006000908152601c91909152603c902090565b90506000610ad68286868080601f0160208091040260200160405190810160405280939291908181526020018383808284376000920191909152506116dc92505050565b6002549091506001600160a01b03808316911614610b0757604051638baa579f60e01b815260040160405180910390fd5b33600090815260036020526040902054871115610b37576040516324aa779360e21b815260040160405180910390fd5b6040516370a0823160e01b81523060048201526000907f00000000000000000000000000000000000000000000000000000000000000006001600160a01b0316906370a0823190602401602060405180830381865afa158015610b9e573d6000803e3d6000fd5b505050506040513d601f19601f82011682018060405250810190610bc29190611a4f565b905087811015610be55760405163786e0a9960e01b815260040160405180910390fd5b336000908152600660205260408120805491610c0083611aa0565b909155505033600090815260036020526040812080548a9290610c24908490611ab9565b909155505033600090815260056020526040812080548a9290610c48908490611acc565b925050819055508760076000828254610c619190611ab9565b909155505060405163a9059cbb60e01b8152336004820152602481018990526000907f00000000000000000000000000000000000000000000000000000000000000006001600160a01b03169063a9059cbb906044016020604051808303816000875af1158015610cd6573d6000803e3d6000fd5b505050506040513d601f19601f82011682018060405250810190610cfa9190611a68565b905080610d1a576040516312171d8360e31b815260040160405180910390fd5b336000818152600360209081526040918290205482518d8152918201529081018a90524260608201527f94ffd6b85c71b847775c89ef6496b93cee961bdc6ff827fd117f174f06f745ae9060800160405180910390a25050505050610d7e60018055565b50505050565b610d8c6115b5565b610d946116b1565b6001600160a01b038216610dbb5760405163e6c4247b60e01b815260040160405180910390fd5b6001600160a01b03821660009081526003602052604090205480821115610e0257610de68183611ab9565b60076000828254610df79190611acc565b90915550610e239050565b610e0c8282611ab9565b60076000828254610e1d9190611ab9565b90915550505b6001600160a01b038316600081815260036020908152604091829020859055815184815290810185905242918101919091527f51c5919f28bdc16e8ddec9eb3d04dd374c69c68b772e0ffd11ffbea0a30a7b21906060016108e8565b610e876115b5565b61071c611708565b6040516370a0823160e01b8152306004820152600090819081906001600160a01b037f000000000000000000000000000000000000000000000000000000000000000016906370a0823190602401602060405180830381865afa158015610efa573d6000803e3d6000fd5b505050506040513d601f19601f82011682018060405250810190610f1e9190611a4f565b6007548082149591945092509050565b610f366115b5565b610f3e6116b1565b6001600160a01b038216610f655760405163e6c4247b60e01b815260040160405180910390fd5b80600003610f8657604051632ca2f52b60e11b815260040160405180910390fd5b6001600160a01b038216600090815260036020526040902054811115610fbf576040516324aa779360e21b815260040160405180910390fd5b6001600160a01b03821660009081526003602052604081208054839290610fe7908490611ab9565b9250508190555080600760008282546110009190611ab9565b90915550506001600160a01b0382166000818152600360209081526040918290205482518581529182015242918101919091527f629f2f8e822955e5b36fcf3ca60b0cfdc26ce663582918d3ceb104aa64c943e9906060015b60405180910390a25050565b61106d6116b1565b6110756115e2565b683635c9adc5dea0000081101561109f57604051632ca2f52b60e11b815260040160405180910390fd5b6040516323b872dd60e01b8152336004820152306024820152604481018290526000907f00000000000000000000000000000000000000000000000000000000000000006001600160a01b0316906323b872dd906064016020604051808303816000875af1158015611115573d6000803e3d6000fd5b505050506040513d601f19601f820116820180604052508101906111399190611a68565b905080611159576040516312171d8360e31b815260040160405180910390fd5b3360009081526003602052604081208054849290611178908490611acc565b9091555050336000908152600460205260408120805484929061119c908490611acc565b9250508190555081600760008282546111b59190611acc565b90915550503360008181526003602090815260409182902054825186815291820152428183015290517f91ede45f04a37a7c170f5c1207df3b6bc748dc1e04ad5e917a241d0f52feada39181900360600190a25061070960018055565b61121a6115b5565b6112226116b1565b6001600160a01b0382166112495760405163e6c4247b60e01b815260040160405180910390fd5b8060000361126a57604051632ca2f52b60e11b815260040160405180910390fd5b6001600160a01b03821660009081526003602052604081208054839290611292908490611acc565b9250508190555080600760008282546112ab9190611acc565b90915550506001600160a01b0382166000818152600360209081526040918290205482518581529182015242918101919091527f0e9b943abff303b67ed7e9fe0a0df836d8ea261293efe004abc4b25cd781f12890606001611059565b6113106115b5565b6001600160a01b0381166113375760405163e6c4247b60e01b815260040160405180910390fd5b600280546001600160a01b038381166001600160a01b0319831681179093556040519116919082907f6f90e3333b36a43e9473b1faf6286d9e81782ed8df1110323511fbbc67a1e61090600090a35050565b6113916115b5565b6113996115e2565b6040516370a0823160e01b81523060048201526000907f00000000000000000000000000000000000000000000000000000000000000006001600160a01b0316906370a0823190602401602060405180830381865afa158015611400573d6000803e3d6000fd5b505050506040513d601f19601f820116820180604052508101906114249190611a4f565b9050806000036114475760405163786e0a9960e01b815260040160405180910390fd5b60007f00000000000000000000000000000000000000000000000000000000000000006001600160a01b031663a9059cbb61148a6000546001600160a01b031690565b6040516001600160e01b031960e084901b1681526001600160a01b039091166004820152602481018590526044016020604051808303816000875af11580156114d7573d6000803e3d6000fd5b505050506040513d601f19601f820116820180604052508101906114fb9190611a68565b90508061151b576040516312171d8360e31b815260040160405180910390fd5b6000805460408051858152602081019390935242908301526001600160a01b0316907f04dac1d8304dac8e7856f8cc2e1d9b6545d28637e947c4d8e93a95f1c87caf049060600160405180910390a2505061071c60018055565b61157d6115b5565b6001600160a01b0381166115ac57604051631e4fbdf760e01b8152600060048201526024015b60405180910390fd5b61070981611661565b6000546001600160a01b0316331461071c5760405163118cdaa760e01b81523360048201526024016115a3565b60026001540361160557604051633ee5aeb560e01b815260040160405180910390fd5b6002600155565b61161461174b565b6000805460ff60a01b191690557f5db9ee0a495bf2e6ff9c91a7834c1ba4fdd244a5e8aa4e537bd38aeae4b073aa335b6040516001600160a01b03909116815260200160405180910390a1565b600080546001600160a01b038381166001600160a01b0319831681178455604051919092169283917f8be0079c531659141344cd1fd0a4f28419497f9722a3daafe3b4186f6b6457e09190a35050565b600054600160a01b900460ff161561071c5760405163d93c066560e01b815260040160405180910390fd5b6000806000806116ec8686611775565b9250925092506116fc82826117c2565b50909150505b92915050565b6117106116b1565b6000805460ff60a01b1916600160a01b1790557f62e78cea01bee320cd4e420270b5ea74000d11b0c9f74754ebdbfc544b05a2586116443390565b600054600160a01b900460ff1661071c57604051638dfc202b60e01b815260040160405180910390fd5b600080600083516041036117af5760208401516040850151606086015160001a6117a18882858561187f565b9550955095505050506117bb565b50508151600091506002905b9250925092565b60008260038111156117d6576117d6611adf565b036117df575050565b60018260038111156117f3576117f3611adf565b036118115760405163f645eedf60e01b815260040160405180910390fd5b600282600381111561182557611825611adf565b036118465760405163fce698f760e01b8152600481018290526024016115a3565b600382600381111561185a5761185a611adf565b0361187b576040516335e2f38360e21b8152600481018290526024016115a3565b5050565b600080807f7fffffffffffffffffffffffffffffff5d576e7357a4501ddfe92f46681b20a08411156118ba5750600091506003905082611944565b604080516000808252602082018084528a905260ff891692820192909252606081018790526080810186905260019060a0016020604051602081039080840390855afa15801561190e573d6000803e3d6000fd5b5050604051601f1901519150506001600160a01b03811661193a57506000925060019150829050611944565b9250600091508190505b9450945094915050565b80356001600160a01b038116811461196557600080fd5b919050565b60006020828403121561197c57600080fd5b6119858261194e565b9392505050565b60006020828403121561199e57600080fd5b5035919050565b600080600080606085870312156119bb57600080fd5b8435935060208501359250604085013567ffffffffffffffff808211156119e157600080fd5b818701915087601f8301126119f557600080fd5b813581811115611a0457600080fd5b886020828501011115611a1657600080fd5b95989497505060200194505050565b60008060408385031215611a3857600080fd5b611a418361194e565b946020939093013593505050565b600060208284031215611a6157600080fd5b5051919050565b600060208284031215611a7a57600080fd5b8151801515811461198557600080fd5b634e487b7160e01b600052601160045260246000fd5b600060018201611ab257611ab2611a8a565b5060010190565b8181038181111561170257611702611a8a565b8082018082111561170257611702611a8a565b634e487b7160e01b600052602160045260246000fdfea2646970667358221220bf5145a9ac05176f7e4078b57d92f1b84d2a3971aabeef8f626dceeebbf529db64736f6c63430008140033",
  "linkReferences": {},
  "deployedLinkReferences": {}
}