{
  "_format": "hh-sol-artifact-1",
  "contractName": "BetModeVault",
  "sourceName": "contracts/BetModeVault.sol",
  "abi": [
    {
      "inputs": [
        {
          "internalType": "address",
          "name": "_qtToken",
          "type": "address"
        },
        {
          "internalType": "address",
          "name": "_adminSigner",
          "type": "address"
        }
      ],
      "stateMutability": "nonpayable",
      "type": "constructor"
    },
    {
      "inputs": [],
      "name": "ECDSAInvalidSignature",
      "type": "error"
    },
    {
      "inputs": [
        {
          "internalType": "uint256",
          "name": "length",
          "type": "uint256"
        }
      ],
      "name": "ECDSAInvalidSignatureLength",
      "type": "error"
    },
    {
      "inputs": [
        {
          "internalType": "bytes32",
          "name": "s",
          "type": "bytes32"
        }
      ],
      "name": "ECDSAInvalidSignatureS",
      "type": "error"
    },
    {
      "inputs": [],
      "name": "EnforcedPause",
      "type": "error"
    },
    {
      "inputs": [],
      "name": "ExpectedPause",
      "type": "error"
    },
    {
      "inputs": [],
      "name": "InsufficientAmount",
      "type": "error"
    },
    {
      "inputs": [],
      "name": "InsufficientContractBalance",
      "type": "error"
    },
    {
      "inputs": [],
      "name": "InsufficientUserBalance",
      "type": "error"
    },
    {
      "inputs": [],
      "name": "InvalidAddress",
      "type": "error"
    },
    {
      "inputs": [],
      "name": "InvalidNonce",
      "type": "error"
    },
    {
      "inputs": [],
      "name": "InvalidSignature",
      "type": "error"
    },
    {
      "inputs": [
        {
          "internalType": "address",
          "name": "owner",
          "type": "address"
        }
      ],
      "name": "OwnableInvalidOwner",
      "type": "error"
    },
    {
      "inputs": [
        {
          "internalType": "address",
          "name": "account",
          "type": "address"
        }
      ],
      "name": "OwnableUnauthorizedAccount",
      "type": "error"
    },
    {
      "inputs": [],
      "name": "ReentrancyGuardReentrantCall",
      "type": "error"
    },
    {
      "inputs": [],
      "name": "TransferFailed",
      "type": "error"
    },
    {
      "anonymous": false,
      "inputs": [
        {
          "indexed": true,
          "internalType": "address",
          "name": "oldSigner",
          "type": "address"
        },
        {
          "indexed": true,
          "internalType": "address",
          "name": "newSigner",
          "type": "address"
        }
      ],
      "name": "AdminSignerUpdated",
      "type": "event"
    },
    {
      "anonymous": false,
      "inputs": [
        {
          "indexed": true,
          "internalType": "address",
          "name": "user",
          "type": "address"
        },
        {
          "indexed": false,
          "internalType": "uint256",
          "name": "amount",
          "type": "uint256"
        },
        {
          "indexed": false,
          "internalType": "uint256",
          "name": "newBalance",
          "type": "uint256"
        },
        {
          "indexed": false,
          "internalType": "uint256",
          "name": "nonce",
          "type": "uint256"
        },
        {
          "indexed": false,
          "internalType": "uint256",
          "name": "timestamp",
          "type": "uint256"
        }
      ],
      "name": "BalanceCredited",
      "type": "event"
    },
    {
      "anonymous": false,
      "inputs": [
        {
          "indexed": true,
          "internalType": "address",
          "name": "user",
          "type": "address"
        },
        {
          "indexed": false,
          "internalType": "uint256",
          "name": "amount",
          "type": "uint256"
        },
        {
          "indexed": false,
          "internalType": "uint256",
          "name": "newBalance",
          "type": "uint256"
        },
        {
          "indexed": false,
          "internalType": "uint256",
          "name": "nonce",
          "type": "uint256"
        },
        {
          "indexed": false,
          "internalType": "uint256",
          "name": "timestamp",
          "type": "uint256"
        }
      ],
      "name": "BalanceDebited",
      "type": "event"
    },
    {
      "anonymous": false,
      "inputs": [
        {
          "indexed": true,
          "internalType": "address",
          "name": "user",
          "type": "address"
        },
        {
          "indexed": false,
          "internalType": "uint256",
          "name": "amount",
          "type": "uint256"
        },
        {
          "indexed": false,
          "internalType": "uint256",
          "name": "newBalance",
          "type": "uint256"
        },
        {
          "indexed": false,
          "internalType": "uint256",
          "name": "timestamp",
          "type": "uint256"
        }
      ],
      "name": "Deposited",
      "type": "event"
    },
    {
      "anonymous": false,
      "inputs": [
        {
          "indexed": true,
          "internalType": "address",
          "name": "admin",
          "type": "address"
        },
        {
          "indexed": false,
          "internalType": "uint256",
          "name": "amount",
          "type": "uint256"
        },
        {
          "indexed": false,
          "internalType": "uint256",
          "name": "timestamp",
          "type": "uint256"
        }
      ],
      "name": "EmergencyWithdrawal",
      "type": "event"
    },
    {
      "anonymous": false,
      "inputs": [
        {
          "indexed": true,
          "internalType": "address",
          "name": "owner",
          "type": "address"
        },
        {
          "indexed": false,
          "internalType": "uint256",
          "name": "amount",
          "type": "uint256"
        },
        {
          "indexed": false,
          "internalType": "uint256",
          "name": "remainingBalance",
          "type": "uint256"
        },
        {
          "indexed": false,
          "internalType": "uint256",
          "name": "timestamp",
          "type": "uint256"
        }
      ],
      "name": "OwnerWithdrawal",
      "type": "event"
    },
    {
      "anonymous": false,
      "inputs": [
        {
          "indexed": true,
          "internalType": "address",
          "name": "previousOwner",
          "type": "address"
        },
        {
          "indexed": true,
          "internalType": "address",
          "name": "newOwner",
          "type": "address"
        }
      ],
      "name": "OwnershipTransferred",
      "type": "event"
    },
    {
      "anonymous": false,
      "inputs": [
        {
          "indexed": false,
          "internalType": "address",
          "name": "account",
          "type": "address"
        }
      ],
      "name": "Paused",
      "type": "event"
    },
    {
      "anonymous": false,
      "inputs": [
        {
          "indexed": false,
          "internalType": "address",
          "name": "account",
          "type": "address"
        }
      ],
      "name": "Unpaused",
      "type": "event"
    },
    {
      "anonymous": false,
      "inputs": [
        {
          "indexed": true,
          "internalType": "address",
          "name": "user",
          "type": "address"
        },
        {
          "indexed": false,
          "internalType": "uint256",
          "name": "amount",
          "type": "uint256"
        },
        {
          "indexed": false,
          "internalType": "uint256",
          "name": "newBalance",
          "type": "uint256"
        },
        {
          "indexed": false,
          "internalType": "uint256",
          "name": "nonce",
          "type": "uint256"
        },
        {
          "indexed": false,
          "internalType": "uint256",
          "name": "timestamp",
          "type": "uint256"
        }
      ],
      "name": "Withdrawn",
      "type": "event"
    },
    {
      "inputs": [],
      "name": "MIN_DEPOSIT",
      "outputs": [
        {
          "internalType": "uint256",
          "name": "",
          "type": "uint256"
        }
      ],
      "stateMutability": "view",
      "type": "function"
    },
    {
      "inputs": [],
      "name": "MIN_WITHDRAWAL",
      "outputs": [
        {
          "internalType": "uint256",
          "name": "",
          "type": "uint256"
        }
      ],
      "stateMutability": "view",
      "type": "function"
    },
    {
      "inputs": [],
      "name": "adminSigner",
      "outputs": [
        {
          "internalType": "address",
          "name": "",
          "type": "address"
        }
      ],
      "stateMutability": "view",
      "type": "function"
    },
    {
      "inputs": [
        {
          "internalType": "address",
          "name": "",
          "type": "address"
        }
      ],
      "name": "balanceUpdateNonces",
      "outputs": [
        {
          "internalType": "uint256",
          "name": "",
          "type": "uint256"
        }
      ],
      "stateMutability": "view",
      "type": "function"
    },
    {
      "inputs": [],
      "name": "checkBalanceIntegrity",
      "outputs": [
        {
          "internalType": "bool",
          "name": "balanced",
          "type": "bool"
        },
        {
          "internalType": "uint256",
          "name": "contractBal",
          "type": "uint256"
        },
        {
          "internalType": "uint256",
          "name": "userBal",
          "type": "uint256"
        }
      ],
      "stateMutability": "view",
      "type": "function"
    },
    {
      "inputs": [
        {
          "internalType": "address",
          "name": "user",
          "type": "address"
        },
        {
          "internalType": "uint256",
          "name": "amount",
          "type": "uint256"
        },
        {
          "internalType": "uint256",
          "name": "nonce",
          "type": "uint256"
        },
        {
          "internalType": "bytes",
          "name": "signature",
          "type": "bytes"
        }
      ],
      "name": "creditBalance",
      "outputs": [],
      "stateMutability": "nonpayable",
      "type": "function"
    },
    {
      "inputs": [
        {
          "internalType": "address",
          "name": "user",
          "type": "address"
        },
        {
          "internalType": "uint256",
          "name": "amount",
          "type": "uint256"
        },
        {
          "internalType": "uint256",
          "name": "nonce",
          "type": "uint256"
        },
        {
          "internalType": "bytes",
          "name": "signature",
          "type": "bytes"
        }
      ],
      "name": "debitBalance",
      "outputs": [],
      "stateMutability": "nonpayable",
      "type": "function"
    },
    {
      "inputs": [
        {
          "internalType": "uint256",
          "name": "amount",
          "type": "uint256"
        }
      ],
      "name": "deposit",
      "outputs": [],
      "stateMutability": "nonpayable",
      "type": "function"
    },
    {
      "inputs": [
        {
          "internalType": "uint256",
          "name": "amount",
          "type": "uint256"
        }
      ],
      "name": "emergencyWithdraw",
      "outputs": [],
      "stateMutability": "nonpayable",
      "type": "function"
    },
    {
      "inputs": [
        {
          "internalType": "address",
          "name": "user",
          "type": "address"
        }
      ],
      "name": "getBalance",
      "outputs": [
        {
          "internalType": "uint256",
          "name": "",
          "type": "uint256"
        }
      ],
      "stateMutability": "view",
      "type": "function"
    },
    {
      "inputs": [],
      "name": "getContractBalance",
      "outputs": [
        {
          "internalType": "uint256",
          "name": "",
          "type": "uint256"
        }
      ],
      "stateMutability": "view",
      "type": "function"
    },
    {
      "inputs": [],
      "name": "getTotalUserBalances",
      "outputs": [
        {
          "internalType": "uint256",
          "name": "",
          "type": "uint256"
        }
      ],
      "stateMutability": "view",
      "type": "function"
    },
    {
      "inputs": [
        {
          "internalType": "address",
          "name": "user",
          "type": "address"
        }
      ],
      "name": "getUserStats",
      "outputs": [
        {
          "internalType": "uint256",
          "name": "currentBalance",
          "type": "uint256"
        },
        {
          "internalType": "uint256",
          "name": "deposited",
          "type": "uint256"
        },
        {
          "internalType": "uint256",
          "name": "withdrawn",
          "type": "uint256"
        },
        {
          "internalType": "uint256",
          "name": "nextNonce",
          "type": "uint256"
        },
        {
          "internalType": "uint256",
          "name": "nextBalanceUpdateNonce",
          "type": "uint256"
        }
      ],
      "stateMutability": "view",
      "type": "function"
    },
    {
      "inputs": [],
      "name": "owner",
      "outputs": [
        {
          "internalType": "address",
          "name": "",
          "type": "address"
        }
      ],
      "stateMutability": "view",
      "type": "function"
    },
    {
      "inputs": [
        {
          "internalType": "uint256",
          "name": "amount",
          "type": "uint256"
        }
      ],
      "name": "ownerWithdraw",
      "outputs": [],
      "stateMutability": "nonpayable",
      "type": "function"
    },
    {
      "inputs": [],
      "name": "ownerWithdrawAll",
      "outputs": [],
      "stateMutability": "nonpayable",
      "type": "function"
    },
    {
      "inputs": [],
      "name": "pause",
      "outputs": [],
      "stateMutability": "nonpayable",
      "type": "function"
    },
    {
      "inputs": [],
      "name": "paused",
      "outputs": [
        {
          "internalType": "bool",
          "name": "",
          "type": "bool"
        }
      ],
      "stateMutability": "view",
      "type": "function"
    },
    {
      "inputs": [],
      "name": "qtToken",
      "outputs": [
        {
          "internalType": "contract IERC20",
          "name": "",
          "type": "address"
        }
      ],
      "stateMutability": "view",
      "type": "function"
    },
    {
      "inputs": [],
      "name": "renounceOwnership",
      "outputs": [],
      "stateMutability": "nonpayable",
      "type": "function"
    },
    {
      "inputs": [],
      "name": "totalContractBalance",
      "outputs": [
        {
          "internalType": "uint256",
          "name": "",
          "type": "uint256"
        }
      ],
      "stateMutability": "view",
      "type": "function"
    },
    {
      "inputs": [
        {
          "internalType": "address",
          "name": "",
          "type": "address"
        }
      ],
      "name": "totalDeposits",
      "outputs": [
        {
          "internalType": "uint256",
          "name": "",
          "type": "uint256"
        }
      ],
      "stateMutability": "view",
      "type": "function"
    },
    {
      "inputs": [
        {
          "internalType": "address",
          "name": "",
          "type": "address"
        }
      ],
      "name": "totalWithdrawals",
      "outputs": [
        {
          "internalType": "uint256",
          "name": "",
          "type": "uint256"
        }
      ],
      "stateMutability": "view",
      "type": "function"
    },
    {
      "inputs": [
        {
          "internalType": "address",
          "name": "newOwner",
          "type": "address"
        }
      ],
      "name": "transferOwnership",
      "outputs": [],
      "stateMutability": "nonpayable",
      "type": "function"
    },
    {
      "inputs": [],
      "name": "unpause",
      "outputs": [],
      "stateMutability": "nonpayable",
      "type": "function"
    },
    {
      "inputs": [
        {
          "internalType": "address",
          "name": "newSigner",
          "type": "address"
        }
      ],
      "name": "updateAdminSigner",
      "outputs": [],
      "stateMutability": "nonpayable",
      "type": "function"
    },
    {
      "inputs": [
        {
          "internalType": "address",
          "name": "",
          "type": "address"
        }
      ],
      "name": "userBalances",
      "outputs": [
        {
          "internalType": "uint256",
          "name": "",
          "type": "uint256"
        }
      ],
      "stateMutability": "view",
      "type": "function"
    },
    {
      "inputs": [
        {
          "internalType": "uint256",
          "name": "amount",
          "type": "uint256"
        },
        {
          "internalType": "uint256",
          "name": "nonce",
          "type": "uint256"
        },
        {
          "internalType": "bytes",
          "name": "signature",
          "type": "bytes"
        }
      ],
      "name": "withdraw",
      "outputs": [],
      "stateMutability": "nonpayable",
      "type": "function"
    },
    {
      "inputs": [
        {
          "internalType": "address",
          "name": "",
          "type": "address"
        }
      ],
      "name": "withdrawalNonces",
      "outputs": [
        {
          "internalType": "uint256",
          "name": "",
          "type": "uint256"
        }
      ],
      "stateMutability": "view",
      "type": "function"
    }
  ],
  "bytecode": "0x60a06040523480156200001157600080fd5b5060405162001f3b38038062001f3b833981016040819052620000349162000151565b33806200005b57604051631e4fbdf760e01b81526000600482015260240160405180910390fd5b6200006681620000e4565b50600180556001600160a01b038216620000935760405163e6c4247b60e01b815260040160405180910390fd5b6001600160a01b038116620000bb5760405163e6c4247b60e01b815260040160405180910390fd5b6001600160a01b03918216608052600280546001600160a01b0319169190921617905562000189565b600080546001600160a01b038381166001600160a01b0319831681178455604051919092169283917f8be0079c531659141344cd1fd0a4f28419497f9722a3daafe3b4186f6b6457e09190a35050565b80516001600160a01b03811681146200014c57600080fd5b919050565b600080604083850312156200016557600080fd5b620001708362000134565b9150620001806020840162000134565b90509250929050565b608051611d42620001f9600039600081816101d9015281816104d601528181610570015281816106910152818161075b015281816107f501528181610bb501528181610dc401528181610efa0152818161102d015281816113440152818161153b01526115d50152611d426000f3fe608060405234801561001057600080fd5b50600436106101cf5760003560e01c80638456cb5911610104578063d15ca166116100a2578063e940325611610071578063e94032561461043f578063f2fde38b1461045f578063f8b2cb4f14610472578063ff9d2dcc1461049b57600080fd5b8063d15ca16614610407578063daa7805814610417578063e0d5af9414610437578063e1e158a51461040757600080fd5b8063a719528b116100de578063a719528b146103c5578063b6b55f25146103d8578063bac03cd7146103eb578063c766731e146103f457600080fd5b80638456cb59146103875780638da5cb5b1461038f5780638eae3ad3146103a057600080fd5b80635312ea8e1161017157806369f7caba1161014b57806369f7caba146103445780636f9fb98a14610364578063715018a61461036c578063744fb6ca1461037457600080fd5b80635312ea8e146103015780635c975abb14610314578063668f80201461033157600080fd5b806333f707d1116101ad57806333f707d11461024a5780633f0d2d501461025f5780633f4ba83a1461027f5780634e43603a1461028757600080fd5b806305d97f4f146101d45780630a8618681461021857806326224c641461022a575b600080fd5b6101fb7f000000000000000000000000000000000000000000000000000000000000000081565b6040516001600160a01b0390911681526020015b60405180910390f35b6008545b60405190815260200161020f565b61021c610238366004611b27565b60036020526000908152604090205481565b61025d610258366004611b49565b6104ae565b005b61021c61026d366004611b27565b60066020526000908152604090205481565b61025d610729565b6102d9610295366004611b27565b6001600160a01b0316600090815260036020908152604080832054600483528184205460058452828520546006855283862054600790955292909420549094919291565b604080519586526020860194909452928401919091526060830152608082015260a00161020f565b61025d61030f366004611b49565b61073b565b600054600160a01b900460ff16604051901515815260200161020f565b61025d61033f366004611bab565b610911565b61021c610352366004611b27565b60056020526000908152604090205481565b61021c610b9d565b61025d610c2d565b61025d610382366004611c13565b610c3f565b61025d610ff9565b6000546001600160a01b03166101fb565b6103a8611009565b60408051931515845260208401929092529082015260600161020f565b61025d6103d3366004611bab565b6110a8565b61025d6103e6366004611b49565b6112e5565b61021c60085481565b61025d610402366004611b27565b611492565b61021c683635c9adc5dea0000081565b61021c610425366004611b27565b60076020526000908152604090205481565b61025d611513565b61021c61044d366004611b27565b60046020526000908152604090205481565b61025d61046d366004611b27565b6116ff565b61021c610480366004611b27565b6001600160a01b031660009081526003602052604090205490565b6002546101fb906001600160a01b031681565b6104b661173f565b6104be61176c565b6040516370a0823160e01b81523060048201526000907f00000000000000000000000000000000000000000000000000000000000000006001600160a01b0316906370a0823190602401602060405180830381865afa158015610525573d6000803e3d6000fd5b505050506040513d601f19601f820116820180604052508101906105499190611c66565b90508082111561056c5760405163786e0a9960e01b815260040160405180910390fd5b60007f00000000000000000000000000000000000000000000000000000000000000006001600160a01b031663a9059cbb6105af6000546001600160a01b031690565b6040516001600160e01b031960e084901b1681526001600160a01b039091166004820152602481018690526044016020604051808303816000875af11580156105fc573d6000803e3d6000fd5b505050506040513d601f19601f820116820180604052508101906106209190611c7f565b905080610640576040516312171d8360e31b815260040160405180910390fd5b6000546001600160a01b03166040516370a0823160e01b81523060048201526001600160a01b03918216917f04dac1d8304dac8e7856f8cc2e1d9b6545d28637e947c4d8e93a95f1c87caf049186917f000000000000000000000000000000000000000000000000000000000000000016906370a0823190602401602060405180830381865afa1580156106d8573d6000803e3d6000fd5b505050506040513d601f19601f820116820180604052508101906106fc9190611c66565b604080519283526020830191909152429082015260600160405180910390a2505061072660018055565b50565b61073161173f565b610739611796565b565b61074361173f565b6040516370a0823160e01b81523060048201526000907f00000000000000000000000000000000000000000000000000000000000000006001600160a01b0316906370a0823190602401602060405180830381865afa1580156107aa573d6000803e3d6000fd5b505050506040513d601f19601f820116820180604052508101906107ce9190611c66565b9050808211156107f15760405163786e0a9960e01b815260040160405180910390fd5b60007f00000000000000000000000000000000000000000000000000000000000000006001600160a01b031663a9059cbb6108346000546001600160a01b031690565b6040516001600160e01b031960e084901b1681526001600160a01b039091166004820152602481018690526044016020604051808303816000875af1158015610881573d6000803e3d6000fd5b505050506040513d601f19601f820116820180604052508101906108a59190611c7f565b9050806108c5576040516312171d8360e31b815260040160405180910390fd5b600054604080518581524260208201526001600160a01b03909216917f56da9a5ae0bcf6e7c3fdd78a10550e7d0458de1c39bfb7f6e96a3e92dd344a68910160405180910390a2505050565b6109196117eb565b61092161176c565b6001600160a01b0385166109485760405163e6c4247b60e01b815260040160405180910390fd5b8360000361096957604051632ca2f52b60e11b815260040160405180910390fd5b6001600160a01b03851660009081526007602052604090205483146109a157604051633ab3447f60e11b815260040160405180910390fd5b6040516001600160601b0319606087811b82166020840152603483018790526054830186905246607484015230901b16609482015264111150925560da1b60a882015260009060ad016040516020818303038152906040528051906020012090506000610a0d82611816565b90506000610a518286868080601f01602080910402602001604051908101604052809392919081815260200183838082843760009201919091525061184992505050565b6002549091506001600160a01b03808316911614610a8257604051638baa579f60e01b815260040160405180910390fd5b6001600160a01b038816600090815260036020526040902054871115610abb576040516324aa779360e21b815260040160405180910390fd5b6001600160a01b0388166000908152600760205260408120805491610adf83611cb7565b90915550506001600160a01b03881660009081526003602052604081208054899290610b0c908490611cd0565b925050819055508660086000828254610b259190611cd0565b90915550506001600160a01b0388166000818152600360209081526040918290205482518b8152918201529081018890524260608201527f34bd695d2241cd0415d53f64b1aea377d9ea2e58609b319aaeb2a9c2613c8eb3906080015b60405180910390a2505050610b9660018055565b5050505050565b6040516370a0823160e01b81523060048201526000907f00000000000000000000000000000000000000000000000000000000000000006001600160a01b0316906370a0823190602401602060405180830381865afa158015610c04573d6000803e3d6000fd5b505050506040513d601f19601f82011682018060405250810190610c289190611c66565b905090565b610c3561173f565b6107396000611875565b610c476117eb565b610c4f61176c565b683635c9adc5dea00000841015610c7957604051632ca2f52b60e11b815260040160405180910390fd5b336000908152600660205260409020548314610ca857604051633ab3447f60e11b815260040160405180910390fd5b6040516001600160601b031933606090811b82166020840152603483018790526054830186905246607484015230901b16609482015260009060a8016040516020818303038152906040528051906020012090506000610d0782611816565b90506000610d4b8286868080601f01602080910402602001604051908101604052809392919081815260200183838082843760009201919091525061184992505050565b6002549091506001600160a01b03808316911614610d7c57604051638baa579f60e01b815260040160405180910390fd5b33600090815260036020526040902054871115610dac576040516324aa779360e21b815260040160405180910390fd5b6040516370a0823160e01b81523060048201526000907f00000000000000000000000000000000000000000000000000000000000000006001600160a01b0316906370a0823190602401602060405180830381865afa158015610e13573d6000803e3d6000fd5b505050506040513d601f19601f82011682018060405250810190610e379190611c66565b905087811015610e5a5760405163786e0a9960e01b815260040160405180910390fd5b336000908152600660205260408120805491610e7583611cb7565b909155505033600090815260036020526040812080548a9290610e99908490611cd0565b909155505033600090815260056020526040812080548a9290610ebd908490611ce3565b925050819055508760086000828254610ed69190611cd0565b909155505060405163a9059cbb60e01b8152336004820152602481018990526000907f00000000000000000000000000000000000000000000000000000000000000006001600160a01b03169063a9059cbb906044016020604051808303816000875af1158015610f4b573d6000803e3d6000fd5b505050506040513d601f19601f82011682018060405250810190610f6f9190611c7f565b905080610f8f576040516312171d8360e31b815260040160405180910390fd5b336000818152600360209081526040918290205482518d8152918201529081018a90524260608201527f94ffd6b85c71b847775c89ef6496b93cee961bdc6ff827fd117f174f06f745ae9060800160405180910390a25050505050610ff360018055565b50505050565b61100161173f565b6107396118c5565b6040516370a0823160e01b8152306004820152600090819081906001600160a01b037f000000000000000000000000000000000000000000000000000000000000000016906370a0823190602401602060405180830381865afa158015611074573d6000803e3d6000fd5b505050506040513d601f19601f820116820180604052508101906110989190611c66565b6008548082149591945092509050565b6110b06117eb565b6110b861176c565b6001600160a01b0385166110df5760405163e6c4247b60e01b815260040160405180910390fd5b8360000361110057604051632ca2f52b60e11b815260040160405180910390fd5b6001600160a01b038516600090815260076020526040902054831461113857604051633ab3447f60e11b815260040160405180910390fd5b6040516001600160601b0319606087811b82166020840152603483018790526054830186905246607484015230901b1660948201526510d49151125560d21b60a882015260009060ae0160405160208183030381529060405280519060200120905060006111a582611816565b905060006111e98286868080601f01602080910402602001604051908101604052809392919081815260200183838082843760009201919091525061184992505050565b6002549091506001600160a01b0380831691161461121a57604051638baa579f60e01b815260040160405180910390fd5b6001600160a01b038816600090815260076020526040812080549161123e83611cb7565b90915550506001600160a01b0388166000908152600360205260408120805489929061126b908490611ce3565b9250508190555086600860008282546112849190611ce3565b90915550506001600160a01b0388166000818152600360209081526040918290205482518b8152918201529081018890524260608201527fb337d839076bae6f232452d931a9f799e9ebbf552cc74d99f192dd4bb060615590608001610b82565b6112ed6117eb565b6112f561176c565b683635c9adc5dea0000081101561131f57604051632ca2f52b60e11b815260040160405180910390fd5b6040516323b872dd60e01b8152336004820152306024820152604481018290526000907f00000000000000000000000000000000000000000000000000000000000000006001600160a01b0316906323b872dd906064016020604051808303816000875af1158015611395573d6000803e3d6000fd5b505050506040513d601f19601f820116820180604052508101906113b99190611c7f565b9050806113d9576040516312171d8360e31b815260040160405180910390fd5b33600090815260036020526040812080548492906113f8908490611ce3565b9091555050336000908152600460205260408120805484929061141c908490611ce3565b9250508190555081600860008282546114359190611ce3565b90915550503360008181526003602090815260409182902054825186815291820152428183015290517f91ede45f04a37a7c170f5c1207df3b6bc748dc1e04ad5e917a241d0f52feada39181900360600190a25061072660018055565b61149a61173f565b6001600160a01b0381166114c15760405163e6c4247b60e01b815260040160405180910390fd5b600280546001600160a01b038381166001600160a01b0319831681179093556040519116919082907f6f90e3333b36a43e9473b1faf6286d9e81782ed8df1110323511fbbc67a1e61090600090a35050565b61151b61173f565b61152361176c565b6040516370a0823160e01b81523060048201526000907f00000000000000000000000000000000000000000000000000000000000000006001600160a01b0316906370a0823190602401602060405180830381865afa15801561158a573d6000803e3d6000fd5b505050506040513d601f19601f820116820180604052508101906115ae9190611c66565b9050806000036115d15760405163786e0a9960e01b815260040160405180910390fd5b60007f00000000000000000000000000000000000000000000000000000000000000006001600160a01b031663a9059cbb6116146000546001600160a01b031690565b6040516001600160e01b031960e084901b1681526001600160a01b039091166004820152602481018590526044016020604051808303816000875af1158015611661573d6000803e3d6000fd5b505050506040513d601f19601f820116820180604052508101906116859190611c7f565b9050806116a5576040516312171d8360e31b815260040160405180910390fd5b6000805460408051858152602081019390935242908301526001600160a01b0316907f04dac1d8304dac8e7856f8cc2e1d9b6545d28637e947c4d8e93a95f1c87caf049060600160405180910390a2505061073960018055565b61170761173f565b6001600160a01b03811661173657604051631e4fbdf760e01b8152600060048201526024015b60405180910390fd5b61072681611875565b6000546001600160a01b031633146107395760405163118cdaa760e01b815233600482015260240161172d565b60026001540361178f57604051633ee5aeb560e01b815260040160405180910390fd5b6002600155565b61179e611908565b6000805460ff60a01b191690557f5db9ee0a495bf2e6ff9c91a7834c1ba4fdd244a5e8aa4e537bd38aeae4b073aa335b6040516001600160a01b03909116815260200160405180910390a1565b600054600160a01b900460ff16156107395760405163d93c066560e01b815260040160405180910390fd5b7f19457468657265756d205369676e6564204d6573736167653a0a3332000000006000908152601c91909152603c902090565b6000806000806118598686611932565b925092509250611869828261197f565b50909150505b92915050565b600080546001600160a01b038381166001600160a01b0319831681178455604051919092169283917f8be0079c531659141344cd1fd0a4f28419497f9722a3daafe3b4186f6b6457e09190a35050565b6118cd6117eb565b6000805460ff60a01b1916600160a01b1790557f62e78cea01bee320cd4e420270b5ea74000d11b0c9f74754ebdbfc544b05a2586117ce3390565b600054600160a01b900460ff1661073957604051638dfc202b60e01b815260040160405180910390fd5b6000806000835160410361196c5760208401516040850151606086015160001a61195e88828585611a3c565b955095509550505050611978565b50508151600091506002905b9250925092565b600082600381111561199357611993611cf6565b0361199c575050565b60018260038111156119b0576119b0611cf6565b036119ce5760405163f645eedf60e01b815260040160405180910390fd5b60028260038111156119e2576119e2611cf6565b03611a035760405163fce698f760e01b81526004810182905260240161172d565b6003826003811115611a1757611a17611cf6565b03611a38576040516335e2f38360e21b81526004810182905260240161172d565b5050565b600080807f7fffffffffffffffffffffffffffffff5d576e7357a4501ddfe92f46681b20a0841115611a775750600091506003905082611b01565b604080516000808252602082018084528a905260ff891692820192909252606081018790526080810186905260019060a0016020604051602081039080840390855afa158015611acb573d6000803e3d6000fd5b5050604051601f1901519150506001600160a01b038116611af757506000925060019150829050611b01565b9250600091508190505b9450945094915050565b80356001600160a01b0381168114611b2257600080fd5b919050565b600060208284031215611b3957600080fd5b611b4282611b0b565b9392505050565b600060208284031215611b5b57600080fd5b5035919050565b60008083601f840112611b7457600080fd5b50813567ffffffffffffffff811115611b8c57600080fd5b602083019150836020828501011115611ba457600080fd5b9250929050565b600080600080600060808688031215611bc357600080fd5b611bcc86611b0b565b94506020860135935060408601359250606086013567ffffffffffffffff811115611bf657600080fd5b611c0288828901611b62565b969995985093965092949392505050565b60008060008060608587031215611c2957600080fd5b8435935060208501359250604085013567ffffffffffffffff811115611c4e57600080fd5b611c5a87828801611b62565b95989497509550505050565b600060208284031215611c7857600080fd5b5051919050565b600060208284031215611c9157600080fd5b81518015158114611b4257600080fd5b634e487b7160e01b600052601160045260246000fd5b600060018201611cc957611cc9611ca1565b5060010190565b8181038181111561186f5761186f611ca1565b8082018082111561186f5761186f611ca1565b634e487b7160e01b600052602160045260246000fdfea2646970667358221220354aeb2e207475fe5ab264554409bdb3a9e0174d81d16e6634bc4d108d1cf75d64736f6c63430008140033",
  "linkReferences": {},
  "deployedLinkReferences": {}
}