{
  "_format": "hh-sol-artifact-1",
  "contractName": "QTRewardDistributor",
  "sourceName": "contracts/QTRewardDistributor.sol",
  "abi": [
    {
      "inputs": [
        {
          "internalType": "address",
          "name": "_qtTokenAddress",
          "type": "address"
        }
      ],
      "stateMutability": "nonpayable",
      "type": "constructor"
    },
    {
      "anonymous": false,
      "inputs": [
        {
          "indexed": true,
          "internalType": "address",
          "name": "previousOwner",
          "type": "address"
        },
        {
          "indexed": true,
          "internalType": "address",
          "name": "newOwner",
          "type": "address"
        }
      ],
      "name": "OwnershipTransferred",
      "type": "event"
    },
    {
      "anonymous": false,
      "inputs": [
        {
          "indexed": true,
          "internalType": "address",
          "name": "user",
          "type": "address"
        },
        {
          "indexed": false,
          "internalType": "uint256",
          "name": "amount",
          "type": "uint256"
        },
        {
          "indexed": false,
          "internalType": "uint256",
          "name": "timestamp",
          "type": "uint256"
        }
      ],
      "name": "QTRewardClaimed",
      "type": "event"
    },
    {
      "anonymous": false,
      "inputs": [
        {
          "indexed": false,
          "internalType": "uint256",
          "name": "amount",
          "type": "uint256"
        },
        {
          "indexed": false,
          "internalType": "uint256",
          "name": "timestamp",
          "type": "uint256"
        }
      ],
      "name": "QTTokensDeposited",
      "type": "event"
    },
    {
      "anonymous": false,
      "inputs": [
        {
          "indexed": false,
          "internalType": "uint256",
          "name": "amount",
          "type": "uint256"
        },
        {
          "indexed": false,
          "internalType": "uint256",
          "name": "timestamp",
          "type": "uint256"
        }
      ],
      "name": "QTTokensWithdrawn",
      "type": "event"
    },
    {
      "inputs": [],
      "name": "REWARD_AMOUNT",
      "outputs": [
        {
          "internalType": "uint256",
          "name": "",
          "type": "uint256"
        }
      ],
      "stateMutability": "view",
      "type": "function"
    },
    {
      "inputs": [
        {
          "internalType": "address",
          "name": "user",
          "type": "address"
        }
      ],
      "name": "canClaimToday",
      "outputs": [
        {
          "internalType": "bool",
          "name": "",
          "type": "bool"
        }
      ],
      "stateMutability": "view",
      "type": "function"
    },
    {
      "inputs": [],
      "name": "claimQTReward",
      "outputs": [],
      "stateMutability": "nonpayable",
      "type": "function"
    },
    {
      "inputs": [
        {
          "internalType": "uint256",
          "name": "amount",
          "type": "uint256"
        }
      ],
      "name": "depositQTTokens",
      "outputs": [],
      "stateMutability": "nonpayable",
      "type": "function"
    },
    {
      "inputs": [],
      "name": "getQTBalance",
      "outputs": [
        {
          "internalType": "uint256",
          "name": "",
          "type": "uint256"
        }
      ],
      "stateMutability": "view",
      "type": "function"
    },
    {
      "inputs": [
        {
          "internalType": "address",
          "name": "user",
          "type": "address"
        }
      ],
      "name": "getUserClaimStatus",
      "outputs": [
        {
          "internalType": "uint256",
          "name": "lastClaim",
          "type": "uint256"
        },
        {
          "internalType": "bool",
          "name": "canClaim",
          "type": "bool"
        }
      ],
      "stateMutability": "view",
      "type": "function"
    },
    {
      "inputs": [
        {
          "internalType": "address",
          "name": "",
          "type": "address"
        }
      ],
      "name": "lastClaimDate",
      "outputs": [
        {
          "internalType": "uint256",
          "name": "",
          "type": "uint256"
        }
      ],
      "stateMutability": "view",
      "type": "function"
    },
    {
      "inputs": [],
      "name": "owner",
      "outputs": [
        {
          "internalType": "address",
          "name": "",
          "type": "address"
        }
      ],
      "stateMutability": "view",
      "type": "function"
    },
    {
      "inputs": [],
      "name": "qtToken",
      "outputs": [
        {
          "internalType": "address",
          "name": "",
          "type": "address"
        }
      ],
      "stateMutability": "view",
      "type": "function"
    },
    {
      "inputs": [
        {
          "internalType": "address",
          "name": "newOwner",
          "type": "address"
        }
      ],
      "name": "transferOwnership",
      "outputs": [],
      "stateMutability": "nonpayable",
      "type": "function"
    },
    {
      "inputs": [
        {
          "internalType": "uint256",
          "name": "amount",
          "type": "uint256"
        }
      ],
      "name": "withdrawQTTokens",
      "outputs": [],
      "stateMutability": "nonpayable",
      "type": "function"
    }
  ],
  "bytecode": "0x608060405234801561001057600080fd5b50604051610aa2380380610aa283398101604081905261002f9161005d565b600080546001600160a01b039092166001600160a01b0319928316179055600180549091163317905561008d565b60006020828403121561006f57600080fd5b81516001600160a01b038116811461008657600080fd5b9392505050565b610a068061009c6000396000f3fe608060405234801561001057600080fd5b50600436106100a95760003560e01c80638da5cb5b116100715780638da5cb5b1461016c578063921ec61c1461017f578063acab7f5314610192578063bca35fa91461019a578063cf849442146101a2578063f2fde38b146101b357600080fd5b806305d97f4f146100ae5780631d327636146100de57806337b7b3aa146100f3578063402aa2271461011b5780636052ccb01461013e575b600080fd5b6000546100c1906001600160a01b031681565b6040516001600160a01b0390911681526020015b60405180910390f35b6100f16100ec36600461089d565b6101c6565b005b6101066101013660046108b6565b61025b565b604080519283529015156020830152016100d5565b61012e6101293660046108b6565b610288565b60405190151581526020016100d5565b61015e61014c3660046108b6565b60026020526000908152604090205481565b6040519081526020016100d5565b6001546100c1906001600160a01b031681565b6100f161018d36600461089d565b6102bc565b61015e610342565b6100f1610352565b61015e69021e19e0c9bab240000081565b6100f16101c13660046108b6565b610510565b6001546001600160a01b031633146101f95760405162461bcd60e51b81526004016101f0906108e6565b60405180910390fd5b61020333826105ec565b61021f5760405162461bcd60e51b81526004016101f09061090d565b604080518281524260208201527fe1a7050282a9cd3459044ff8b06665451c5b38fa08662e91647e108359a12a9791015b60405180910390a150565b6001600160a01b038116600090815260026020526040812054819061027f84610288565b91509150915091565b6000806102986201518042610944565b6001600160a01b039093166000908152600260205260409020549290921092915050565b6001546001600160a01b031633146102e65760405162461bcd60e51b81526004016101f0906108e6565b6102f13330836106be565b61030d5760405162461bcd60e51b81526004016101f09061090d565b604080518281524260208201527ff6e63dc48e99b505f9cef0169d480a8a50b67821e962904a468d07a02c78ec199101610250565b600061034d30610799565b905090565b60035460ff16156103a55760405162461bcd60e51b815260206004820152601f60248201527f5265656e7472616e637947756172643a207265656e7472616e742063616c6c0060448201526064016101f0565b6003805460ff191660011790556103bb33610288565b6103ff5760405162461bcd60e51b8152602060048201526015602482015274416c726561647920636c61696d656420746f64617960581b60448201526064016101f0565b69021e19e0c9bab2400000610412610342565b101561046b5760405162461bcd60e51b815260206004820152602260248201527f496e73756666696369656e7420515420746f6b656e7320696e20636f6e74726160448201526118dd60f21b60648201526084016101f0565b600061047a6201518042610944565b3360008181526002602052604090208290559091506104a39069021e19e0c9bab24000006105ec565b6104bf5760405162461bcd60e51b81526004016101f09061090d565b6040805169021e19e0c9bab2400000815242602082015233917fa7df68877fe6232f5f8b4767a4052054c5c846025efb7da77abf0ed8fdd2247d910160405180910390a2506003805460ff19169055565b6001546001600160a01b0316331461053a5760405162461bcd60e51b81526004016101f0906108e6565b6001600160a01b0381166105905760405162461bcd60e51b815260206004820152601d60248201527f4e6577206f776e657220697320746865207a65726f206164647265737300000060448201526064016101f0565b6001546040516001600160a01b038084169216907f8be0079c531659141344cd1fd0a4f28419497f9722a3daafe3b4186f6b6457e090600090a3600180546001600160a01b0319166001600160a01b0392909216919091179055565b600080546040516001600160a01b038581166024830152604482018590528392839291169060640160408051601f198184030181529181526020820180516001600160e01b031663a9059cbb60e01b179052516106499190610966565b6000604051808303816000865af19150503d8060008114610686576040519150601f19603f3d011682016040523d82523d6000602084013e61068b565b606091505b50915091508180156106b55750805115806106b55750808060200190518101906106b59190610995565b95945050505050565b600080546040516001600160a01b0386811660248301528581166044830152606482018590528392839291169060840160408051601f198184030181529181526020820180516001600160e01b03166323b872dd60e01b179052516107239190610966565b6000604051808303816000865af19150503d8060008114610760576040519150601f19603f3d011682016040523d82523d6000602084013e610765565b606091505b509150915081801561078f57508051158061078f57508080602001905181019061078f9190610995565b9695505050505050565b600080546040516001600160a01b0384811660248301528392839291169060440160408051601f198184030181529181526020820180516001600160e01b03166370a0823160e01b179052516107ef9190610966565b600060405180830381855afa9150503d806000811461082a576040519150601f19603f3d011682016040523d82523d6000602084013e61082f565b606091505b5091509150816108815760405162461bcd60e51b815260206004820152601c60248201527f515420746f6b656e2062616c616e63652063616c6c206661696c65640000000060448201526064016101f0565b8080602001905181019061089591906109b7565b949350505050565b6000602082840312156108af57600080fd5b5035919050565b6000602082840312156108c857600080fd5b81356001600160a01b03811681146108df57600080fd5b9392505050565b6020808252600d908201526c2737ba103a34329037bbb732b960991b604082015260600190565b60208082526018908201527f515420746f6b656e207472616e73666572206661696c65640000000000000000604082015260600190565b60008261096157634e487b7160e01b600052601260045260246000fd5b500490565b6000825160005b81811015610987576020818601810151858301520161096d565b506000920191825250919050565b6000602082840312156109a757600080fd5b815180151581146108df57600080fd5b6000602082840312156109c957600080fd5b505191905056fea26469706673582212202994bcc18fd315c842cbf013b6d19801eab1aef496fddfd3dcfc1c2dd41c160464736f6c63430008130033",
  "linkReferences": {},
  "deployedLinkReferences": {}
}