{
  "_format": "hh-sol-artifact-1",
  "contractName": "DailyRewardDistributor",
  "sourceName": "contracts/DailyRewardDistributor.sol",
  "abi": [
    {
      "inputs": [
        {
          "internalType": "address",
          "name": "_initialTokenAddress",
          "type": "address"
        }
      ],
      "stateMutability": "nonpayable",
      "type": "constructor"
    },
    {
      "anonymous": false,
      "inputs": [
        {
          "indexed": true,
          "internalType": "address",
          "name": "previousOwner",
          "type": "address"
        },
        {
          "indexed": true,
          "internalType": "address",
          "name": "newOwner",
          "type": "address"
        }
      ],
      "name": "OwnershipTransferred",
      "type": "event"
    },
    {
      "anonymous": false,
      "inputs": [
        {
          "indexed": true,
          "internalType": "address",
          "name": "user",
          "type": "address"
        },
        {
          "indexed": false,
          "internalType": "uint256",
          "name": "amount",
          "type": "uint256"
        },
        {
          "indexed": false,
          "internalType": "uint256",
          "name": "timestamp",
          "type": "uint256"
        }
      ],
      "name": "QTRewardClaimed",
      "type": "event"
    },
    {
      "anonymous": false,
      "inputs": [
        {
          "indexed": true,
          "internalType": "address",
          "name": "tokenAddress",
          "type": "address"
        },
        {
          "indexed": false,
          "internalType": "uint256",
          "name": "timestamp",
          "type": "uint256"
        }
      ],
      "name": "QTTokenAddressSet",
      "type": "event"
    },
    {
      "anonymous": false,
      "inputs": [
        {
          "indexed": false,
          "internalType": "uint256",
          "name": "amount",
          "type": "uint256"
        },
        {
          "indexed": false,
          "internalType": "uint256",
          "name": "timestamp",
          "type": "uint256"
        }
      ],
      "name": "QTTokensDeposited",
      "type": "event"
    },
    {
      "anonymous": false,
      "inputs": [
        {
          "indexed": false,
          "internalType": "uint256",
          "name": "amount",
          "type": "uint256"
        },
        {
          "indexed": false,
          "internalType": "uint256",
          "name": "timestamp",
          "type": "uint256"
        }
      ],
      "name": "QTTokensWithdrawn",
      "type": "event"
    },
    {
      "inputs": [],
      "name": "REWARD_AMOUNT",
      "outputs": [
        {
          "internalType": "uint256",
          "name": "",
          "type": "uint256"
        }
      ],
      "stateMutability": "view",
      "type": "function"
    },
    {
      "inputs": [
        {
          "internalType": "address",
          "name": "user",
          "type": "address"
        }
      ],
      "name": "canClaimToday",
      "outputs": [
        {
          "internalType": "bool",
          "name": "",
          "type": "bool"
        }
      ],
      "stateMutability": "view",
      "type": "function"
    },
    {
      "inputs": [],
      "name": "claimQTReward",
      "outputs": [],
      "stateMutability": "nonpayable",
      "type": "function"
    },
    {
      "inputs": [
        {
          "internalType": "address",
          "name": "userAddress",
          "type": "address"
        }
      ],
      "name": "claimQTRewardForUser",
      "outputs": [],
      "stateMutability": "nonpayable",
      "type": "function"
    },
    {
      "inputs": [
        {
          "internalType": "uint256",
          "name": "amount",
          "type": "uint256"
        }
      ],
      "name": "depositQTTokens",
      "outputs": [],
      "stateMutability": "nonpayable",
      "type": "function"
    },
    {
      "inputs": [],
      "name": "getQTBalance",
      "outputs": [
        {
          "internalType": "uint256",
          "name": "",
          "type": "uint256"
        }
      ],
      "stateMutability": "view",
      "type": "function"
    },
    {
      "inputs": [
        {
          "internalType": "address",
          "name": "user",
          "type": "address"
        }
      ],
      "name": "getUserClaimStatus",
      "outputs": [
        {
          "internalType": "uint256",
          "name": "lastClaim",
          "type": "uint256"
        },
        {
          "internalType": "bool",
          "name": "canClaim",
          "type": "bool"
        }
      ],
      "stateMutability": "view",
      "type": "function"
    },
    {
      "inputs": [
        {
          "internalType": "address",
          "name": "",
          "type": "address"
        }
      ],
      "name": "lastClaimDate",
      "outputs": [
        {
          "internalType": "uint256",
          "name": "",
          "type": "uint256"
        }
      ],
      "stateMutability": "view",
      "type": "function"
    },
    {
      "inputs": [],
      "name": "owner",
      "outputs": [
        {
          "internalType": "address",
          "name": "",
          "type": "address"
        }
      ],
      "stateMutability": "view",
      "type": "function"
    },
    {
      "inputs": [],
      "name": "qtToken",
      "outputs": [
        {
          "internalType": "address",
          "name": "",
          "type": "address"
        }
      ],
      "stateMutability": "view",
      "type": "function"
    },
    {
      "inputs": [
        {
          "internalType": "address",
          "name": "_qtTokenAddress",
          "type": "address"
        }
      ],
      "name": "setQTTokenAddress",
      "outputs": [],
      "stateMutability": "nonpayable",
      "type": "function"
    },
    {
      "inputs": [],
      "name": "tokenAddressLocked",
      "outputs": [
        {
          "internalType": "bool",
          "name": "",
          "type": "bool"
        }
      ],
      "stateMutability": "view",
      "type": "function"
    },
    {
      "inputs": [
        {
          "internalType": "address",
          "name": "newOwner",
          "type": "address"
        }
      ],
      "name": "transferOwnership",
      "outputs": [],
      "stateMutability": "nonpayable",
      "type": "function"
    },
    {
      "inputs": [
        {
          "internalType": "uint256",
          "name": "amount",
          "type": "uint256"
        }
      ],
      "name": "withdrawQTTokens",
      "outputs": [],
      "stateMutability": "nonpayable",
      "type": "function"
    }
  ],
  "bytecode": "0x608060405234801561001057600080fd5b50604051610fe3380380610fe383398101604081905261002f916100c7565b6001600160a01b0381166100895760405162461bcd60e51b815260206004820152601e60248201527f496e697469616c20616464726573732063616e6e6f74206265207a65726f0000604482015260640160405180910390fd5b600080546001600160a01b0319166001600160a01b0392909216919091179055600180546001600160a81b0319163360ff60a01b19161790556100f7565b6000602082840312156100d957600080fd5b81516001600160a01b03811681146100f057600080fd5b9392505050565b610edd806101066000396000f3fe608060405234801561001057600080fd5b50600436106100ea5760003560e01c8063819721111161008c578063acab7f5311610066578063acab7f531461020d578063bca35fa914610215578063cf8494421461021d578063f2fde38b1461022d57600080fd5b806381972111146101d45780638da5cb5b146101e7578063921ec61c146101fa57600080fd5b8063402aa227116100c8578063402aa2271461015c5780636052ccb01461017f57806363a0a3bf146101ad5780637d10842f146101c157600080fd5b806305d97f4f146100ef5780631d3276361461011f57806337b7b3aa14610134575b600080fd5b600054610102906001600160a01b031681565b6040516001600160a01b0390911681526020015b60405180910390f35b61013261012d366004610cfb565b610240565b005b610147610142366004610d14565b6102fe565b60408051928352901515602083015201610116565b61016f61016a366004610d14565b61032b565b6040519015158152602001610116565b61019f61018d366004610d14565b60026020526000908152604090205481565b604051908152602001610116565b60015461016f90600160a01b900460ff1681565b6101326101cf366004610d14565b61035f565b6101326101e2366004610d14565b61054d565b600154610102906001600160a01b031681565b610132610208366004610cfb565b6106ed565b61019f61079c565b6101326107c4565b61019f683635c9adc5dea0000081565b61013261023b366004610d14565b61096e565b6001546001600160a01b031633146102735760405162461bcd60e51b815260040161026a90610d44565b60405180910390fd5b600154600160a01b900460ff1661029c5760405162461bcd60e51b815260040161026a90610d6b565b6102a63382610a4a565b6102c25760405162461bcd60e51b815260040161026a90610da2565b604080518281524260208201527fe1a7050282a9cd3459044ff8b06665451c5b38fa08662e91647e108359a12a9791015b60405180910390a150565b6001600160a01b03811660009081526002602052604081205481906103228461032b565b91509150915091565b60008061033b6201518042610dd9565b6001600160a01b039093166000908152600260205260409020549290921092915050565b6001546001600160a01b031633146103895760405162461bcd60e51b815260040161026a90610d44565b60035460ff16156103dc5760405162461bcd60e51b815260206004820152601f60248201527f5265656e7472616e637947756172643a207265656e7472616e742063616c6c00604482015260640161026a565b6003805460ff1916600190811790915554600160a01b900460ff166104135760405162461bcd60e51b815260040161026a90610d6b565b61041c8161032b565b6104685760405162461bcd60e51b815260206004820152601a60248201527f5573657220616c726561647920636c61696d656420746f646179000000000000604482015260640161026a565b683635c9adc5dea0000061047a61079c565b10156104985760405162461bcd60e51b815260040161026a90610dfb565b60006104a76201518042610dd9565b6001600160a01b038316600090815260026020526040902081905590506104d782683635c9adc5dea00000610a4a565b6104f35760405162461bcd60e51b815260040161026a90610da2565b60408051683635c9adc5dea0000081524260208201526001600160a01b038416917fa7df68877fe6232f5f8b4767a4052054c5c846025efb7da77abf0ed8fdd2247d910160405180910390a250506003805460ff19169055565b6001546001600160a01b031633146105775760405162461bcd60e51b815260040161026a90610d44565b600154600160a01b900460ff16156105d15760405162461bcd60e51b815260206004820152601c60248201527f546f6b656e206164647265737320616c7265616479206c6f636b656400000000604482015260640161026a565b6001600160a01b0381166106275760405162461bcd60e51b815260206004820152601c60248201527f546f6b656e20616464726573732063616e6e6f74206265207a65726f00000000604482015260640161026a565b6000546001600160a01b03908116908216036106855760405162461bcd60e51b815260206004820152601760248201527f53616d6520616464726573732061732063757272656e74000000000000000000604482015260640161026a565b600080546001600160a01b0383166001600160a01b031990911681179091556001805460ff60a01b1916600160a01b1790556040514281527fc20bfeefac30a610dcd82ceb754398fdf40a22d69bf0c400b5efa2cb3372e86f9060200160405180910390a250565b6001546001600160a01b031633146107175760405162461bcd60e51b815260040161026a90610d44565b600154600160a01b900460ff166107405760405162461bcd60e51b815260040161026a90610d6b565b61074b333083610b1c565b6107675760405162461bcd60e51b815260040161026a90610da2565b604080518281524260208201527ff6e63dc48e99b505f9cef0169d480a8a50b67821e962904a468d07a02c78ec1991016102f3565b600154600090600160a01b900460ff166107b65750600090565b6107bf30610bf7565b905090565b60035460ff16156108175760405162461bcd60e51b815260206004820152601f60248201527f5265656e7472616e637947756172643a207265656e7472616e742063616c6c00604482015260640161026a565b6003805460ff1916600190811790915554600160a01b900460ff1661084e5760405162461bcd60e51b815260040161026a90610d6b565b6108573361032b565b61089b5760405162461bcd60e51b8152602060048201526015602482015274416c726561647920636c61696d656420746f64617960581b604482015260640161026a565b683635c9adc5dea000006108ad61079c565b10156108cb5760405162461bcd60e51b815260040161026a90610dfb565b60006108da6201518042610dd9565b33600081815260026020526040902082905590915061090290683635c9adc5dea00000610a4a565b61091e5760405162461bcd60e51b815260040161026a90610da2565b60408051683635c9adc5dea00000815242602082015233917fa7df68877fe6232f5f8b4767a4052054c5c846025efb7da77abf0ed8fdd2247d910160405180910390a2506003805460ff19169055565b6001546001600160a01b031633146109985760405162461bcd60e51b815260040161026a90610d44565b6001600160a01b0381166109ee5760405162461bcd60e51b815260206004820152601d60248201527f4e6577206f776e657220697320746865207a65726f2061646472657373000000604482015260640161026a565b6001546040516001600160a01b038084169216907f8be0079c531659141344cd1fd0a4f28419497f9722a3daafe3b4186f6b6457e090600090a3600180546001600160a01b0319166001600160a01b0392909216919091179055565b600080546040516001600160a01b038581166024830152604482018590528392839291169060640160408051601f198184030181529181526020820180516001600160e01b031663a9059cbb60e01b17905251610aa79190610e3d565b6000604051808303816000865af19150503d8060008114610ae4576040519150601f19603f3d011682016040523d82523d6000602084013e610ae9565b606091505b5091509150818015610b13575080511580610b13575080806020019051810190610b139190610e6c565b95945050505050565b600080546040516001600160a01b0386811660248301528581166044830152606482018590528392839291169060840160408051601f198184030181529181526020820180516001600160e01b03166323b872dd60e01b17905251610b819190610e3d565b6000604051808303816000865af19150503d8060008114610bbe576040519150601f19603f3d011682016040523d82523d6000602084013e610bc3565b606091505b5091509150818015610bed575080511580610bed575080806020019051810190610bed9190610e6c565b9695505050505050565b600080546040516001600160a01b0384811660248301528392839291169060440160408051601f198184030181529181526020820180516001600160e01b03166370a0823160e01b17905251610c4d9190610e3d565b600060405180830381855afa9150503d8060008114610c88576040519150601f19603f3d011682016040523d82523d6000602084013e610c8d565b606091505b509150915081610cdf5760405162461bcd60e51b815260206004820152601c60248201527f515420746f6b656e2062616c616e63652063616c6c206661696c656400000000604482015260640161026a565b80806020019051810190610cf39190610e8e565b949350505050565b600060208284031215610d0d57600080fd5b5035919050565b600060208284031215610d2657600080fd5b81356001600160a01b0381168114610d3d57600080fd5b9392505050565b6020808252600d908201526c2737ba103a34329037bbb732b960991b604082015260600190565b60208082526019908201527f546f6b656e2061646472657373206e6f74207365742079657400000000000000604082015260600190565b60208082526018908201527f515420746f6b656e207472616e73666572206661696c65640000000000000000604082015260600190565b600082610df657634e487b7160e01b600052601260045260246000fd5b500490565b60208082526022908201527f496e73756666696369656e7420515420746f6b656e7320696e20636f6e74726160408201526118dd60f21b606082015260800190565b6000825160005b81811015610e5e5760208186018101518583015201610e44565b506000920191825250919050565b600060208284031215610e7e57600080fd5b81518015158114610d3d57600080fd5b600060208284031215610ea057600080fd5b505191905056fea264697066735822122013adead3fc1ea8241d71631f98d53d9f521e2ad1fb01d6aec59d3ef184ed406064736f6c63430008140033",
  "linkReferences": {},
  "deployedLinkReferences": {}
}