{
  "_format": "hh-sol-artifact-1",
  "contractName": "DailyRewardDistributor",
  "sourceName": "contracts/DailyRewardDistributor.sol",
  "abi": [
    {
      "inputs": [
        {
          "internalType": "address",
          "name": "_qtTokenAddress",
          "type": "address"
        }
      ],
      "stateMutability": "nonpayable",
      "type": "constructor"
    },
    {
      "anonymous": false,
      "inputs": [
        {
          "indexed": true,
          "internalType": "address",
          "name": "previousOwner",
          "type": "address"
        },
        {
          "indexed": true,
          "internalType": "address",
          "name": "newOwner",
          "type": "address"
        }
      ],
      "name": "OwnershipTransferred",
      "type": "event"
    },
    {
      "anonymous": false,
      "inputs": [
        {
          "indexed": true,
          "internalType": "address",
          "name": "user",
          "type": "address"
        },
        {
          "indexed": false,
          "internalType": "uint256",
          "name": "amount",
          "type": "uint256"
        },
        {
          "indexed": false,
          "internalType": "uint256",
          "name": "timestamp",
          "type": "uint256"
        }
      ],
      "name": "QTRewardClaimed",
      "type": "event"
    },
    {
      "anonymous": false,
      "inputs": [
        {
          "indexed": false,
          "internalType": "uint256",
          "name": "amount",
          "type": "uint256"
        },
        {
          "indexed": false,
          "internalType": "uint256",
          "name": "timestamp",
          "type": "uint256"
        }
      ],
      "name": "QTTokensDeposited",
      "type": "event"
    },
    {
      "anonymous": false,
      "inputs": [
        {
          "indexed": false,
          "internalType": "uint256",
          "name": "amount",
          "type": "uint256"
        },
        {
          "indexed": false,
          "internalType": "uint256",
          "name": "timestamp",
          "type": "uint256"
        }
      ],
      "name": "QTTokensWithdrawn",
      "type": "event"
    },
    {
      "inputs": [],
      "name": "REWARD_AMOUNT",
      "outputs": [
        {
          "internalType": "uint256",
          "name": "",
          "type": "uint256"
        }
      ],
      "stateMutability": "view",
      "type": "function"
    },
    {
      "inputs": [
        {
          "internalType": "address",
          "name": "user",
          "type": "address"
        }
      ],
      "name": "canClaimToday",
      "outputs": [
        {
          "internalType": "bool",
          "name": "",
          "type": "bool"
        }
      ],
      "stateMutability": "view",
      "type": "function"
    },
    {
      "inputs": [],
      "name": "claimQTReward",
      "outputs": [],
      "stateMutability": "nonpayable",
      "type": "function"
    },
    {
      "inputs": [
        {
          "internalType": "address",
          "name": "userAddress",
          "type": "address"
        }
      ],
      "name": "claimQTRewardForUser",
      "outputs": [],
      "stateMutability": "nonpayable",
      "type": "function"
    },
    {
      "inputs": [
        {
          "internalType": "uint256",
          "name": "amount",
          "type": "uint256"
        }
      ],
      "name": "depositQTTokens",
      "outputs": [],
      "stateMutability": "nonpayable",
      "type": "function"
    },
    {
      "inputs": [],
      "name": "getQTBalance",
      "outputs": [
        {
          "internalType": "uint256",
          "name": "",
          "type": "uint256"
        }
      ],
      "stateMutability": "view",
      "type": "function"
    },
    {
      "inputs": [
        {
          "internalType": "address",
          "name": "user",
          "type": "address"
        }
      ],
      "name": "getUserClaimStatus",
      "outputs": [
        {
          "internalType": "uint256",
          "name": "lastClaim",
          "type": "uint256"
        },
        {
          "internalType": "bool",
          "name": "canClaim",
          "type": "bool"
        }
      ],
      "stateMutability": "view",
      "type": "function"
    },
    {
      "inputs": [
        {
          "internalType": "address",
          "name": "",
          "type": "address"
        }
      ],
      "name": "lastClaimDate",
      "outputs": [
        {
          "internalType": "uint256",
          "name": "",
          "type": "uint256"
        }
      ],
      "stateMutability": "view",
      "type": "function"
    },
    {
      "inputs": [],
      "name": "owner",
      "outputs": [
        {
          "internalType": "address",
          "name": "",
          "type": "address"
        }
      ],
      "stateMutability": "view",
      "type": "function"
    },
    {
      "inputs": [],
      "name": "qtToken",
      "outputs": [
        {
          "internalType": "address",
          "name": "",
          "type": "address"
        }
      ],
      "stateMutability": "view",
      "type": "function"
    },
    {
      "inputs": [
        {
          "internalType": "address",
          "name": "newOwner",
          "type": "address"
        }
      ],
      "name": "transferOwnership",
      "outputs": [],
      "stateMutability": "nonpayable",
      "type": "function"
    },
    {
      "inputs": [
        {
          "internalType": "uint256",
          "name": "amount",
          "type": "uint256"
        }
      ],
      "name": "withdrawQTTokens",
      "outputs": [],
      "stateMutability": "nonpayable",
      "type": "function"
    }
  ],
  "bytecode": "0x608060405234801561001057600080fd5b50604051610c87380380610c8783398101604081905261002f9161005d565b600080546001600160a01b039092166001600160a01b0319928316179055600180549091163317905561008d565b60006020828403121561006f57600080fd5b81516001600160a01b038116811461008657600080fd5b9392505050565b610beb8061009c6000396000f3fe608060405234801561001057600080fd5b50600436106100b45760003560e01c80638da5cb5b116100715780638da5cb5b1461018a578063921ec61c1461019d578063acab7f53146101b0578063bca35fa9146101b8578063cf849442146101c0578063f2fde38b146101d057600080fd5b806305d97f4f146100b95780631d327636146100e957806337b7b3aa146100fe578063402aa227146101265780636052ccb0146101495780637d10842f14610177575b600080fd5b6000546100cc906001600160a01b031681565b6040516001600160a01b0390911681526020015b60405180910390f35b6100fc6100f7366004610a40565b6101e3565b005b61011161010c366004610a59565b610278565b604080519283529015156020830152016100e0565b610139610134366004610a59565b6102a5565b60405190151581526020016100e0565b610169610157366004610a59565b60026020526000908152604090205481565b6040519081526020016100e0565b6100fc610185366004610a59565b6102d9565b6001546100cc906001600160a01b031681565b6100fc6101ab366004610a40565b61049d565b610169610523565b6100fc610533565b610169683635c9adc5dea0000081565b6100fc6101de366004610a59565b6106b3565b6001546001600160a01b031633146102165760405162461bcd60e51b815260040161020d90610a89565b60405180910390fd5b610220338261078f565b61023c5760405162461bcd60e51b815260040161020d90610ab0565b604080518281524260208201527fe1a7050282a9cd3459044ff8b06665451c5b38fa08662e91647e108359a12a9791015b60405180910390a150565b6001600160a01b038116600090815260026020526040812054819061029c846102a5565b91509150915091565b6000806102b56201518042610ae7565b6001600160a01b039093166000908152600260205260409020549290921092915050565b6001546001600160a01b031633146103035760405162461bcd60e51b815260040161020d90610a89565b60035460ff16156103565760405162461bcd60e51b815260206004820152601f60248201527f5265656e7472616e637947756172643a207265656e7472616e742063616c6c00604482015260640161020d565b6003805460ff1916600117905561036c816102a5565b6103b85760405162461bcd60e51b815260206004820152601a60248201527f5573657220616c726561647920636c61696d656420746f646179000000000000604482015260640161020d565b683635c9adc5dea000006103ca610523565b10156103e85760405162461bcd60e51b815260040161020d90610b09565b60006103f76201518042610ae7565b6001600160a01b0383166000908152600260205260409020819055905061042782683635c9adc5dea0000061078f565b6104435760405162461bcd60e51b815260040161020d90610ab0565b60408051683635c9adc5dea0000081524260208201526001600160a01b038416917fa7df68877fe6232f5f8b4767a4052054c5c846025efb7da77abf0ed8fdd2247d910160405180910390a250506003805460ff19169055565b6001546001600160a01b031633146104c75760405162461bcd60e51b815260040161020d90610a89565b6104d2333083610861565b6104ee5760405162461bcd60e51b815260040161020d90610ab0565b604080518281524260208201527ff6e63dc48e99b505f9cef0169d480a8a50b67821e962904a468d07a02c78ec19910161026d565b600061052e3061093c565b905090565b60035460ff16156105865760405162461bcd60e51b815260206004820152601f60248201527f5265656e7472616e637947756172643a207265656e7472616e742063616c6c00604482015260640161020d565b6003805460ff1916600117905561059c336102a5565b6105e05760405162461bcd60e51b8152602060048201526015602482015274416c726561647920636c61696d656420746f64617960581b604482015260640161020d565b683635c9adc5dea000006105f2610523565b10156106105760405162461bcd60e51b815260040161020d90610b09565b600061061f6201518042610ae7565b33600081815260026020526040902082905590915061064790683635c9adc5dea0000061078f565b6106635760405162461bcd60e51b815260040161020d90610ab0565b60408051683635c9adc5dea00000815242602082015233917fa7df68877fe6232f5f8b4767a4052054c5c846025efb7da77abf0ed8fdd2247d910160405180910390a2506003805460ff19169055565b6001546001600160a01b031633146106dd5760405162461bcd60e51b815260040161020d90610a89565b6001600160a01b0381166107335760405162461bcd60e51b815260206004820152601d60248201527f4e6577206f776e657220697320746865207a65726f2061646472657373000000604482015260640161020d565b6001546040516001600160a01b038084169216907f8be0079c531659141344cd1fd0a4f28419497f9722a3daafe3b4186f6b6457e090600090a3600180546001600160a01b0319166001600160a01b0392909216919091179055565b600080546040516001600160a01b038581166024830152604482018590528392839291169060640160408051601f198184030181529181526020820180516001600160e01b031663a9059cbb60e01b179052516107ec9190610b4b565b6000604051808303816000865af19150503d8060008114610829576040519150601f19603f3d011682016040523d82523d6000602084013e61082e565b606091505b50915091508180156108585750805115806108585750808060200190518101906108589190610b7a565b95945050505050565b600080546040516001600160a01b0386811660248301528581166044830152606482018590528392839291169060840160408051601f198184030181529181526020820180516001600160e01b03166323b872dd60e01b179052516108c69190610b4b565b6000604051808303816000865af19150503d8060008114610903576040519150601f19603f3d011682016040523d82523d6000602084013e610908565b606091505b50915091508180156109325750805115806109325750808060200190518101906109329190610b7a565b9695505050505050565b600080546040516001600160a01b0384811660248301528392839291169060440160408051601f198184030181529181526020820180516001600160e01b03166370a0823160e01b179052516109929190610b4b565b600060405180830381855afa9150503d80600081146109cd576040519150601f19603f3d011682016040523d82523d6000602084013e6109d2565b606091505b509150915081610a245760405162461bcd60e51b815260206004820152601c60248201527f515420746f6b656e2062616c616e63652063616c6c206661696c656400000000604482015260640161020d565b80806020019051810190610a389190610b9c565b949350505050565b600060208284031215610a5257600080fd5b5035919050565b600060208284031215610a6b57600080fd5b81356001600160a01b0381168114610a8257600080fd5b9392505050565b6020808252600d908201526c2737ba103a34329037bbb732b960991b604082015260600190565b60208082526018908201527f515420746f6b656e207472616e73666572206661696c65640000000000000000604082015260600190565b600082610b0457634e487b7160e01b600052601260045260246000fd5b500490565b60208082526022908201527f496e73756666696369656e7420515420746f6b656e7320696e20636f6e74726160408201526118dd60f21b606082015260800190565b6000825160005b81811015610b6c5760208186018101518583015201610b52565b506000920191825250919050565b600060208284031215610b8c57600080fd5b81518015158114610a8257600080fd5b600060208284031215610bae57600080fd5b505191905056fea2646970667358221220018ecae7cf4acc2c274e6d989446a5ccb43d906a654786c6f22f6df57aec8d5664736f6c63430008140033",
  "linkReferences": {},
  "deployedLinkReferences": {}
}