{
  "_format": "hh-sol-artifact-1",
  "contractName": "BetModeVault",
  "sourceName": "contracts/BetModeVaultFlattened.sol",
  "abi": [
    {
      "inputs": [
        {
          "internalType": "address",
          "name": "_qtToken",
          "type": "address"
        },
        {
          "internalType": "address",
          "name": "_adminSigner",
          "type": "address"
        }
      ],
      "stateMutability": "nonpayable",
      "type": "constructor"
    },
    {
      "inputs": [],
      "name": "ECDSAInvalidSignature",
      "type": "error"
    },
    {
      "inputs": [
        {
          "internalType": "uint256",
          "name": "length",
          "type": "uint256"
        }
      ],
      "name": "ECDSAInvalidSignatureLength",
      "type": "error"
    },
    {
      "inputs": [
        {
          "internalType": "bytes32",
          "name": "s",
          "type": "bytes32"
        }
      ],
      "name": "ECDSAInvalidSignatureS",
      "type": "error"
    },
    {
      "inputs": [],
      "name": "EnforcedPause",
      "type": "error"
    },
    {
      "inputs": [],
      "name": "ExpectedPause",
      "type": "error"
    },
    {
      "inputs": [],
      "name": "InsufficientAmount",
      "type": "error"
    },
    {
      "inputs": [],
      "name": "InsufficientContractBalance",
      "type": "error"
    },
    {
      "inputs": [],
      "name": "InsufficientUserBalance",
      "type": "error"
    },
    {
      "inputs": [],
      "name": "InvalidAddress",
      "type": "error"
    },
    {
      "inputs": [],
      "name": "InvalidNonce",
      "type": "error"
    },
    {
      "inputs": [],
      "name": "InvalidSignature",
      "type": "error"
    },
    {
      "inputs": [
        {
          "internalType": "address",
          "name": "owner",
          "type": "address"
        }
      ],
      "name": "OwnableInvalidOwner",
      "type": "error"
    },
    {
      "inputs": [
        {
          "internalType": "address",
          "name": "account",
          "type": "address"
        }
      ],
      "name": "OwnableUnauthorizedAccount",
      "type": "error"
    },
    {
      "inputs": [],
      "name": "ReentrancyGuardReentrantCall",
      "type": "error"
    },
    {
      "inputs": [],
      "name": "TransferFailed",
      "type": "error"
    },
    {
      "anonymous": false,
      "inputs": [
        {
          "indexed": true,
          "internalType": "address",
          "name": "oldSigner",
          "type": "address"
        },
        {
          "indexed": true,
          "internalType": "address",
          "name": "newSigner",
          "type": "address"
        }
      ],
      "name": "AdminSignerUpdated",
      "type": "event"
    },
    {
      "anonymous": false,
      "inputs": [
        {
          "indexed": true,
          "internalType": "address",
          "name": "user",
          "type": "address"
        },
        {
          "indexed": false,
          "internalType": "uint256",
          "name": "amount",
          "type": "uint256"
        },
        {
          "indexed": false,
          "internalType": "uint256",
          "name": "newBalance",
          "type": "uint256"
        },
        {
          "indexed": false,
          "internalType": "uint256",
          "name": "timestamp",
          "type": "uint256"
        }
      ],
      "name": "Deposited",
      "type": "event"
    },
    {
      "anonymous": false,
      "inputs": [
        {
          "indexed": true,
          "internalType": "address",
          "name": "admin",
          "type": "address"
        },
        {
          "indexed": false,
          "internalType": "uint256",
          "name": "amount",
          "type": "uint256"
        },
        {
          "indexed": false,
          "internalType": "uint256",
          "name": "timestamp",
          "type": "uint256"
        }
      ],
      "name": "EmergencyWithdrawal",
      "type": "event"
    },
    {
      "anonymous": false,
      "inputs": [
        {
          "indexed": true,
          "internalType": "address",
          "name": "owner",
          "type": "address"
        },
        {
          "indexed": false,
          "internalType": "uint256",
          "name": "amount",
          "type": "uint256"
        },
        {
          "indexed": false,
          "internalType": "uint256",
          "name": "remainingBalance",
          "type": "uint256"
        },
        {
          "indexed": false,
          "internalType": "uint256",
          "name": "timestamp",
          "type": "uint256"
        }
      ],
      "name": "OwnerWithdrawal",
      "type": "event"
    },
    {
      "anonymous": false,
      "inputs": [
        {
          "indexed": true,
          "internalType": "address",
          "name": "previousOwner",
          "type": "address"
        },
        {
          "indexed": true,
          "internalType": "address",
          "name": "newOwner",
          "type": "address"
        }
      ],
      "name": "OwnershipTransferred",
      "type": "event"
    },
    {
      "anonymous": false,
      "inputs": [
        {
          "indexed": false,
          "internalType": "address",
          "name": "account",
          "type": "address"
        }
      ],
      "name": "Paused",
      "type": "event"
    },
    {
      "anonymous": false,
      "inputs": [
        {
          "indexed": false,
          "internalType": "address",
          "name": "account",
          "type": "address"
        }
      ],
      "name": "Unpaused",
      "type": "event"
    },
    {
      "anonymous": false,
      "inputs": [
        {
          "indexed": true,
          "internalType": "address",
          "name": "user",
          "type": "address"
        },
        {
          "indexed": false,
          "internalType": "uint256",
          "name": "amount",
          "type": "uint256"
        },
        {
          "indexed": false,
          "internalType": "uint256",
          "name": "newBalance",
          "type": "uint256"
        },
        {
          "indexed": false,
          "internalType": "uint256",
          "name": "nonce",
          "type": "uint256"
        },
        {
          "indexed": false,
          "internalType": "uint256",
          "name": "timestamp",
          "type": "uint256"
        }
      ],
      "name": "Withdrawn",
      "type": "event"
    },
    {
      "inputs": [],
      "name": "MIN_DEPOSIT",
      "outputs": [
        {
          "internalType": "uint256",
          "name": "",
          "type": "uint256"
        }
      ],
      "stateMutability": "view",
      "type": "function"
    },
    {
      "inputs": [],
      "name": "MIN_WITHDRAWAL",
      "outputs": [
        {
          "internalType": "uint256",
          "name": "",
          "type": "uint256"
        }
      ],
      "stateMutability": "view",
      "type": "function"
    },
    {
      "inputs": [],
      "name": "adminSigner",
      "outputs": [
        {
          "internalType": "address",
          "name": "",
          "type": "address"
        }
      ],
      "stateMutability": "view",
      "type": "function"
    },
    {
      "inputs": [],
      "name": "checkBalanceIntegrity",
      "outputs": [
        {
          "internalType": "bool",
          "name": "balanced",
          "type": "bool"
        },
        {
          "internalType": "uint256",
          "name": "contractBal",
          "type": "uint256"
        },
        {
          "internalType": "uint256",
          "name": "userBal",
          "type": "uint256"
        }
      ],
      "stateMutability": "view",
      "type": "function"
    },
    {
      "inputs": [
        {
          "internalType": "uint256",
          "name": "amount",
          "type": "uint256"
        }
      ],
      "name": "deposit",
      "outputs": [],
      "stateMutability": "nonpayable",
      "type": "function"
    },
    {
      "inputs": [
        {
          "internalType": "uint256",
          "name": "amount",
          "type": "uint256"
        }
      ],
      "name": "emergencyWithdraw",
      "outputs": [],
      "stateMutability": "nonpayable",
      "type": "function"
    },
    {
      "inputs": [
        {
          "internalType": "address",
          "name": "user",
          "type": "address"
        }
      ],
      "name": "getBalance",
      "outputs": [
        {
          "internalType": "uint256",
          "name": "",
          "type": "uint256"
        }
      ],
      "stateMutability": "view",
      "type": "function"
    },
    {
      "inputs": [],
      "name": "getContractBalance",
      "outputs": [
        {
          "internalType": "uint256",
          "name": "",
          "type": "uint256"
        }
      ],
      "stateMutability": "view",
      "type": "function"
    },
    {
      "inputs": [],
      "name": "getTotalUserBalances",
      "outputs": [
        {
          "internalType": "uint256",
          "name": "",
          "type": "uint256"
        }
      ],
      "stateMutability": "view",
      "type": "function"
    },
    {
      "inputs": [
        {
          "internalType": "address",
          "name": "user",
          "type": "address"
        }
      ],
      "name": "getUserStats",
      "outputs": [
        {
          "internalType": "uint256",
          "name": "currentBalance",
          "type": "uint256"
        },
        {
          "internalType": "uint256",
          "name": "deposited",
          "type": "uint256"
        },
        {
          "internalType": "uint256",
          "name": "withdrawn",
          "type": "uint256"
        },
        {
          "internalType": "uint256",
          "name": "nextNonce",
          "type": "uint256"
        }
      ],
      "stateMutability": "view",
      "type": "function"
    },
    {
      "inputs": [],
      "name": "owner",
      "outputs": [
        {
          "internalType": "address",
          "name": "",
          "type": "address"
        }
      ],
      "stateMutability": "view",
      "type": "function"
    },
    {
      "inputs": [
        {
          "internalType": "uint256",
          "name": "amount",
          "type": "uint256"
        }
      ],
      "name": "ownerWithdraw",
      "outputs": [],
      "stateMutability": "nonpayable",
      "type": "function"
    },
    {
      "inputs": [],
      "name": "ownerWithdrawAll",
      "outputs": [],
      "stateMutability": "nonpayable",
      "type": "function"
    },
    {
      "inputs": [],
      "name": "pause",
      "outputs": [],
      "stateMutability": "nonpayable",
      "type": "function"
    },
    {
      "inputs": [],
      "name": "paused",
      "outputs": [
        {
          "internalType": "bool",
          "name": "",
          "type": "bool"
        }
      ],
      "stateMutability": "view",
      "type": "function"
    },
    {
      "inputs": [],
      "name": "qtToken",
      "outputs": [
        {
          "internalType": "contract IERC20",
          "name": "",
          "type": "address"
        }
      ],
      "stateMutability": "view",
      "type": "function"
    },
    {
      "inputs": [],
      "name": "renounceOwnership",
      "outputs": [],
      "stateMutability": "nonpayable",
      "type": "function"
    },
    {
      "inputs": [],
      "name": "totalContractBalance",
      "outputs": [
        {
          "internalType": "uint256",
          "name": "",
          "type": "uint256"
        }
      ],
      "stateMutability": "view",
      "type": "function"
    },
    {
      "inputs": [
        {
          "internalType": "address",
          "name": "",
          "type": "address"
        }
      ],
      "name": "totalDeposits",
      "outputs": [
        {
          "internalType": "uint256",
          "name": "",
          "type": "uint256"
        }
      ],
      "stateMutability": "view",
      "type": "function"
    },
    {
      "inputs": [
        {
          "internalType": "address",
          "name": "",
          "type": "address"
        }
      ],
      "name": "totalWithdrawals",
      "outputs": [
        {
          "internalType": "uint256",
          "name": "",
          "type": "uint256"
        }
      ],
      "stateMutability": "view",
      "type": "function"
    },
    {
      "inputs": [
        {
          "internalType": "address",
          "name": "newOwner",
          "type": "address"
        }
      ],
      "name": "transferOwnership",
      "outputs": [],
      "stateMutability": "nonpayable",
      "type": "function"
    },
    {
      "inputs": [],
      "name": "unpause",
      "outputs": [],
      "stateMutability": "nonpayable",
      "type": "function"
    },
    {
      "inputs": [
        {
          "internalType": "address",
          "name": "newSigner",
          "type": "address"
        }
      ],
      "name": "updateAdminSigner",
      "outputs": [],
      "stateMutability": "nonpayable",
      "type": "function"
    },
    {
      "inputs": [
        {
          "internalType": "address",
          "name": "",
          "type": "address"
        }
      ],
      "name": "userBalances",
      "outputs": [
        {
          "internalType": "uint256",
          "name": "",
          "type": "uint256"
        }
      ],
      "stateMutability": "view",
      "type": "function"
    },
    {
      "inputs": [
        {
          "internalType": "uint256",
          "name": "amount",
          "type": "uint256"
        },
        {
          "internalType": "uint256",
          "name": "nonce",
          "type": "uint256"
        },
        {
          "internalType": "bytes",
          "name": "signature",
          "type": "bytes"
        }
      ],
      "name": "withdraw",
      "outputs": [],
      "stateMutability": "nonpayable",
      "type": "function"
    },
    {
      "inputs": [
        {
          "internalType": "address",
          "name": "",
          "type": "address"
        }
      ],
      "name": "withdrawalNonces",
      "outputs": [
        {
          "internalType": "uint256",
          "name": "",
          "type": "uint256"
        }
      ],
      "stateMutability": "view",
      "type": "function"
    }
  ],
  "bytecode": "0x60a06040523480156200001157600080fd5b506040516200194938038062001949833981016040819052620000349162000151565b33806200005b57604051631e4fbdf760e01b81526000600482015260240160405180910390fd5b6200006681620000e4565b50600180556001600160a01b038216620000935760405163e6c4247b60e01b815260040160405180910390fd5b6001600160a01b038116620000bb5760405163e6c4247b60e01b815260040160405180910390fd5b6001600160a01b03918216608052600280546001600160a01b0319169190921617905562000189565b600080546001600160a01b038381166001600160a01b0319831681178455604051919092169283917f8be0079c531659141344cd1fd0a4f28419497f9722a3daafe3b4186f6b6457e09190a35050565b80516001600160a01b03811681146200014c57600080fd5b919050565b600080604083850312156200016557600080fd5b620001708362000134565b9150620001806020840162000134565b90509250929050565b608051611750620001f9600039600081816101980152818161043f015281816104d9015281816105fa015281816106c40152818161075e0152818161089201528181610ad401528181610c0a01528181610d3d01528181610e170152818161100e01526110a801526117506000f3fe608060405234801561001057600080fd5b506004361061018e5760003560e01c80638456cb59116100de578063d15ca16611610097578063e940325611610071578063e9403256146103a8578063f2fde38b146103c8578063f8b2cb4f146103db578063ff9d2dcc1461040457600080fd5b8063d15ca16614610390578063e0d5af94146103a0578063e1e158a51461039057600080fd5b80638456cb59146103235780638da5cb5b1461032b5780638eae3ad31461033c578063b6b55f2514610361578063bac03cd714610374578063c766731e1461037d57600080fd5b80634e43603a1161014b57806369f7caba1161012557806369f7caba146102e05780636f9fb98a14610300578063715018a614610308578063744fb6ca1461031057600080fd5b80634e43603a146102465780635312ea8e146102b05780635c975abb146102c357600080fd5b806305d97f4f146101935780630a861868146101d757806326224c64146101e957806333f707d1146102095780633f0d2d501461021e5780633f4ba83a1461023e575b600080fd5b6101ba7f000000000000000000000000000000000000000000000000000000000000000081565b6040516001600160a01b0390911681526020015b60405180910390f35b6007545b6040519081526020016101ce565b6101db6101f73660046115ab565b60036020526000908152604090205481565b61021c6102173660046115db565b610417565b005b6101db61022c3660046115ab565b60066020526000908152604090205481565b61021c610692565b6102906102543660046115ab565b6001600160a01b031660009081526003602090815260408083205460048352818420546005845282852054600690945291909320549293909290565b6040805194855260208501939093529183015260608201526080016101ce565b61021c6102be3660046115db565b6106a4565b600054600160a01b900460ff1660405190151581526020016101ce565b6101db6102ee3660046115ab565b60056020526000908152604090205481565b6101db61087a565b61021c61090a565b61021c61031e3660046115f4565b61091c565b61021c610d09565b6000546001600160a01b03166101ba565b610344610d19565b6040805193151584526020840192909252908201526060016101ce565b61021c61036f3660046115db565b610db8565b6101db60075481565b61021c61038b3660046115ab565b610f65565b6101db683635c9adc5dea0000081565b61021c610fe6565b6101db6103b63660046115ab565b60046020526000908152604090205481565b61021c6103d63660046115ab565b6111d2565b6101db6103e93660046115ab565b6001600160a01b031660009081526003602052604090205490565b6002546101ba906001600160a01b031681565b61041f611212565b61042761123f565b6040516370a0823160e01b81523060048201526000907f00000000000000000000000000000000000000000000000000000000000000006001600160a01b0316906370a0823190602401602060405180830381865afa15801561048e573d6000803e3d6000fd5b505050506040513d601f19601f820116820180604052508101906104b29190611674565b9050808211156104d55760405163786e0a9960e01b815260040160405180910390fd5b60007f00000000000000000000000000000000000000000000000000000000000000006001600160a01b031663a9059cbb6105186000546001600160a01b031690565b6040516001600160e01b031960e084901b1681526001600160a01b039091166004820152602481018690526044016020604051808303816000875af1158015610565573d6000803e3d6000fd5b505050506040513d601f19601f82011682018060405250810190610589919061168d565b9050806105a9576040516312171d8360e31b815260040160405180910390fd5b6000546001600160a01b03166040516370a0823160e01b81523060048201526001600160a01b03918216917f04dac1d8304dac8e7856f8cc2e1d9b6545d28637e947c4d8e93a95f1c87caf049186917f000000000000000000000000000000000000000000000000000000000000000016906370a0823190602401602060405180830381865afa158015610641573d6000803e3d6000fd5b505050506040513d601f19601f820116820180604052508101906106659190611674565b604080519283526020830191909152429082015260600160405180910390a2505061068f60018055565b50565b61069a611212565b6106a2611269565b565b6106ac611212565b6040516370a0823160e01b81523060048201526000907f00000000000000000000000000000000000000000000000000000000000000006001600160a01b0316906370a0823190602401602060405180830381865afa158015610713573d6000803e3d6000fd5b505050506040513d601f19601f820116820180604052508101906107379190611674565b90508082111561075a5760405163786e0a9960e01b815260040160405180910390fd5b60007f00000000000000000000000000000000000000000000000000000000000000006001600160a01b031663a9059cbb61079d6000546001600160a01b031690565b6040516001600160e01b031960e084901b1681526001600160a01b039091166004820152602481018690526044016020604051808303816000875af11580156107ea573d6000803e3d6000fd5b505050506040513d601f19601f8201168201806040525081019061080e919061168d565b90508061082e576040516312171d8360e31b815260040160405180910390fd5b600054604080518581524260208201526001600160a01b03909216917f56da9a5ae0bcf6e7c3fdd78a10550e7d0458de1c39bfb7f6e96a3e92dd344a68910160405180910390a2505050565b6040516370a0823160e01b81523060048201526000907f00000000000000000000000000000000000000000000000000000000000000006001600160a01b0316906370a0823190602401602060405180830381865afa1580156108e1573d6000803e3d6000fd5b505050506040513d601f19601f820116820180604052508101906109059190611674565b905090565b610912611212565b6106a260006112be565b61092461130e565b61092c61123f565b683635c9adc5dea0000084101561095657604051632ca2f52b60e11b815260040160405180910390fd5b33600090815260066020526040902054831461098557604051633ab3447f60e11b815260040160405180910390fd5b6040516bffffffffffffffffffffffff1933606090811b82166020840152603483018790526054830186905246607484015230901b16609482015260009060a8016040516020818303038152906040528051906020012090506000610a17827f19457468657265756d205369676e6564204d6573736167653a0a3332000000006000908152601c91909152603c902090565b90506000610a5b8286868080601f01602080910402602001604051908101604052809392919081815260200183838082843760009201919091525061133992505050565b6002549091506001600160a01b03808316911614610a8c57604051638baa579f60e01b815260040160405180910390fd5b33600090815260036020526040902054871115610abc576040516324aa779360e21b815260040160405180910390fd5b6040516370a0823160e01b81523060048201526000907f00000000000000000000000000000000000000000000000000000000000000006001600160a01b0316906370a0823190602401602060405180830381865afa158015610b23573d6000803e3d6000fd5b505050506040513d601f19601f82011682018060405250810190610b479190611674565b905087811015610b6a5760405163786e0a9960e01b815260040160405180910390fd5b336000908152600660205260408120805491610b85836116c5565b909155505033600090815260036020526040812080548a9290610ba99084906116de565b909155505033600090815260056020526040812080548a9290610bcd9084906116f1565b925050819055508760076000828254610be691906116de565b909155505060405163a9059cbb60e01b8152336004820152602481018990526000907f00000000000000000000000000000000000000000000000000000000000000006001600160a01b03169063a9059cbb906044016020604051808303816000875af1158015610c5b573d6000803e3d6000fd5b505050506040513d601f19601f82011682018060405250810190610c7f919061168d565b905080610c9f576040516312171d8360e31b815260040160405180910390fd5b336000818152600360209081526040918290205482518d8152918201529081018a90524260608201527f94ffd6b85c71b847775c89ef6496b93cee961bdc6ff827fd117f174f06f745ae9060800160405180910390a25050505050610d0360018055565b50505050565b610d11611212565b6106a2611365565b6040516370a0823160e01b8152306004820152600090819081906001600160a01b037f000000000000000000000000000000000000000000000000000000000000000016906370a0823190602401602060405180830381865afa158015610d84573d6000803e3d6000fd5b505050506040513d601f19601f82011682018060405250810190610da89190611674565b6007548082149591945092509050565b610dc061130e565b610dc861123f565b683635c9adc5dea00000811015610df257604051632ca2f52b60e11b815260040160405180910390fd5b6040516323b872dd60e01b8152336004820152306024820152604481018290526000907f00000000000000000000000000000000000000000000000000000000000000006001600160a01b0316906323b872dd906064016020604051808303816000875af1158015610e68573d6000803e3d6000fd5b505050506040513d601f19601f82011682018060405250810190610e8c919061168d565b905080610eac576040516312171d8360e31b815260040160405180910390fd5b3360009081526003602052604081208054849290610ecb9084906116f1565b90915550503360009081526004602052604081208054849290610eef9084906116f1565b925050819055508160076000828254610f0891906116f1565b90915550503360008181526003602090815260409182902054825186815291820152428183015290517f91ede45f04a37a7c170f5c1207df3b6bc748dc1e04ad5e917a241d0f52feada39181900360600190a25061068f60018055565b610f6d611212565b6001600160a01b038116610f945760405163e6c4247b60e01b815260040160405180910390fd5b600280546001600160a01b038381166001600160a01b0319831681179093556040519116919082907f6f90e3333b36a43e9473b1faf6286d9e81782ed8df1110323511fbbc67a1e61090600090a35050565b610fee611212565b610ff661123f565b6040516370a0823160e01b81523060048201526000907f00000000000000000000000000000000000000000000000000000000000000006001600160a01b0316906370a0823190602401602060405180830381865afa15801561105d573d6000803e3d6000fd5b505050506040513d601f19601f820116820180604052508101906110819190611674565b9050806000036110a45760405163786e0a9960e01b815260040160405180910390fd5b60007f00000000000000000000000000000000000000000000000000000000000000006001600160a01b031663a9059cbb6110e76000546001600160a01b031690565b6040516001600160e01b031960e084901b1681526001600160a01b039091166004820152602481018590526044016020604051808303816000875af1158015611134573d6000803e3d6000fd5b505050506040513d601f19601f82011682018060405250810190611158919061168d565b905080611178576040516312171d8360e31b815260040160405180910390fd5b6000805460408051858152602081019390935242908301526001600160a01b0316907f04dac1d8304dac8e7856f8cc2e1d9b6545d28637e947c4d8e93a95f1c87caf049060600160405180910390a250506106a260018055565b6111da611212565b6001600160a01b03811661120957604051631e4fbdf760e01b8152600060048201526024015b60405180910390fd5b61068f816112be565b6000546001600160a01b031633146106a25760405163118cdaa760e01b8152336004820152602401611200565b60026001540361126257604051633ee5aeb560e01b815260040160405180910390fd5b6002600155565b6112716113a8565b6000805460ff60a01b191690557f5db9ee0a495bf2e6ff9c91a7834c1ba4fdd244a5e8aa4e537bd38aeae4b073aa335b6040516001600160a01b03909116815260200160405180910390a1565b600080546001600160a01b038381166001600160a01b0319831681178455604051919092169283917f8be0079c531659141344cd1fd0a4f28419497f9722a3daafe3b4186f6b6457e09190a35050565b600054600160a01b900460ff16156106a25760405163d93c066560e01b815260040160405180910390fd5b60008060008061134986866113d2565b925092509250611359828261141f565b50909150505b92915050565b61136d61130e565b6000805460ff60a01b1916600160a01b1790557f62e78cea01bee320cd4e420270b5ea74000d11b0c9f74754ebdbfc544b05a2586112a13390565b600054600160a01b900460ff166106a257604051638dfc202b60e01b815260040160405180910390fd5b6000806000835160410361140c5760208401516040850151606086015160001a6113fe888285856114dc565b955095509550505050611418565b50508151600091506002905b9250925092565b600082600381111561143357611433611704565b0361143c575050565b600182600381111561145057611450611704565b0361146e5760405163f645eedf60e01b815260040160405180910390fd5b600282600381111561148257611482611704565b036114a35760405163fce698f760e01b815260048101829052602401611200565b60038260038111156114b7576114b7611704565b036114d8576040516335e2f38360e21b815260048101829052602401611200565b5050565b600080807f7fffffffffffffffffffffffffffffff5d576e7357a4501ddfe92f46681b20a084111561151757506000915060039050826115a1565b604080516000808252602082018084528a905260ff891692820192909252606081018790526080810186905260019060a0016020604051602081039080840390855afa15801561156b573d6000803e3d6000fd5b5050604051601f1901519150506001600160a01b038116611597575060009250600191508290506115a1565b9250600091508190505b9450945094915050565b6000602082840312156115bd57600080fd5b81356001600160a01b03811681146115d457600080fd5b9392505050565b6000602082840312156115ed57600080fd5b5035919050565b6000806000806060858703121561160a57600080fd5b8435935060208501359250604085013567ffffffffffffffff8082111561163057600080fd5b818701915087601f83011261164457600080fd5b81358181111561165357600080fd5b88602082850101111561166557600080fd5b95989497505060200194505050565b60006020828403121561168657600080fd5b5051919050565b60006020828403121561169f57600080fd5b815180151581146115d457600080fd5b634e487b7160e01b600052601160045260246000fd5b6000600182016116d7576116d76116af565b5060010190565b8181038181111561135f5761135f6116af565b8082018082111561135f5761135f6116af565b634e487b7160e01b600052602160045260246000fdfea2646970667358221220e3894a90908905b38cd806331cc891c1dc713ad3ef92a4e1c30bee8e2c7a1ddb64736f6c63430008140033",
  "linkReferences": {},
  "deployedLinkReferences": {}
}