{
  "_format": "hh-sol-artifact-1",
  "contractName": "SpinWheelQTDistributor",
  "sourceName": "contracts/SpinWheelQTDistributor.sol",
  "abi": [
    {
      "inputs": [
        {
          "internalType": "address",
          "name": "_qtTokenAddress",
          "type": "address"
        }
      ],
      "stateMutability": "nonpayable",
      "type": "constructor"
    },
    {
      "anonymous": false,
      "inputs": [
        {
          "indexed": true,
          "internalType": "address",
          "name": "previousOwner",
          "type": "address"
        },
        {
          "indexed": true,
          "internalType": "address",
          "name": "newOwner",
          "type": "address"
        }
      ],
      "name": "OwnershipTransferred",
      "type": "event"
    },
    {
      "anonymous": false,
      "inputs": [
        {
          "indexed": true,
          "internalType": "address",
          "name": "user",
          "type": "address"
        },
        {
          "indexed": false,
          "internalType": "uint256",
          "name": "amount",
          "type": "uint256"
        },
        {
          "indexed": false,
          "internalType": "uint256",
          "name": "timestamp",
          "type": "uint256"
        }
      ],
      "name": "QTRewardClaimed",
      "type": "event"
    },
    {
      "anonymous": false,
      "inputs": [
        {
          "indexed": false,
          "internalType": "uint256",
          "name": "amount",
          "type": "uint256"
        },
        {
          "indexed": false,
          "internalType": "uint256",
          "name": "timestamp",
          "type": "uint256"
        }
      ],
      "name": "QTTokensDeposited",
      "type": "event"
    },
    {
      "anonymous": false,
      "inputs": [
        {
          "indexed": false,
          "internalType": "uint256",
          "name": "amount",
          "type": "uint256"
        },
        {
          "indexed": false,
          "internalType": "uint256",
          "name": "timestamp",
          "type": "uint256"
        }
      ],
      "name": "QTTokensWithdrawn",
      "type": "event"
    },
    {
      "inputs": [],
      "name": "COOLDOWN_PERIOD",
      "outputs": [
        {
          "internalType": "uint256",
          "name": "",
          "type": "uint256"
        }
      ],
      "stateMutability": "view",
      "type": "function"
    },
    {
      "inputs": [],
      "name": "REWARD_10000_QT",
      "outputs": [
        {
          "internalType": "uint256",
          "name": "",
          "type": "uint256"
        }
      ],
      "stateMutability": "view",
      "type": "function"
    },
    {
      "inputs": [],
      "name": "REWARD_1000_QT",
      "outputs": [
        {
          "internalType": "uint256",
          "name": "",
          "type": "uint256"
        }
      ],
      "stateMutability": "view",
      "type": "function"
    },
    {
      "inputs": [],
      "name": "REWARD_100_QT",
      "outputs": [
        {
          "internalType": "uint256",
          "name": "",
          "type": "uint256"
        }
      ],
      "stateMutability": "view",
      "type": "function"
    },
    {
      "inputs": [],
      "name": "REWARD_2000_QT",
      "outputs": [
        {
          "internalType": "uint256",
          "name": "",
          "type": "uint256"
        }
      ],
      "stateMutability": "view",
      "type": "function"
    },
    {
      "inputs": [],
      "name": "REWARD_200_QT",
      "outputs": [
        {
          "internalType": "uint256",
          "name": "",
          "type": "uint256"
        }
      ],
      "stateMutability": "view",
      "type": "function"
    },
    {
      "inputs": [],
      "name": "REWARD_500_QT",
      "outputs": [
        {
          "internalType": "uint256",
          "name": "",
          "type": "uint256"
        }
      ],
      "stateMutability": "view",
      "type": "function"
    },
    {
      "inputs": [
        {
          "internalType": "address",
          "name": "user",
          "type": "address"
        }
      ],
      "name": "canClaim",
      "outputs": [
        {
          "internalType": "bool",
          "name": "",
          "type": "bool"
        }
      ],
      "stateMutability": "view",
      "type": "function"
    },
    {
      "inputs": [
        {
          "internalType": "uint256",
          "name": "rewardAmount",
          "type": "uint256"
        }
      ],
      "name": "claimSpinReward",
      "outputs": [],
      "stateMutability": "nonpayable",
      "type": "function"
    },
    {
      "inputs": [
        {
          "internalType": "address",
          "name": "userAddress",
          "type": "address"
        },
        {
          "internalType": "uint256",
          "name": "rewardAmount",
          "type": "uint256"
        }
      ],
      "name": "claimSpinRewardForUser",
      "outputs": [],
      "stateMutability": "nonpayable",
      "type": "function"
    },
    {
      "inputs": [
        {
          "internalType": "uint256",
          "name": "amount",
          "type": "uint256"
        }
      ],
      "name": "depositQTTokens",
      "outputs": [],
      "stateMutability": "nonpayable",
      "type": "function"
    },
    {
      "inputs": [],
      "name": "getQTBalance",
      "outputs": [
        {
          "internalType": "uint256",
          "name": "",
          "type": "uint256"
        }
      ],
      "stateMutability": "view",
      "type": "function"
    },
    {
      "inputs": [],
      "name": "getQTBalanceReadable",
      "outputs": [
        {
          "internalType": "uint256",
          "name": "",
          "type": "uint256"
        }
      ],
      "stateMutability": "view",
      "type": "function"
    },
    {
      "inputs": [
        {
          "internalType": "address",
          "name": "user",
          "type": "address"
        }
      ],
      "name": "getRemainingCooldown",
      "outputs": [
        {
          "internalType": "uint256",
          "name": "",
          "type": "uint256"
        }
      ],
      "stateMutability": "view",
      "type": "function"
    },
    {
      "inputs": [
        {
          "internalType": "address",
          "name": "user",
          "type": "address"
        }
      ],
      "name": "getUserClaimStatus",
      "outputs": [
        {
          "internalType": "uint256",
          "name": "lastClaim",
          "type": "uint256"
        },
        {
          "internalType": "bool",
          "name": "canClaimNow",
          "type": "bool"
        },
        {
          "internalType": "uint256",
          "name": "remainingCooldown",
          "type": "uint256"
        },
        {
          "internalType": "uint256",
          "name": "totalUserClaims",
          "type": "uint256"
        }
      ],
      "stateMutability": "view",
      "type": "function"
    },
    {
      "inputs": [
        {
          "internalType": "uint256",
          "name": "amount",
          "type": "uint256"
        }
      ],
      "name": "isValidRewardAmount",
      "outputs": [
        {
          "internalType": "bool",
          "name": "",
          "type": "bool"
        }
      ],
      "stateMutability": "pure",
      "type": "function"
    },
    {
      "inputs": [
        {
          "internalType": "address",
          "name": "",
          "type": "address"
        }
      ],
      "name": "lastClaimTimestamp",
      "outputs": [
        {
          "internalType": "uint256",
          "name": "",
          "type": "uint256"
        }
      ],
      "stateMutability": "view",
      "type": "function"
    },
    {
      "inputs": [],
      "name": "owner",
      "outputs": [
        {
          "internalType": "address",
          "name": "",
          "type": "address"
        }
      ],
      "stateMutability": "view",
      "type": "function"
    },
    {
      "inputs": [],
      "name": "qtToken",
      "outputs": [
        {
          "internalType": "address",
          "name": "",
          "type": "address"
        }
      ],
      "stateMutability": "view",
      "type": "function"
    },
    {
      "inputs": [
        {
          "internalType": "address",
          "name": "",
          "type": "address"
        }
      ],
      "name": "totalClaims",
      "outputs": [
        {
          "internalType": "uint256",
          "name": "",
          "type": "uint256"
        }
      ],
      "stateMutability": "view",
      "type": "function"
    },
    {
      "inputs": [
        {
          "internalType": "address",
          "name": "newOwner",
          "type": "address"
        }
      ],
      "name": "transferOwnership",
      "outputs": [],
      "stateMutability": "nonpayable",
      "type": "function"
    },
    {
      "inputs": [
        {
          "internalType": "uint256",
          "name": "amount",
          "type": "uint256"
        }
      ],
      "name": "withdrawQTTokens",
      "outputs": [],
      "stateMutability": "nonpayable",
      "type": "function"
    }
  ],
  "bytecode": "0x608060405234801561001057600080fd5b506040516110cd3803806110cd83398101604081905261002f916100b7565b6001600160a01b0381166100895760405162461bcd60e51b815260206004820152601860248201527f496e76616c696420515420746f6b656e20616464726573730000000000000000604482015260640160405180910390fd5b600080546001600160a01b039092166001600160a01b031992831617905560018054909116331790556100e7565b6000602082840312156100c957600080fd5b81516001600160a01b03811681146100e057600080fd5b9392505050565b610fd7806100f66000396000f3fe608060405234801561001057600080fd5b50600436106101425760003560e01c80638da5cb5b116100b8578063a12b5e311161007c578063a12b5e31146102c6578063acab7f53146102ce578063bd9d518b146102d6578063bf3506c1146102f6578063e6f3e00414610309578063f2fde38b1461031c57600080fd5b80638da5cb5b1461025d578063921ec61c14610270578063978a618f146102835780639a30aa97146102935780639a9048af146102a357600080fd5b80635db10e891161010a5780635db10e89146101fd5780636907ba77146102105780636c77ac19146102205780636e99d52f146102305780638369d632146102395780638b41ad4c1461024c57600080fd5b806305d97f4f14610147578063141482fb146101775780631d3276361461019557806337b7b3aa146101aa5780634054ed90146101dd575b600080fd5b60005461015a906001600160a01b031681565b6040516001600160a01b0390911681526020015b60405180910390f35b610187683635c9adc5dea0000081565b60405190815260200161016e565b6101a86101a3366004610dbf565b61032f565b005b6101bd6101b8366004610df4565b6103fd565b60408051948552921515602085015291830152606082015260800161016e565b6101876101eb366004610df4565b60036020526000908152604090205481565b6101a861020b366004610dbf565b610457565b610187686c6b935b8bbd40000081565b61018768056bc75e2d6310000081565b610187610e1081565b6101a8610247366004610e16565b61065c565b61018769021e19e0c9bab240000081565b60015461015a906001600160a01b031681565b6101a861027e366004610dbf565b61089e565b610187681b1ae4d6e2ef50000081565b610187680ad78ebc5ac620000081565b6102b66102b1366004610dbf565b61095c565b604051901515815260200161016e565b6101876109a3565b6101876109c6565b6101876102e4366004610df4565b60026020526000908152604090205481565b6102b6610304366004610df4565b6109d1565b610187610317366004610df4565b610a00565b6101a861032a366004610df4565b610a4a565b6001546001600160a01b031633146103625760405162461bcd60e51b815260040161035990610e40565b60405180910390fd5b600061037682670de0b6b3a7640000610e7d565b90506103823382610b18565b6103c05760405162461bcd60e51b815260206004820152600f60248201526e151c985b9cd9995c8819985a5b1959608a1b6044820152606401610359565b604080518281524260208201527fe1a7050282a9cd3459044ff8b06665451c5b38fa08662e91647e108359a12a9791015b60405180910390a15050565b6001600160a01b038116600090815260026020526040812054819081908190610425866109d1565b61042e87610a00565b6001600160a01b0397909716600090815260036020526040902054919790969550909350915050565b60045460ff16156104aa5760405162461bcd60e51b815260206004820152601f60248201527f5265656e7472616e637947756172643a207265656e7472616e742063616c6c006044820152606401610359565b6004805460ff191660011790556104c0336109d1565b61050c5760405162461bcd60e51b815260206004820152601a60248201527f436f6f6c646f776e20706572696f64206e6f74207061737365640000000000006044820152606401610359565b6105158161095c565b6105595760405162461bcd60e51b8152602060048201526015602482015274125b9d985b1a59081c995dd85c9908185b5bdd5b9d605a1b6044820152606401610359565b600061056d82670de0b6b3a7640000610e7d565b9050806105786109c6565b10156105965760405162461bcd60e51b815260040161035990610e94565b336000908152600260209081526040808320429055600390915281208054916105be83610ed6565b91905055506105cd3382610b18565b6106145760405162461bcd60e51b81526020600482015260186024820152771455081d1bdad95b881d1c985b9cd9995c8819985a5b195960421b6044820152606401610359565b6040805182815242602082015233917fa7df68877fe6232f5f8b4767a4052054c5c846025efb7da77abf0ed8fdd2247d910160405180910390a250506004805460ff19169055565b6001546001600160a01b031633146106865760405162461bcd60e51b815260040161035990610e40565b60045460ff16156106d95760405162461bcd60e51b815260206004820152601f60248201527f5265656e7472616e637947756172643a207265656e7472616e742063616c6c006044820152606401610359565b6004805460ff191660011790556106ef826109d1565b61073b5760405162461bcd60e51b815260206004820152601a60248201527f436f6f6c646f776e20706572696f64206e6f74207061737365640000000000006044820152606401610359565b6107448161095c565b6107885760405162461bcd60e51b8152602060048201526015602482015274125b9d985b1a59081c995dd85c9908185b5bdd5b9d605a1b6044820152606401610359565b600061079c82670de0b6b3a7640000610e7d565b9050806107a76109c6565b10156107c55760405162461bcd60e51b815260040161035990610e94565b6001600160a01b0383166000908152600260209081526040808320429055600390915281208054916107f683610ed6565b91905055506108058382610b18565b61084c5760405162461bcd60e51b81526020600482015260186024820152771455081d1bdad95b881d1c985b9cd9995c8819985a5b195960421b6044820152606401610359565b604080518281524260208201526001600160a01b038516917fa7df68877fe6232f5f8b4767a4052054c5c846025efb7da77abf0ed8fdd2247d910160405180910390a250506004805460ff1916905550565b6001546001600160a01b031633146108c85760405162461bcd60e51b815260040161035990610e40565b60006108dc82670de0b6b3a7640000610e7d565b90506108e9333083610bea565b6109275760405162461bcd60e51b815260206004820152600f60248201526e151c985b9cd9995c8819985a5b1959608a1b6044820152606401610359565b604080518281524260208201527ff6e63dc48e99b505f9cef0169d480a8a50b67821e962904a468d07a02c78ec1991016103f1565b6000816064148061096d57508160c8145b806109795750816101f4145b806109855750816103e8145b806109915750816107d0145b8061099d575081612710145b92915050565b6000670de0b6b3a76400006109b730610cc5565b6109c19190610eef565b905090565b60006109c130610cc5565b6001600160a01b0381166000908152600260205260408120546109f790610e1090610f11565b42101592915050565b6000610a0b826109d1565b15610a1857506000919050565b6001600160a01b0382166000908152600260205260409020544290610a4090610e1090610f11565b61099d9190610f24565b6001546001600160a01b03163314610a745760405162461bcd60e51b815260040161035990610e40565b6001600160a01b038116610abc5760405162461bcd60e51b815260206004820152600f60248201526e496e76616c6964206164647265737360881b6044820152606401610359565b6001546040516001600160a01b038084169216907f8be0079c531659141344cd1fd0a4f28419497f9722a3daafe3b4186f6b6457e090600090a3600180546001600160a01b0319166001600160a01b0392909216919091179055565b600080546040516001600160a01b038581166024830152604482018590528392839291169060640160408051601f198184030181529181526020820180516001600160e01b031663a9059cbb60e01b17905251610b759190610f37565b6000604051808303816000865af19150503d8060008114610bb2576040519150601f19603f3d011682016040523d82523d6000602084013e610bb7565b606091505b5091509150818015610be1575080511580610be1575080806020019051810190610be19190610f66565b95945050505050565b600080546040516001600160a01b0386811660248301528581166044830152606482018590528392839291169060840160408051601f198184030181529181526020820180516001600160e01b03166323b872dd60e01b17905251610c4f9190610f37565b6000604051808303816000865af19150503d8060008114610c8c576040519150601f19603f3d011682016040523d82523d6000602084013e610c91565b606091505b5091509150818015610cbb575080511580610cbb575080806020019051810190610cbb9190610f66565b9695505050505050565b600080546040516001600160a01b0384811660248301528392839291169060440160408051601f198184030181529181526020820180516001600160e01b03166370a0823160e01b17905251610d1b9190610f37565b600060405180830381855afa9150503d8060008114610d56576040519150601f19603f3d011682016040523d82523d6000602084013e610d5b565b606091505b509150915081610da35760405162461bcd60e51b815260206004820152601360248201527210985b185b98d94818d85b1b0819985a5b1959606a1b6044820152606401610359565b80806020019051810190610db79190610f88565b949350505050565b600060208284031215610dd157600080fd5b5035919050565b80356001600160a01b0381168114610def57600080fd5b919050565b600060208284031215610e0657600080fd5b610e0f82610dd8565b9392505050565b60008060408385031215610e2957600080fd5b610e3283610dd8565b946020939093013593505050565b6020808252600d908201526c2737ba103a34329037bbb732b960991b604082015260600190565b634e487b7160e01b600052601160045260246000fd5b808202811582820484141761099d5761099d610e67565b60208082526022908201527f496e73756666696369656e7420515420746f6b656e7320696e20636f6e74726160408201526118dd60f21b606082015260800190565b600060018201610ee857610ee8610e67565b5060010190565b600082610f0c57634e487b7160e01b600052601260045260246000fd5b500490565b8082018082111561099d5761099d610e67565b8181038181111561099d5761099d610e67565b6000825160005b81811015610f585760208186018101518583015201610f3e565b506000920191825250919050565b600060208284031215610f7857600080fd5b81518015158114610e0f57600080fd5b600060208284031215610f9a57600080fd5b505191905056fea26469706673582212202486c2e2141989dee8aff3d7d3a19cdc348bf985e39090571b9c7a163b4aea5e64736f6c63430008140033",
  "linkReferences": {},
  "deployedLinkReferences": {}
}