{
  "_format": "hh-sol-artifact-1",
  "contractName": "SpinWheelQTDistributor",
  "sourceName": "contracts/SpinWheelQTDistributor.sol",
  "abi": [
    {
      "inputs": [
        {
          "internalType": "address",
          "name": "_qtTokenAddress",
          "type": "address"
        }
      ],
      "stateMutability": "nonpayable",
      "type": "constructor"
    },
    {
      "inputs": [
        {
          "internalType": "address",
          "name": "token",
          "type": "address"
        }
      ],
      "name": "SafeERC20FailedOperation",
      "type": "error"
    },
    {
      "anonymous": false,
      "inputs": [
        {
          "indexed": true,
          "internalType": "address",
          "name": "previousOwner",
          "type": "address"
        },
        {
          "indexed": true,
          "internalType": "address",
          "name": "newOwner",
          "type": "address"
        }
      ],
      "name": "OwnershipTransferred",
      "type": "event"
    },
    {
      "anonymous": false,
      "inputs": [
        {
          "indexed": true,
          "internalType": "address",
          "name": "user",
          "type": "address"
        },
        {
          "indexed": false,
          "internalType": "uint256",
          "name": "amount",
          "type": "uint256"
        },
        {
          "indexed": false,
          "internalType": "uint256",
          "name": "timestamp",
          "type": "uint256"
        }
      ],
      "name": "QTRewardClaimed",
      "type": "event"
    },
    {
      "anonymous": false,
      "inputs": [
        {
          "indexed": false,
          "internalType": "uint256",
          "name": "amount",
          "type": "uint256"
        },
        {
          "indexed": false,
          "internalType": "uint256",
          "name": "timestamp",
          "type": "uint256"
        }
      ],
      "name": "QTTokensDeposited",
      "type": "event"
    },
    {
      "anonymous": false,
      "inputs": [
        {
          "indexed": false,
          "internalType": "uint256",
          "name": "amount",
          "type": "uint256"
        },
        {
          "indexed": false,
          "internalType": "uint256",
          "name": "timestamp",
          "type": "uint256"
        }
      ],
      "name": "QTTokensWithdrawn",
      "type": "event"
    },
    {
      "inputs": [],
      "name": "COOLDOWN_PERIOD",
      "outputs": [
        {
          "internalType": "uint256",
          "name": "",
          "type": "uint256"
        }
      ],
      "stateMutability": "view",
      "type": "function"
    },
    {
      "inputs": [],
      "name": "REWARD_10000_QT",
      "outputs": [
        {
          "internalType": "uint256",
          "name": "",
          "type": "uint256"
        }
      ],
      "stateMutability": "view",
      "type": "function"
    },
    {
      "inputs": [],
      "name": "REWARD_1000_QT",
      "outputs": [
        {
          "internalType": "uint256",
          "name": "",
          "type": "uint256"
        }
      ],
      "stateMutability": "view",
      "type": "function"
    },
    {
      "inputs": [],
      "name": "REWARD_100_QT",
      "outputs": [
        {
          "internalType": "uint256",
          "name": "",
          "type": "uint256"
        }
      ],
      "stateMutability": "view",
      "type": "function"
    },
    {
      "inputs": [],
      "name": "REWARD_2000_QT",
      "outputs": [
        {
          "internalType": "uint256",
          "name": "",
          "type": "uint256"
        }
      ],
      "stateMutability": "view",
      "type": "function"
    },
    {
      "inputs": [],
      "name": "REWARD_200_QT",
      "outputs": [
        {
          "internalType": "uint256",
          "name": "",
          "type": "uint256"
        }
      ],
      "stateMutability": "view",
      "type": "function"
    },
    {
      "inputs": [],
      "name": "REWARD_500_QT",
      "outputs": [
        {
          "internalType": "uint256",
          "name": "",
          "type": "uint256"
        }
      ],
      "stateMutability": "view",
      "type": "function"
    },
    {
      "inputs": [
        {
          "internalType": "address",
          "name": "user",
          "type": "address"
        }
      ],
      "name": "canClaim",
      "outputs": [
        {
          "internalType": "bool",
          "name": "",
          "type": "bool"
        }
      ],
      "stateMutability": "view",
      "type": "function"
    },
    {
      "inputs": [
        {
          "internalType": "uint256",
          "name": "rewardAmount",
          "type": "uint256"
        }
      ],
      "name": "claimSpinReward",
      "outputs": [],
      "stateMutability": "nonpayable",
      "type": "function"
    },
    {
      "inputs": [
        {
          "internalType": "address",
          "name": "userAddress",
          "type": "address"
        },
        {
          "internalType": "uint256",
          "name": "rewardAmount",
          "type": "uint256"
        }
      ],
      "name": "claimSpinRewardForUser",
      "outputs": [],
      "stateMutability": "nonpayable",
      "type": "function"
    },
    {
      "inputs": [
        {
          "internalType": "uint256",
          "name": "amount",
          "type": "uint256"
        }
      ],
      "name": "depositQTTokens",
      "outputs": [],
      "stateMutability": "nonpayable",
      "type": "function"
    },
    {
      "inputs": [],
      "name": "getQTBalance",
      "outputs": [
        {
          "internalType": "uint256",
          "name": "",
          "type": "uint256"
        }
      ],
      "stateMutability": "view",
      "type": "function"
    },
    {
      "inputs": [],
      "name": "getQTBalanceReadable",
      "outputs": [
        {
          "internalType": "uint256",
          "name": "",
          "type": "uint256"
        }
      ],
      "stateMutability": "view",
      "type": "function"
    },
    {
      "inputs": [
        {
          "internalType": "address",
          "name": "user",
          "type": "address"
        }
      ],
      "name": "getRemainingCooldown",
      "outputs": [
        {
          "internalType": "uint256",
          "name": "",
          "type": "uint256"
        }
      ],
      "stateMutability": "view",
      "type": "function"
    },
    {
      "inputs": [
        {
          "internalType": "address",
          "name": "user",
          "type": "address"
        }
      ],
      "name": "getUserClaimStatus",
      "outputs": [
        {
          "internalType": "uint256",
          "name": "lastClaim",
          "type": "uint256"
        },
        {
          "internalType": "bool",
          "name": "canClaimNow",
          "type": "bool"
        },
        {
          "internalType": "uint256",
          "name": "remainingCooldown",
          "type": "uint256"
        },
        {
          "internalType": "uint256",
          "name": "totalUserClaims",
          "type": "uint256"
        }
      ],
      "stateMutability": "view",
      "type": "function"
    },
    {
      "inputs": [
        {
          "internalType": "uint256",
          "name": "amount",
          "type": "uint256"
        }
      ],
      "name": "isValidRewardAmount",
      "outputs": [
        {
          "internalType": "bool",
          "name": "",
          "type": "bool"
        }
      ],
      "stateMutability": "pure",
      "type": "function"
    },
    {
      "inputs": [
        {
          "internalType": "address",
          "name": "",
          "type": "address"
        }
      ],
      "name": "lastClaimTimestamp",
      "outputs": [
        {
          "internalType": "uint256",
          "name": "",
          "type": "uint256"
        }
      ],
      "stateMutability": "view",
      "type": "function"
    },
    {
      "inputs": [],
      "name": "owner",
      "outputs": [
        {
          "internalType": "address",
          "name": "",
          "type": "address"
        }
      ],
      "stateMutability": "view",
      "type": "function"
    },
    {
      "inputs": [],
      "name": "qtToken",
      "outputs": [
        {
          "internalType": "contract IERC20",
          "name": "",
          "type": "address"
        }
      ],
      "stateMutability": "view",
      "type": "function"
    },
    {
      "inputs": [
        {
          "internalType": "address",
          "name": "",
          "type": "address"
        }
      ],
      "name": "totalClaims",
      "outputs": [
        {
          "internalType": "uint256",
          "name": "",
          "type": "uint256"
        }
      ],
      "stateMutability": "view",
      "type": "function"
    },
    {
      "inputs": [
        {
          "internalType": "address",
          "name": "newOwner",
          "type": "address"
        }
      ],
      "name": "transferOwnership",
      "outputs": [],
      "stateMutability": "nonpayable",
      "type": "function"
    },
    {
      "inputs": [
        {
          "internalType": "uint256",
          "name": "amount",
          "type": "uint256"
        }
      ],
      "name": "withdrawQTTokens",
      "outputs": [],
      "stateMutability": "nonpayable",
      "type": "function"
    }
  ],
  "bytecode": "0x608060405234801561001057600080fd5b50604051610f78380380610f7883398101604081905261002f916100b7565b6001600160a01b0381166100895760405162461bcd60e51b815260206004820152601860248201527f496e76616c696420515420746f6b656e20616464726573730000000000000000604482015260640160405180910390fd5b600080546001600160a01b039092166001600160a01b031992831617905560018054909116331790556100e7565b6000602082840312156100c957600080fd5b81516001600160a01b03811681146100e057600080fd5b9392505050565b610e82806100f66000396000f3fe608060405234801561001057600080fd5b50600436106101425760003560e01c80638da5cb5b116100b8578063a12b5e311161007c578063a12b5e31146102c6578063acab7f53146102ce578063bd9d518b146102d6578063bf3506c1146102f6578063e6f3e00414610309578063f2fde38b1461031c57600080fd5b80638da5cb5b1461025d578063921ec61c14610270578063978a618f146102835780639a30aa97146102935780639a9048af146102a357600080fd5b80635db10e891161010a5780635db10e89146101fd5780636907ba77146102105780636c77ac19146102205780636e99d52f146102305780638369d632146102395780638b41ad4c1461024c57600080fd5b806305d97f4f14610147578063141482fb146101775780631d3276361461019557806337b7b3aa146101aa5780634054ed90146101dd575b600080fd5b60005461015a906001600160a01b031681565b6040516001600160a01b0390911681526020015b60405180910390f35b610187683635c9adc5dea0000081565b60405190815260200161016e565b6101a86101a3366004610cbb565b61032f565b005b6101bd6101b8366004610cf0565b61041d565b60408051948552921515602085015291830152606082015260800161016e565b6101876101eb366004610cf0565b60036020526000908152604090205481565b6101a861020b366004610cbb565b610477565b610187686c6b935b8bbd40000081565b61018768056bc75e2d6310000081565b610187610e1081565b6101a8610247366004610d12565b610642565b61018769021e19e0c9bab240000081565b60015461015a906001600160a01b031681565b6101a861027e366004610cbb565b61084a565b610187681b1ae4d6e2ef50000081565b610187680ad78ebc5ac620000081565b6102b66102b1366004610cbb565b610928565b604051901515815260200161016e565b61018761096f565b6101876109f3565b6101876102e4366004610cf0565b60026020526000908152604090205481565b6102b6610304366004610cf0565b610a60565b610187610317366004610cf0565b610a8f565b6101a861032a366004610cf0565b610ad9565b6001546001600160a01b031633146103625760405162461bcd60e51b815260040161035990610d3c565b60405180910390fd5b600081116103b25760405162461bcd60e51b815260206004820152601d60248201527f416d6f756e74206d7573742062652067726561746572207468616e20300000006044820152606401610359565b60006103c682670de0b6b3a7640000610d79565b6000549091506103e0906001600160a01b03163383610ba7565b604080518281524260208201527fe1a7050282a9cd3459044ff8b06665451c5b38fa08662e91647e108359a12a9791015b60405180910390a15050565b6001600160a01b03811660009081526002602052604081205481908190819061044586610a60565b61044e87610a8f565b6001600160a01b0397909716600090815260036020526040902054919790969550909350915050565b60045460ff16156104ca5760405162461bcd60e51b815260206004820152601f60248201527f5265656e7472616e637947756172643a207265656e7472616e742063616c6c006044820152606401610359565b6004805460ff191660011790556104e033610a60565b61052c5760405162461bcd60e51b815260206004820152601a60248201527f436f6f6c646f776e20706572696f64206e6f74207061737365640000000000006044820152606401610359565b61053581610928565b6105795760405162461bcd60e51b8152602060048201526015602482015274125b9d985b1a59081c995dd85c9908185b5bdd5b9d605a1b6044820152606401610359565b600061058d82670de0b6b3a7640000610d79565b9050806105986109f3565b10156105b65760405162461bcd60e51b815260040161035990610d90565b336000908152600260209081526040808320429055600390915281208054916105de83610dd2565b90915550506000546105fa906001600160a01b03163383610ba7565b6040805182815242602082015233917fa7df68877fe6232f5f8b4767a4052054c5c846025efb7da77abf0ed8fdd2247d910160405180910390a250506004805460ff19169055565b6001546001600160a01b0316331461066c5760405162461bcd60e51b815260040161035990610d3c565b60045460ff16156106bf5760405162461bcd60e51b815260206004820152601f60248201527f5265656e7472616e637947756172643a207265656e7472616e742063616c6c006044820152606401610359565b6004805460ff191660011790556106d582610a60565b6107215760405162461bcd60e51b815260206004820152601a60248201527f436f6f6c646f776e20706572696f64206e6f74207061737365640000000000006044820152606401610359565b61072a81610928565b61076e5760405162461bcd60e51b8152602060048201526015602482015274125b9d985b1a59081c995dd85c9908185b5bdd5b9d605a1b6044820152606401610359565b600061078282670de0b6b3a7640000610d79565b90508061078d6109f3565b10156107ab5760405162461bcd60e51b815260040161035990610d90565b6001600160a01b0383166000908152600260209081526040808320429055600390915281208054916107dc83610dd2565b90915550506000546107f8906001600160a01b03168483610ba7565b604080518281524260208201526001600160a01b038516917fa7df68877fe6232f5f8b4767a4052054c5c846025efb7da77abf0ed8fdd2247d910160405180910390a250506004805460ff1916905550565b6001546001600160a01b031633146108745760405162461bcd60e51b815260040161035990610d3c565b600081116108c45760405162461bcd60e51b815260206004820152601d60248201527f416d6f756e74206d7573742062652067726561746572207468616e20300000006044820152606401610359565b60006108d882670de0b6b3a7640000610d79565b6000549091506108f3906001600160a01b0316333084610c0b565b604080518281524260208201527ff6e63dc48e99b505f9cef0169d480a8a50b67821e962904a468d07a02c78ec199101610411565b6000816064148061093957508160c8145b806109455750816101f4145b806109515750816103e8145b8061095d5750816107d0145b80610969575081612710145b92915050565b600080546040516370a0823160e01b8152306004820152670de0b6b3a7640000916001600160a01b0316906370a0823190602401602060405180830381865afa1580156109c0573d6000803e3d6000fd5b505050506040513d601f19601f820116820180604052508101906109e49190610deb565b6109ee9190610e04565b905090565b600080546040516370a0823160e01b81523060048201526001600160a01b03909116906370a0823190602401602060405180830381865afa158015610a3c573d6000803e3d6000fd5b505050506040513d601f19601f820116820180604052508101906109ee9190610deb565b6001600160a01b038116600090815260026020526040812054610a8690610e1090610e26565b42101592915050565b6000610a9a82610a60565b15610aa757506000919050565b6001600160a01b0382166000908152600260205260409020544290610acf90610e1090610e26565b6109699190610e39565b6001546001600160a01b03163314610b035760405162461bcd60e51b815260040161035990610d3c565b6001600160a01b038116610b4b5760405162461bcd60e51b815260206004820152600f60248201526e496e76616c6964206164647265737360881b6044820152606401610359565b6001546040516001600160a01b038084169216907f8be0079c531659141344cd1fd0a4f28419497f9722a3daafe3b4186f6b6457e090600090a3600180546001600160a01b0319166001600160a01b0392909216919091179055565b6040516001600160a01b03838116602483015260448201839052610c0691859182169063a9059cbb906064015b604051602081830303815290604052915060e01b6020820180516001600160e01b038381831617835250505050610c4a565b505050565b6040516001600160a01b038481166024830152838116604483015260648201839052610c449186918216906323b872dd90608401610bd4565b50505050565b600080602060008451602086016000885af180610c6d576040513d6000823e3d81fd5b50506000513d91508115610c85578060011415610c92565b6001600160a01b0384163b155b15610c4457604051635274afe760e01b81526001600160a01b0385166004820152602401610359565b600060208284031215610ccd57600080fd5b5035919050565b80356001600160a01b0381168114610ceb57600080fd5b919050565b600060208284031215610d0257600080fd5b610d0b82610cd4565b9392505050565b60008060408385031215610d2557600080fd5b610d2e83610cd4565b946020939093013593505050565b6020808252600d908201526c2737ba103a34329037bbb732b960991b604082015260600190565b634e487b7160e01b600052601160045260246000fd5b808202811582820484141761096957610969610d63565b60208082526022908201527f496e73756666696369656e7420515420746f6b656e7320696e20636f6e74726160408201526118dd60f21b606082015260800190565b600060018201610de457610de4610d63565b5060010190565b600060208284031215610dfd57600080fd5b5051919050565b600082610e2157634e487b7160e01b600052601260045260246000fd5b500490565b8082018082111561096957610969610d63565b8181038181111561096957610969610d6356fea2646970667358221220fbec809682bddb2c40dc7964d61665ccd65de9f26624bd9a6331743dd0d4c8af64736f6c63430008140033",
  "linkReferences": {},
  "deployedLinkReferences": {}
}